:100000000C9461000C947E000C947E000C947E0095
:100010000C947E000C947E000C947E000C947E0068
:100020000C947E000C947E000C947E000C947E0058
:100030000C947E000C947E000C947E000C947E0048
:100040000C944A010C947E000C947E000C947E006B
:100050000C947E000C947E000C947E000C947E0028
:100060000C947E000C947E00000000002400270009
:100070002A0000000000250028002B0000000000DE
:1000800023002600290004040404040404040202DA
:100090000202020203030303030301020408102007
:1000A0004080010204081020010204081020000012
:1000B0000007000201000003040600000000000029
:1000C000000011241FBECFEFD8E0DEBFCDBF11E08E
:1000D000A0E0B1E0E6EBF5E002C005900D92A030A3
:1000E000B107D9F711E0A0E0B1E001C01D92AB303B
:1000F000B107E1F70E94C8020C94D9020C940000E9
:1001000089E060E00E94730288E060E00E94730270
:1001100010920101109200011DC087E060E00E9472
:10012000730261E070E080E090E00E948F0187E060
:1001300061E00E94730261E070E080E090E00E9464
:100140008F0180910001909101010196909301012E
:1001500080930001809100019091010180509941AC
:10016000E4F288E061E00E947302109201011092B3
:1001700000011DC087E060E00E94730261E070E052
:1001800080E090E00E948F0187E061E00E947302AE
:1001900061E070E080E090E00E948F0180910001BA
:1001A000909101010196909301018093000180914B
:1001B00000019091010180509941E4F289E061E0F1
:1001C0000E94730288E060E00E94730210920101B5
:1001D000109200011DC087E060E00E94730261E0A0
:1001E00070E080E090E00E948F0187E061E00E9473
:1001F000730261E070E080E090E00E948F018091E6
:1002000000019091010101969093010180930001FA
:10021000809100019091010180509941E4F288E0C1
:1002200061E00E94730210920101109200011DC052
:1002300087E060E00E94730261E070E080E090E09F
:100240000E948F0187E061E00E94730261E070E02C
:1002500080E090E00E948F01809100019091010167
:10026000019690930101809300018091000190918B
:10027000010180509941E4F2089587E061E00E9415
:10028000340288E061E00E94340289E061E00E946B
:10029000340208951F920F920FB60F9211242F93DC
:1002A0003F938F939F93AF93BF938091060190915B
:1002B0000701A0910801B091090130910A01232F93
:1002C0002A592D3720F02D570196A11DB11D2093DD
:1002D0000A018093060190930701A0930801B0934F
:1002E00009018091020190910301A0910401B09154
:1002F00005010196A11DB11D809302019093030198
:10030000A0930401B0930501BF91AF919F918F918C
:100310003F912F910F900FBE0F901F901895EF9265
:10032000FF920F931F937B018C019FB7F89420914C
:10033000020130910301409104015091050186B5FD
:10034000A89B06C08F3F21F02F5F3F4F4F4F5F4F5D
:100350009FBF542F432F322F2227280F311D411DBD
:10036000511DDA01C901880F991FAA1FBB1F820FF7
:10037000931FA41FB51FBC0132C09FB7F8942091F2
:10038000020130910301409104015091050186B5AD
:10039000A89B06C08F3F21F02F5F3F4F4F4F5F4F0D
:1003A0009FBF542F432F322F2227280F311D411D6D
:1003B000511DDA01C901880F991FAA1FBB1F820FA7
:1003C000931FA41FB51F861B970B885E9340A8F24E
:1003D0000894E108F1080109110968517C4FE11402
:1003E000F1040105110549F61F910F91FF90EF905F
:1003F0000895789484B5826084BD84B5816084BD9D
:1004000085B5826085BD85B5816085BDEEE6F0E08D
:10041000808181608083E1E8F0E0108280818260E9
:100420008083808181608083E0E8F0E0808181606A
:100430008083E1EBF0E0808184608083E0EBF0E09A
:10044000808181608083EAE7F0E08081846080833E
:1004500080818260808380818160808380818068E8
:1004600080831092C1000895CF93DF93482F50E00E
:10047000CA0186569F4FFC0134914A575F4FFA01DB
:100480008491882369F190E0880F991FFC01E85955
:10049000FF4FA591B491FC01EE58FF4FC591D49147
:1004A000662351F42FB7F8948C91932F909589235C
:1004B0008C93888189230BC0623061F42FB7F89444
:1004C0008C91932F909589238C938881832B88839B
:1004D0002FBF06C09FB7F8948C91832B8C939FBF3E
:1004E000DF91CF910895482F50E0CA0182559F4F68
:1004F000FC012491CA0186569F4FFC0194914A57F2
:100500005F4FFA013491332309F440C0222351F1A3
:10051000233071F0243028F42130A1F0223011F57D
:1005200014C02630B1F02730C1F02430D9F404C013
:10053000809180008F7703C0809180008F7D8093B1
:10054000800010C084B58F7702C084B58F7D84BDD4
:1005500009C08091B0008F7703C08091B0008F7D7B
:100560008093B000E32FF0E0EE0FFF1FEE58FF4F37
:10057000A591B4912FB7F894662321F48C919095AE
:10058000892302C08C91892B8C932FBF08950895E5
:10059000CF93DF930E94F9010E94C7020E943D01A0
:1005A000C0E0D0E00E9480002097E1F30E940000AC
:0605B000F9CFF894FFCF23
:00000001FF
