:100000000C9463000C948B000C948B000C948B006C
:100010000C948B000C948B000C948B000C948B0034
:100020000C948B000C948B000C948B000C948B0024
:100030000C948B000C948B000C948B000C948B0014
:100040000C94A40A0C948B000C94B20C0C94040D28
:100050000C948B000C948B000C948B000C948B00F4
:100060000C948B000C948B000000000024002700EF
:100070002A0000000000250028002B0000000000DE
:1000800023002600290004040404040404040202DA
:100090000202020203030303030301020408102007
:1000A0004080010204081020010204081020000012
:1000B0000007000201000003040600000000000029
:1000C0000000F4006A0E11241FBECFEFD8E0DEBF9F
:1000D000CDBF12E0A0E0B1E0E8E3F7E202C0059096
:1000E0000D92A236B107D9F715E0A2E6B2E001C041
:1000F0001D92AF34B107E1F710E0C6ECD0E004C0C8
:100100002297FE010E949613C23CD107C9F70E94B4
:10011000C10E0C949A130C9400000F931F93CF936D
:10012000DF93EC018B01DB018D919C918C179D0776
:1001300024F0FA016081718151C081E090E0821B5E
:100140009109880F991FAA27BB27A81BB90BF80193
:10015000EA0FFB1F80819181C817D90714F421E0B1
:1001600004C0A40FB51F14C02F5FA22FB0E0CD01B3
:10017000880F991FF801E80FF91F608171816C17D2
:100180007D0794F3840F951FC617D70721F4DC0170
:100190006D917C9123C0FD013197EE0FFF1F0E0F73
:1001A0001F1FD8012D913C91E40FF51F0190F081A4
:1001B000E02DDC018D919C918E1B9F0BC21BD30BFC
:1001C000621B730B9C012C9FC0012D9F900D3C9FC7
:1001D000900D11240E944B136E0F7F1FCB01DF91F6
:1001E000CF911F910F9108956F927F928F929F925E
:1001F000AF92BF92CF92DF92EF92FF920F931F9335
:1002000000D000D000D0EAE28E2EE2E09E2E7EE208
:10021000672E72E0772EE0903602F0903702009160
:10022000380210913902A0903A02B0903B02C0907F
:100230003C02D0903D0280913E0290913F02A091FD
:100240004002B0914102EDB7FEB781839283A38350
:10025000B4831682158288E692E0B401A30122E3FA
:1002600032E00E94BF058DB79EB706960FB6F89490
:100270009EBF0FBE8DBF81EA92E0B401A3010E9430
:10028000710A1F910F91FF90EF90DF90CF90BF9078
:10029000AF909F908F907F906F900895882339F052
:1002A00088E692E00E949D0480932902089560915F
:1002B000290288E692E070E00E944B040895809144
:1002C00050028823B9F580914A0290914B02A09187
:1002D0004C02B0914D0280932E0290932F02A09376
:1002E0003002B09331024091460250914702609132
:1002F00048027091490281EA92E00E945B074091B6
:10030000420250914302609144027091450281EA99
:1003100092E00E94530760914E0270914F0281EA71
:1003200092E00E94610781E00E944E0181E080938B
:100330005002089581EA92E00E9454061092500201
:1003400080E00E944E01089588E692E061E070E04E
:100350000E944B0480915002882339F01092500281
:100360000E945F0181E0809350028DE295E040E8B9
:1003700055E260E070E00E943F0D0895DF92EF9239
:10038000FF920F931F93CF93DF937C01D62E109291
:1003900063021092620200E010E011C08D2D0E94F5
:1003A0009C0BC80FD91FD0936302C093620261E017
:1003B00070E080E090E00E94F70A0F5F1F4FC0914D
:1003C0006202D09163020E151F0544F3CE01B701FE
:1003D0000E944B13CB016093620290936302DF9102
:1003E000CF911F910F91FF90EF90DF90089580E1E2
:1003F00090E06EE070E00E94BE01909365028093F1
:10040000640261E671E045EC51E022E30E948D0058
:1004100080936602909367020895CF92DF92EF92E5
:10042000FF920F931F930E94E90A0E94F701AA27E7
:1004300097FDA095BA2FBC01CD010E9411126093C7
:100440002A0270932B0280932C0290932D028091AC
:100450005002882309F495C081EA92E00E94850742
:10046000182F8DE295E060E071E00E9410108DE29F
:1004700095E0612F4AE050E00E94AB0F112311F08C
:100480001092500280915002882309F07EC081EAC8
:1004900092E00E94D80660933602709337028093F0
:1004A00038029093390281EA92E00E94FA06609342
:1004B0003A0270933B0280933C0290933D0281EAA2
:1004C00092E00E942A076B017C0160933E027093C8
:1004D0003F02809340029093410240913602509136
:1004E0003702609138027091390200913A021091FE
:1004F0003B0220913C0230913D0288E692E00E944E
:10050000030380E00E944E018DE295E064E171E01A
:100510000E941010409136025091370260913802CB
:10052000709139028DE295E022E030E00E94F710F0
:100530008DE295E067E271E00E94101040913A026E
:1005400050913B0260913C0270913D028DE295E03A
:1005500022E030E00E94F7108DE295E06FE271E05A
:100560000E94101040913E0250913F026091400263
:10057000709141028DE295E022E030E00E94FA1095
:1005800004C088E692E00E94A10460912E0270915E
:100590002F0280913002909131020E94DE119B0166
:1005A000AC018AE0B9010E94BE0B80915002882301
:1005B00019F18DE295E067E371E00E9410100E944E
:1005C000F701BC018DE295E04AE050E00E94FD0F8A
:1005D0008DE295E068E471E00E94101040912E02D7
:1005E00050912F0260913002709131028DE295E0BE
:1005F00022E030E00E94FA101F910F91FF90EF90DF
:10060000DF90CF9008952F923F924F925F926F921A
:100610007F928F929F92AF92BF92CF92DF92EF9292
:10062000FF920F931F93DF93CF9300D000D0CDB7ED
:10063000DEB71C0149835A836B837C8348015901CF
:1006400026013701CB01BA0120E030E040E050E064
:100650000E94721187FD8CC0C501B40120E030E01A
:1006600040E050E00E94721187FD82C0C701B601D0
:1006700020E030E040E050E00E94721187FD78C039
:1006800089819A81AB81BC81F10180839183A283AE
:10069000B383D10114968D929D92AD92BC9217971F
:1006A000C086D186E286F38664A575A586A597A542
:1006B0000E940F1220E030E04AE754E40E947611D5
:1006C0007B018C0189819A81AB81BC81F101848796
:1006D0009587A687B787C501B401A80197010E9435
:1006E000C5125B016C01D10150966D937D938D9382
:1006F0009C935397C301B201A80197010E94761100
:100700007B018C01F101648B758B868B978B808DBF
:10071000918D019769F560E070E080E090E02981BB
:100720003A814B815C810E940D11D1011C966D9321
:100730007D938D939C931F9760E070E080E090E044
:10074000A60195010E940D11F101608B718B828BC6
:10075000938B60E070E080E090E0A80197010E9438
:100760000D11D10154966D937D938D939C93579762
:100770000F900F900F900F90CF91DF911F910F91DD
:10078000FF90EF90DF90CF90BF90AF909F908F90B1
:100790007F906F905F904F903F902F9008954F9271
:1007A0005F926F927F928F929F92AF92BF92CF9201
:1007B000DF92EF92FF920F931F93CF93DF93EC01A1
:1007C0003A014B0178018901CB01BA01A8019701D7
:1007D0000E94C11287FF4EC068AA79AA8AAA9BAA62
:1007E000ECAAFDAA0EAB1FAB88AD882309F442C06A
:1007F0004C8C5D8CF201A080B180C280D380C60198
:10080000B501A80197010E94C112181634F4F20133
:10081000E082F182028313830DC0C601B501A401F9
:1008200093010E94721188232CF4F201608271827C
:1008300082829382ACA0BDA0CEA0DFA0ECA8FDA8D0
:100840000EA91FA9C601B501A80197010E94C112F6
:10085000181664F0E8A8F9A80AA91BA9C601B501F1
:10086000A80197010E947211882324F4ECA2FDA232
:100870000EA31FA3DF91CF911F910F91FF90EF90D7
:10088000DF90CF90BF90AF909F908F907F906F90B0
:100890005F904F9008959F92AF92BF92CF92DF9258
:1008A000EF92FF920F931F93CF93DF93EC01992464
:1008B00061307105A9F59924939488AD882381F559
:1008C000EC8DFD8DE080F18002811381ECA2FDA210
:1008D0000EA31FA3EA8DFB8D80819181A281B3813C
:1008E00088A799A7AAA7BBA7ACA8BDA8CEA8DFA830
:1008F000C801B701A60195010E94C112181664F043
:10090000A8A8B9A8CAA8DBA8C801B701A601950183
:100910000E947211882324F4ACA2BDA2CEA2DFA251
:1009200098AEDF91CF911F910F91FF90EF90DF90E4
:10093000CF90BF90AF909F900895FC0180AD90E064
:1009400008952F923F924F925F926F927F928F9273
:100950009F92AF92BF92CF92DF92EF92FF920F934E
:100960001F93DF93CF9300D000D000D0CDB7DEB778
:100970009E838D83DC01D8968C91882309F4E5C091
:100980000E94E90A69837A838B839C83ED81FE81CF
:1009900080A191A1A2A1B3A129813A814B815C815F
:1009A000281B390B4A0B5B0B84A595A5A6A5B7A5FB
:1009B000281739074A075B0708F4C7C0028CF38D74
:1009C000E02D2080318042805380AD81BE815E96D3
:1009D000ED91FC915F976081718182819381A20189
:1009E00091010E940D113B014C01ED81FE81208996
:1009F0003189428953890E94C512AD81BE81949686
:100A00002D913D914D915C9197970E940E117B0124
:100A10008C01ED81FE8164A375A386A397A3A4A88E
:100A2000B5A8C6A8D7A8A60195010E94C11218169C
:100A300074F0ED81FE81A0A8B1A8C2A8D3A8C80116
:100A4000B701A60195010E947211882344F4AD817B
:100A5000BE819496AD92BD92CD92DC929797C401DF
:100A6000B301ED81FE8124853585468557850E9439
:100A7000C512AD81BE8194962D913D914D915C91B1
:100A800097970E940E117B018C01C201B101ED818B
:100A9000FE8120A531A542A553A50E940D11AD816F
:100AA000BE8154962D913D914D915C9157970E9436
:100AB000C5129B01AC01C801B7010E940D117B0159
:100AC0008C01ED81FE81D4A8C5A8B6A8A7A82D2DBC
:100AD0003C2D4B2D5A2D0E94C1121816BCF0AD8131
:100AE000BE81D096DC90D097D196CC90D197D296FB
:100AF000BC90D297D396AC90C801B7012D2D3C2D58
:100B00004B2D5A2D0E947211882334F48D2D9C2D6B
:100B1000AB2DBA2D7C018D01AD81BE815C96ED912E
:100B2000FC915D97E082F18202831383FD0120A690
:100B300031A642A653A689819A81AB81BC8180A34C
:100B400091A3A2A3B3A381E001C080E026960FB6D3
:100B5000F894DEBF0FBECDBFCF91DF911F910F91F3
:100B6000FF90EF90DF90CF90BF90AF909F908F90CD
:100B70007F906F905F904F903F902F9008954F928D
:100B80005F926F927F928F929F92AF92BF92CF921D
:100B9000DF92EF92FF920F931F93DF93CF93CDB726
:100BA000DEB74C0127013801EF88F88CFC01558F26
:100BB000448F738F628F378F268F10AE40E050E0E6
:100BC00060E070E000E010E02FE733E40E94CF0324
:100BD00084E690E0A0E0B0E0F40184A795A7A6A782
:100BE000B7A780AD882391F1808D918DE816F90625
:100BF00069F160E070E080E090E02485358546850D
:100C000057850E940D11F401648775878687978741
:100C100060E070E080E090E020893189428953896A
:100C20000E940D11F401608B718B828B938B60E0BD
:100C300070E080E090E024893589468957890E94D8
:100C40000D11F401648B758B868B978BF401F18EFB
:100C5000E08EC401B301A20196018501CB88DC8836
:100C6000ED88FE880E9403030E94E90AF40124A58E
:100C700035A546A557A5621B730B840B950B60A386
:100C800071A382A393A3CF91DF911F910F91FF9046
:100C9000EF90DF90CF90BF90AF909F908F907F901C
:100CA0006F905F904F900895FC01108A0895AF9265
:100CB000BF92CF92DF92EF92FF920F931F93CF9349
:100CC000DF938C01DC011496ED91FC911597015195
:100CD0001E4FE80188819981AA81BB810F5E114076
:100CE00080839183A283B38383EFA82E81E0B82E03
:100CF000A00EB11E05511E4FF801208131814281A5
:100D000053810B5E1140CA01B9010E940E1120E00F
:100D100030E040E850E40E94C5126B017C01F8010C
:100D2000ED51FE4FD801A951BE4F60817181828182
:100D300093812D913D914D915C910E940D1120ED7B
:100D40003FE049E450E40E94C5129B01AC01C70199
:100D5000B6010E947611D5016D937D938D939C937E
:100D60001397E80169897A898B899C892D893E8945
:100D70004F89588D621B730B840B950B0E940F12C9
:100D800020E030E04AE754E40E94761109501E4FFB
:100D9000F8016083718382839383DF91CF911F91E8
:100DA0000F91FF90EF90DF90CF90BF90AF9008959C
:100DB000FC0186859785ED50FE4F019749F46081CF
:100DC0007181828193812AE939E949E15FE308C0B1
:100DD00060817181828193812DEC3CEC4CEC5EE36F
:100DE0000E94C512E62F2E2F372F482F592FB901F9
:100DF000CA010895CF93DF93FC0186859785DF01B3
:100E0000AD50BE4FEF01C950DE4F019749F46D91CF
:100E10007D918D919C912AE939E949E95FE308C008
:100E20006D917D918D919C912FE832EC45EF5EE3C1
:100E30000E94C512288139814A815B810E94761106
:100E4000E62F2E2F372F482F592FB901CA01DF91D6
:100E5000CF910895CF93DF93EC018E859F85019705
:100E600029F0E0E070E080E060E014C0CD50DE4F9B
:100E700069917991899199912AE939E949E95DE383
:100E80000E94C512288139814A815B810E94C51266
:100E9000E62F692F2E2F372F482F562FB901CA0161
:100EA000DF91CF910895FC01E551FE4F40835183BE
:100EB000628373830895FC01428753876487758733
:100EC0000895FC01161617061CF061E070E003C0DF
:100ED000693171054CF4660F771F660F771F70A399
:100EE000678F8AEF90E00EC084E690E090A3878F32
:100EF000CB0133E0880F991F3A95E1F7660F771F12
:100F0000860F971F968F858F08952F923F924F924D
:100F10005F926F927F928F929F92AF92BF92CF9289
:100F2000DF92EF92FF920F931F93DF93CF9300D046
:100F300000D0CDB7DEB71C0122EE31E0220E331E09
:100F4000D1011C92EDEFFFEF2E0E3F1ED1018D91CE
:100F50009C91E1E2FEEF2E0E3F1E0A9764F0D10154
:100F600050968C915097882331F050961C92C10175
:100F70000E94570693C20E94E90A69837A838B8391
:100F80009C83F101818D928DA38DB48D29813A814D
:100F90004B815C81281B390B4A0B5B0B858D968D31
:100FA000AA2797FDA095BA2F281739074A075B078C
:100FB00008F47DC289819A81AB81BC81818F928F37
:100FC000A38FB48F0280F381E02DC080D180E280B6
:100FD000F38022EE31E0220E331E91E0D1019C938A
:100FE000EEE1FEEF2E0E3F1ED10150968C915097F0
:100FF00081010D511E4F882309F051C092961C9219
:101000001E929197EFEDF1E02E0E3F1ED1011D9241
:101010001D921D011C92F801C082D182E282F382EE
:1010200026E030E0220E331ED101CD92DD92ED920A
:10103000FC921397E9E1FEEF2E0E3F1ED1011696AA
:10104000CD92DD92ED92FC92199750969C93509719
:1010500014960D911C911597F80160817181828120
:1010600093812FEE31E0220E331ED1016D937D93DB
:101070008D939C931397E1E1FEEF2E0E3F1EF1013D
:10108000E551FE4F20813181428153810E940E1132
:10109000D8016D937D938D939C93139725C0C701C1
:1010A000B601F80120813181428153810E94C11231
:1010B000181634F4D801CD92DD92ED92FC9213977C
:1010C000810109511E4FC701B601F801208131810C
:1010D000428153810E947211882334F4D801CD9249
:1010E000DD92ED92FC921397F10146805780608467
:1010F000718482849384A484B584C301B201A50160
:1011000094010E940E119B01AC01C701B6010E941F
:10111000C1121816ACF4D10114960D911C911597BB
:10112000F101E151FE4FA551BE4F60817181828175
:1011300093812D913D914D915C910E940D1122C0A2
:10114000C301B201A50194010E940D119B01AC01E4
:10115000C701B6010E9472118823CCF4D101149604
:101160000D911C911597F101E151FE4FA551BE4F14
:1011700060817181828193812D913D914D915C912E
:101180000E940E11F801608371838283938381E052
:10119000D1018C9311968C9311975F96AD90BC9072
:1011A00090970894A108B1088501000F111F000F46
:1011B000111F0D5D1F4F020D131D5524539434C094
:1011C000F8016080718082809380D1018C918823A6
:1011D00059F01C92C701B601A40193010E94C112EB
:1011E000181614F4F1015082D10111968C911197C7
:1011F000882361F011961C92C701B601A4019301E6
:101200000E947211882314F4F1015182F801808147
:101210009181A281B38184839583A683B783089447
:10122000A108B10804501040B7FECACFD10193966F
:10123000CD92DD92ED92FC9296975F968D919C9166
:10124000909709970CF433C18C91882309F442C01C
:1012500091968D919C919297892B31F481E090E049
:1012600092969C938E939197F10181A192A18F5FA9
:101270009F4FD9F481E090E0D10192969C938E9398
:101280009197E1EEF1E02E0E3F1E81E0D1018C93AB
:10129000EFE1FEEF2E0E3F1EF10181899289A389B5
:1012A000B489858B968BA78BB08F89819A81AB810E
:1012B000BC81F101818B928BA38BB48B2FED31E03C
:1012C000220E331ED101ED91FC9121E23EEF220E60
:1012D000331E3CC0D10111968C911197882309F4DB
:1012E00041C091968D919C919297892B31F48FEF0B
:1012F0009FEF92969C938E939197F10181A192A179
:101300000197B1F48FEF9FEF92A381A3E152FE4FBB
:101310008081918101969183808321EE31E0220EBC
:10132000331E81E0D1018C93EFE1FEEF2E0E3F1EC4
:101330002FED31E0220E331ED101ED91FC9121E21F
:101340003EEF220E331EEA30F10564F4EE0FFF1F6C
:10135000EE0FFF1FE20DF31DE954FE4FC082D18254
:10136000E282F38281EE91E0280E391ED1018C9148
:10137000EFE1FEEF2E0E3F1E882309F492C02FED01
:1013800031E0220E331ED1010D911C91E1E2FEEFFE
:101390002E0E3F1E033011050CF483C0F801329766
:1013A000EE0FFF1FEE0FFF1FE20DF31DE954FE4F7E
:1013B0006080718082809380F8013197EE0FFF1F6B
:1013C000EE0FFF1FE20DF31DE954FE4F60817181A6
:1013D00082819381A40193010E940D115B016C0134
:1013E00020E030E040E050E00E94C112181624F0E6
:1013F000D7FAD094D7F8D09403501040000F111FA3
:10140000000F111F020D131D09541E4FC401B3011B
:10141000D8012D913D914D915C910E940D117B0160
:101420008C0120E030E040E050E00E94C11218162C
:1014300024F017FB109517F91095C601B501A80106
:1014400097010E940E1120E030E040E05FE30E942F
:10145000C5127B018C01F101ED51FE4FD101A95163
:10146000BE4F60817181828193812D913D914D911B
:101470005C910E940D112DEC3CEC4CE45DE30E946C
:10148000C5129B01AC01C801B7010E9472118823EB
:1014900044F4C1010E945706F101108A21E030E0B6
:1014A00008C021EE31E0220E331ED1011C9220E053
:1014B00030E0C9010F900F900F900F90CF91DF9106
:1014C0001F910F91FF90EF90DF90CF90BF90AF9062
:1014D0009F908F907F906F905F904F903F902F9054
:1014E00008950F931F938C01FC01738362835583CE
:1014F00044831786168680E090E0A0E0BFE38287F1
:101500009387A487B587108A05511E4F80E090E02D
:10151000A0EFB1E4F80180839183A283B3830B5ED3
:10152000114088E290E0F80190A3878F8AEF90E065
:10153000968F858F0E94E90AF801618F728F838FE1
:10154000948F1F910F9108951F920F920FB60F92D3
:1015500011242F933F938F939F93AF93BF938091C9
:10156000A0049091A104A091A204B091A304309191
:10157000A404232F2A592D3720F02D570196A11DA1
:10158000B11D2093A4048093A0049093A104A09380
:10159000A204B093A30480919C0490919D04A09117
:1015A0009E04B0919F040196A11DB11D80939C04DF
:1015B00090939D04A0939E04B0939F04BF91AF911C
:1015C0009F918F913F912F910F900FBE0F901F9081
:1015D00018958FB7F8942091A0043091A104409100
:1015E000A2045091A3048FBFB901CA010895EF92DC
:1015F000FF920F931F937B018C019FB7F89420916A
:101600009C0430919D0440919E0450919F0486B5A6
:10161000A89B06C08F3F21F02F5F3F4F4F4F5F4F7A
:101620009FBF542F432F322F2227280F311D411DDA
:10163000511DDA01C901880F991FAA1FBB1F820F14
:10164000931FA41FB51FBC0132C09FB7F89420910F
:101650009C0430919D0440919E0450919F0486B556
:10166000A89B06C08F3F21F02F5F3F4F4F4F5F4F2A
:101670009FBF542F432F322F2227280F311D411D8A
:10168000511DDA01C901880F991FAA1FBB1F820FC4
:10169000931FA41FB51F861B970B885E9340A8F26B
:1016A0000894E108F1080109110968517C4FE1141F
:1016B000F1040105110549F61F910F91FF90EF907C
:1016C0000895789484B5826084BD84B5816084BDBA
:1016D00085B5826085BD85B5816085BDEEE6F0E0AB
:1016E000808181608083E1E8F0E010828081826007
:1016F0008083808181608083E0E8F0E08081816088
:101700008083E1EBF0E0808184608083E0EBF0E0B7
:10171000808181608083EAE7F0E08081846080835B
:101720008081826080838081816080838081806805
:1017300080831092C1000895982F8E3008F09E503B
:101740009770809151028295880F880F807C892B39
:1017500080937C0080917A00806480937A008091ED
:101760007A0086FDFCCF2091780040917900942F7B
:1017700080E030E0282B392BC90108951F93CF93C7
:10178000DF93182FEB0161E00E941E0C209709F4F3
:101790004AC0CF3FD10509F449C0E12FF0E0E2553E
:1017A000FF4F84918330C1F0843028F4813051F0B0
:1017B0008230B1F50CC0863019F1873049F18430A0
:1017C00079F514C084B5806884BDC7BD33C084B5C5
:1017D000806284BDC8BD2EC08091800080688093E7
:1017E0008000D0938900C093880024C0809180003D
:1017F000806280938000D0938B00C0938A001AC0CF
:101800008091B00080688093B000C093B30012C094
:101810008091B00080628093B000C093B4000AC091
:10182000C038D1051CF4812F60E002C0812F61E037
:101830000E945D0CDF91CF911F910895CF93DF93AC
:10184000482F50E0CA0186569F4FFC0134914A57F9
:101850005F4FFA018491882369F190E0880F991F06
:10186000FC01E859FF4FA591B491FC01EE58FF4FE0
:10187000C591D491662351F42FB7F8948C91932F8E
:10188000909589238C93888189230BC0623061F401
:101890002FB7F8948C91932F909589238C938881FE
:1018A000832B88832FBF06C09FB7F8948C91832B1E
:1018B0008C939FBFDF91CF910895482F50E0CA01CC
:1018C00082559F4FFC012491CA0186569F4FFC010F
:1018D00094914A575F4FFA013491332309F440C081
:1018E000222351F1233071F0243028F42130A1F06B
:1018F000223011F514C02630B1F02730C1F0243069
:10190000D9F404C0809180008F7703C0809180005B
:101910008F7D8093800010C084B58F7702C084B51E
:101920008F7D84BD09C08091B0008F7703C0809106
:10193000B0008F7D8093B000E32FF0E0EE0FFF1F2B
:10194000EE58FF4FA591B4912FB7F894662321F478
:101950008C919095892302C08C91892B8C932FBFF9
:10196000089508951F920F920FB60F9211242F938E
:101970003F934F938F939F93EF93FF938091C0007A
:1019800082FD1DC04091C6002091E5043091E6041F
:101990002F5F3F4F2F7330708091E7049091E804E0
:1019A0002817390771F0E091E504F091E604EB5552
:1019B000FB4F40833093E6042093E50402C08091FE
:1019C000C600FF91EF919F918F914F913F912F9181
:1019D0000F900FBE0F901F901895E0913905F09170
:1019E0003A05E05CFF4F8191919120813181805CCB
:1019F0009F4F821B930B60E470E00E944B13892B76
:101A000011F00E94B10C08951F920F920FB60F9221
:101A100011242F933F938F939F93EF93FF932091E4
:101A2000290530912A0580912B0590912C052817C6
:101A3000390731F48091C1008F7D8093C10014C0BB
:101A4000E0912B05F0912C05E751FB4F208180910F
:101A50002B0590912C0501968F73907090932C0517
:101A600080932B052093C600FF91EF919F918F915A
:101A70003F912F910F900FBE0F901F901895AF922E
:101A8000BF92DF92EF92FF920F931F93CF93DF935A
:101A9000EC017A018B01DD24D39491E0A92EB12CC5
:101AA000EC89FD89DD2069F0C50108A002C0880F1E
:101AB000991F0A94E2F7808360E47BE48CE490E071
:101AC00005C0108260EA75E286E290E0A801970105
:101AD0000E945E132150304040405040569547953B
:101AE0003795279580E12030380720F0DD2011F070
:101AF000DD24D6CFE889F9893083EA89FB89208300
:101B000019A2EE89FF89408121E030E0C9010C8CE7
:101B100002C0880F991F0A94E2F7482B4083EE8990
:101B2000FF894081C9010D8C02C0880F991F0A945A
:101B3000E2F7482B4083EE89FF894081C9010E8C72
:101B400002C0880F991F0A94E2F7482B4083EE8960
:101B5000FF8980810F8C02C0220F331F0A94E2F7A5
:101B6000209528232083DF91CF911F910F91FF9023
:101B7000EF90DF90BF90AF900895DC011C96ED913F
:101B8000FC911D97E05CFF4F819191912081318103
:101B9000805C9F4F821B930B60E470E00E944B13AC
:101BA0000895DC011C96ED91FC911D97E05CFF4FC0
:101BB00020813181E054F040DF01AE5BBF4F8D9159
:101BC0009C9111972817390719F42FEF3FEF07C0A1
:101BD0008D919C91E80FF91F8081282F30E0C90179
:101BE0000895DC011C96ED91FC911D97E05CFF4F80
:101BF00020813181E054F040DF01AE5BBF4F8D9119
:101C00009C9111972817390719F42FEF3FEF10C057
:101C10008D919C911197E80FF91F20818D919C91D6
:101C2000119701968F73907011969C938E9330E06C
:101C3000C9010895DC0191968C919197882339F020
:101C40005496ED91FC915597808186FFF9CF91963E
:101C50001C920895CF93DF93EC01EE85FF85E05C45
:101C6000FF4F20813181E054F0402F5F3F4F2F73B1
:101C70003070DF01AE5BBF4F8D919C91119728179B
:101C80003907D1F3E05CFF4F80819181E054F0404F
:101C9000E80FF91F6083EE85FF85E05CFF4F31831D
:101CA0002083EE89FF89208181E090E00F8C02C0C3
:101CB000880F991F0A94E2F7282B208381E089A3DB
:101CC000EC89FD8980818064808381E090E0DF91F0
:101CD000CF9108951092300510922F0588EE93E071
:101CE000A0E0B0E08093310590933205A0933305D6
:101CF000B093340586E592E090932E0580932D05F0
:101D000085EA94E090933A058093390589EE94E052
:101D100090933C0580933B0585EC90E090933E05C5
:101D200080933D0584EC90E09093400580933F05BF
:101D300080EC90E0909342058093410581EC90E027
:101D4000909344058093430582EC90E09093460580
:101D50008093450586EC90E0909348058093470575
:101D600084E08093490583E080934A0587E080936F
:101D70004B0585E080934C0581E080934D050895E7
:101D80000895CF93DF930E94610B0E94C00E0E94C2
:101D9000A401CDEEDCE00E940D022097E1F30E9449
:101DA000ED0CF9CFCF92DF92EF92FF920F931F933A
:101DB000CF93DF937C016B018A01C0E0D0E00FC0BC
:101DC000D6016D916D01D701ED91FC910190F081EB
:101DD000E02DC7010995C80FD91F0150104001150A
:101DE000110571F7CE01DF91CF911F910F91FF90F7
:101DF000EF90DF90CF900895EF92FF920F931F9393
:101E00008C01DC01ED91FC910190F081E02D6DE001
:101E100009957C01D801ED91FC910190F081E02DB4
:101E2000C8016AE009959C012E0D3F1DC9011F9153
:101E30000F91FF90EF900895CF93DF93EC01611520
:101E4000710519F420E030E00FC0DB010D90002097
:101E5000E9F71197A61BB70BE881F9810280F3819E
:101E6000E02DAD0109959C01C901DF91CF91089545
:101E70004F925F927F928F929F92AF92BF92CF923A
:101E8000DF92EF92FF920F931F93DF93CF93CDB723
:101E9000DEB7A1970FB6F894DEBF0FBECDBF2C0101
:101EA000742ECB01223008F42AE019A231E2C32EAD
:101EB000D12CCC0EDD1E822E9924AA24BB24672DA2
:101EC000752FA50194010E945E1379018A01C80152
:101ED000B701A50194010E942C13472D461B0894BD
:101EE000C108D1084A3014F4405D01C0495CF601D4
:101EF0004083E114F1040105110521F07E2C5F2DD2
:101F0000C801DDCFC201B6010E941C0FA1960FB619
:101F1000F894DEBF0FBECDBFCF91DF911F910F911F
:101F2000FF90EF90DF90CF90BF90AF909F908F90F9
:101F30007F905F904F900895DC012115310541F4A9
:101F4000ED91FC910190F081E02D642F09950895A9
:101F50000E94380F0895EF92FF920F931F939A01FA
:101F6000E62EFF2400E010E0B801A7010E949C0FBC
:101F70001F910F91FF90EF900895CF92DF92EF9213
:101F8000FF920F931F93CF93DF93EC016A017B01C4
:101F90002115310541F4E881F9810190F081E02DAE
:101FA000642F09951FC02A303105D1F477FF17C07F
:101FB000E881F9810190F081E02D6DE209958C01B5
:101FC00044275527BA014C195D096E097F09CE01D6
:101FD0002AE00E94380F9801280F391F04C02AE018
:101FE0000E94380F9C01C901DF91CF911F910F9181
:101FF000FF90EF90DF90CF900895EF92FF920F93B4
:102000001F937B019A010027F7FC0095102FB80160
:10201000A7010E94BD0F1F910F91FF90EF900895AF
:102020000E941C0F08957F928F929F92AF92BF9251
:10203000CF92DF92EF92FF920F931F93CF93DF9394
:102040004C017A018B01722ECB01BA01A8019701D4
:102050000E942813882321F0C40163E571E021C0A8
:10206000C0E0D0E057016801E894D7F8C601B50197
:102070002FEF3FEF4FE75FE70E942813882351F4CB
:10208000C601B5012FEF3FEF4FE75FE70E947211E6
:10209000181614F0C1E0D0E0219739F0C40167E5CB
:1020A00071E00E941C0FEC0193C0C801B7012FEF33
:1020B0003FEF4FE75FE40E94C112181654F0C801C9
:1020C000B7012FEF3FEF4FE75FEC0E9472118823BB
:1020D00024F4C4016BE571E0E4CFC801B70120E04E
:1020E00030E040E050E00E94721187FD03C0C0E084
:1020F000D0E00EC0D401ED91FC910190F081E02D73
:10210000C4016DE20995EC0117FB109517F91095C4
:1021100020E030E040E05FE3DD240BC0CA01B901FC
:1021200020E030E040E251E40E9476119B01AC01D6
:10213000D394D71498F3C801B7010E940E115B0124
:102140006C010E94E3117B018C01C401B801A7015D
:102150002AE030E00E949C0FC80FD91F772039F089
:10216000C4016FE571E00E941C0FC80FD91FC801A0
:10217000B7010E940F129B01AC01C601B5010E947C
:102180000D1124C020E030E040E251E40E94C5126D
:102190007B018C010E94DE115B016C01CC24B7FC39
:1021A000C094DC2CC401B601A5012AE030E00E94F5
:1021B000BD0FC80FD91FC601B5010E9411129B01A6
:1021C000AC01C801B7010E940D117A947720D1F6B5
:1021D000CE01DF91CF911F910F91FF90EF90DF9093
:1021E000CF90BF90AF909F908F907F9008950E9466
:1021F00013100895EF92FF920F931F937C010E949A
:1022000013108C01C7010E94FC0E080F191FC80192
:102210001F910F91FF90EF9008955058BB27AA2768
:102220000ED075C166D130F06BD120F031F49F3FF4
:1022300011F41EF45BC10EF4E095E7FB51C1E92FE8
:1022400077D180F3BA17620773078407950718F0F0
:1022500071F49EF58FC10EF4E0950B2EBA2FA02DD0
:102260000B01B90190010C01CA01A0011124FF2743
:10227000591B99F0593F50F4503E68F11A16F0403E
:10228000A22F232F342F4427585FF3CF469537953D
:102290002795A795F0405395C9F77EF41F16BA0B02
:1022A000620B730B840BBAF09150A1F0FF0FBB1FB0
:1022B000661F771F881FC2F70EC0BA0F621F731FF9
:1022C000841F48F4879577956795B795F7959E3F56
:1022D00008F0B3CF9395880F08F09927EE0F9795E4
:1022E00087950895D9D008F481E008950CD00FC1E6
:1022F00007D140F0FED030F021F45F3F19F0F0C07C
:10230000511139C1F3C014D198F39923C9F355235E
:10231000B1F3951B550BBB27AA27621773078407D8
:1023200038F09F5F5F4F220F331F441FAA1FA9F38E
:1023300033D00E2E3AF0E0E830D091505040E69580
:10234000001CCAF729D0FE2F27D0660F771F881FE1
:10235000BB1F261737074807AB07B0E809F0BB0BD0
:10236000802DBF01FF2793585F4F2AF09E3F5105F4
:1023700068F0B6C000C15F3FECF3983EDCF3869591
:1023800077956795B795F7959F5FC9F7880F911D6A
:102390009695879597F90895E1E0660F771F881F56
:1023A000BB1F621773078407BA0720F0621B730B09
:1023B000840BBA0BEE1F88F7E095089504D068945B
:1023C000B111D9C00895BCD088F09F5790F0B92FB3
:1023D0009927B751A0F0D1F0660F771F881F991F7A
:1023E0001AF0BA95C9F712C0B13081F0C3D0B1E08C
:1023F0000895C0C0672F782F8827B85F39F0B93F9C
:10240000CCF3869577956795B395D9F73EF490957B
:102410008095709561957F4F8F4F9F4F0895E894F9
:1024200009C097FB3EF490958095709561957F4F1C
:102430008F4F9F4F9923A9F0F92F96E9BB279395CA
:10244000F695879577956795B795F111F8CFFAF4DA
:10245000BB0F11F460FF1BC06F5F7F4F8F4F9F4F0B
:1024600016C0882311F096E911C0772321F09EE869
:10247000872F762F05C0662371F096E8862F70E0CF
:1024800060E02AF09A95660F771F881FDAF7880FA9
:102490009695879597F90895990F0008550FAA0BFF
:1024A000E0E8FEEF16161706E807F907C0F0121667
:1024B0001306E407F50798F0621B730B840B950B6A
:1024C00039F40A2661F0232B242B252B21F40895BF
:1024D0000A2609F4A140A6958FEF811D811D08955C
:1024E00097F99F6780E870E060E008959FEF80ECC7
:1024F000089500240A94161617061806090608956A
:1025000000240A9412161306140605060895092ECF
:102510000394000C11F4882352F0BB0F40F4BF2B3E
:1025200011F460FF04C06F5F7F4F8F4F9F4F08957E
:1025300057FD9058440F551F59F05F3F71F0479574
:10254000880F97FB991F61F09F3F79F08795089559
:10255000121613061406551FF2CF4695F1DF08C078
:10256000161617061806991FF1CF86957105610595
:1025700008940895E894BB2766277727CB0197F93D
:1025800008958ADF08F48FEF08950BD0C0CFB1DF34
:1025900028F0B6DF18F0952309F0A2CFA7CF1124B9
:1025A000EACFC6DFA0F3959FD1F3950F50E0551FFA
:1025B000629FF001729FBB27F00DB11D639FAA2798
:1025C000F00DB11DAA1F649F6627B00DA11D661FE7
:1025D000829F2227B00DA11D621F739FB00DA11D08
:1025E000621F839FA00D611D221F749F3327A00DC2
:1025F000611D231F849F600D211D822F762F6A2F5E
:1026000011249F5750408AF0E1F088234AF0EE0FE2
:10261000FF1FBB1F661F771F881F91505040A9F7EF
:102620009E3F510570F05CCFA6CF5F3FECF3983E24
:10263000DCF3869577956795B795F795E7959F5F56
:10264000C1F7FE2B880F911D9695879597F90895F0
:1026500023DF880B990B0895629FD001739FF001CF
:10266000829FE00DF11D649FE00DF11D929FF00D22
:10267000839FF00D749FF00D659FF00D9927729F59
:10268000B00DE11DF91F639FB00DE11DF91FBD01E4
:10269000CF011124089597FB092E07260AD077FD54
:1026A00004D02ED006D000201AF4709561957F4F8B
:1026B0000895F6F7909581959F4F0895A1E21A2EFF
:1026C000AA1BBB1BFD010DC0AA1FBB1FEE1FFF1FD6
:1026D000A217B307E407F50720F0A21BB30BE40B26
:1026E000F50B661F771F881F991F1A9469F760956D
:1026F0007095809590959B01AC01BD01CF01089527
:10270000AA1BBB1B51E107C0AA1FBB1FA617B70717
:1027100010F0A61BB70B881F991F5A95A9F7809533
:102720009095BC01CD010895EE0FFF1F0590F49127
:08273000E02D0994F894FFCF9D
:1027380054756E696E672C2072756E74696D6520AC
:102748006973200054756E696E6720646F6E652C1E
:10275800204B70203D20002C204B69203D20002C70
:10276800204B64203D2000207C2043757272656EEA
:10277800742074656D702000207C204F757470750E
:102788007420006E616E00696E66006F7666002EBA
:102798000001001F00290033003D00470051005B85
:1027A8000065006F00790083008D009700A100ABE1
:1027B80000B500BF00C900DD00F100050119012DB9
:1027C800014B0169018701A501C301EB0113023B1C
:1027D8000263028102A902C702EF0217032B033F1B
:1027E800036703710385039903AD03CB03D503DFA7
:1027F80003E903FD03AA033A01220110010201F7CC
:1028080000ED00E500DD00D700D100CC00C700C313
:1028180000BE00BB00B700B300B000AA00A500A02E
:10282800009B00960090008B00850080007B00755F
:10283800006F00690064005F005A0055004F0048AF
:1028480000450041003900370033002D0027001CE7
:1028580000170011000900E5FF020000A042000077
:10286800484200003443000000400000003F0000E0
:102878000040000048420000803F0000C8421400A9
:102888000101000000002A0ED20EBD0DF10DD10D80
:022898001A0E16
:00000001FF
