:100000000C9463000C948B000C948B000C948B006C
:100010000C948B000C948B000C948B000C948B0034
:100020000C948B000C948B000C948B000C948B0024
:100030000C948B000C948B000C948B000C948B0014
:100040000C94830A0C948B000C94910C0C94E30C8C
:100050000C948B000C948B000C948B000C948B00F4
:100060000C948B000C948B000000000024002700EF
:100070002A0000000000250028002B0000000000DE
:1000800023002600290004040404040404040202DA
:100090000202020203030303030301020408102007
:1000A0004080010204081020010204081020000012
:1000B0000007000201000003040600000000000029
:1000C0000000F400490E11241FBECFEFD8E0DEBFC0
:1000D000CDBF12E0A0E0B1E0ECEAF6E202C005908C
:1000E0000D92AA33B107D9F715E0AAE3B2E001C037
:1000F0001D92A732B107E1F710E0C6ECD0E004C0D2
:100100002297FE010E945013C23CD107C9F70E94FA
:10011000A00E0C9454130C9400000F931F93CF93D4
:10012000DF93EC018B01DB018D919C918C179D0776
:1001300024F0FA016081718151C081E090E0821B5E
:100140009109880F991FAA27BB27A81BB90BF80193
:10015000EA0FFB1F80819181C817D90714F421E0B1
:1001600004C0A40FB51F14C02F5FA22FB0E0CD01B3
:10017000880F991FF801E80FF91F608171816C17D2
:100180007D0794F3840F951FC617D70721F4DC0170
:100190006D917C9123C0FD013197EE0FFF1F0E0F73
:1001A0001F1FD8012D913C91E40FF51F0190F081A4
:1001B000E02DDC018D919C918E1B9F0BC21BD30BFC
:1001C000621B730B9C012C9FC0012D9F900D3C9FC7
:1001D000900D11240E9405136E0F7F1FCB01DF913C
:1001E000CF911F910F9108956F927F928F929F925E
:1001F000AF92BF92CF92DF92EF92FF920F931F9335
:1002000000D000D000D0E2E08E2EE2E09E2E76E01C
:10021000672E72E0772EE0900E02F0900F020091B0
:10022000100210911102A0901202B0901302C0901F
:100230001402D09015028091160290911702A0919D
:100240001802B0911902EDB7FEB781839283A383A0
:10025000B4831682158280E492E0B401A3012AE0FF
:1002600032E00E949E058DB79EB706960FB6F894B1
:100270009EBF0FBE8DBF89E792E0B401A3010E942B
:10028000500A1F910F91FF90EF90DF90CF90BF9099
:10029000AF909F908F907F906F900895882339F052
:1002A00080E492E00E947C048093010208956091B2
:1002B000010280E492E070E00E942A040895809197
:1002C00028028823B9F58091220290912302A091FF
:1002D0002402B09125028093060290930702A09316
:1002E0000802B093090240911E0250911F026091D2
:1002F00020027091210289E792E00E943A07409122
:100300001A0250911B0260911C0270911D0289E734
:1003100092E00E943207609126027091270289E7DD
:1003200092E00E94400781E00E944E0181E08093AC
:100330002802089589E792E00E943306109228026D
:1003400080E00E944E01089580E492E061E070E058
:100350000E942A0480912802882339F010922802F2
:100360000E945F0181E08093280285E095E040E8EB
:1003700055E260E070E00E941E0D0895DF92EF925A
:10038000FF920F931F93CF93DF937C01D62E109291
:100390003B0210923A0200E010E011C08D2D0E9445
:1003A0007B0BC80FD91FD0933B02C0933A0261E088
:1003B00070E080E090E00E94D60A0F5F1F4FC0916E
:1003C0003A02D0913B020E151F0544F3CE01B7014E
:1003D0000E940513CB0160933A0290933B02DF9198
:1003E000CF911F910F91FF90EF90DF90089580E1E2
:1003F00090E06EE070E00E94BE0190933D02809319
:100400003C0269E371E04DE951E022E30E948D0076
:1004100080933E0290933F020895CF92DF92EF9235
:10042000FF920F931F930E94C80A0E94F701AA2708
:1004300097FDA095BA2FBC01CD010E94CB1160930E
:10044000020270930302809304029093050280914C
:100450002802882309F487C089E792E00E94640794
:10046000882311F01092280280912802882309F035
:100470007EC089E792E00E94B70660930E027093F7
:100480000F02809310029093110289E792E00E947C
:10049000D906609312027093130280931402909312
:1004A000150289E792E00E9409076B017C016093C5
:1004B00016027093170280931802909319024091CC
:1004C0000E0250910F026091100270911102009182
:1004D000120210911302209114023091150280E44F
:1004E00092E00E94E20280E00E944E0185E095E0E9
:1004F00060E071E00E94CA0F40910E0250910F021D
:10050000609110027091110285E095E022E030E0E8
:100510000E94B11085E095E063E171E00E94CA0F8E
:1005200040911202509113026091140270911502D1
:1005300085E095E022E030E00E94B11085E095E092
:100540006BE171E00E94CA0F4091160250911702B0
:10055000609118027091190285E095E022E030E088
:100560000E94B41004C080E492E00E948004609174
:1005700006027091070280910802909109020E9480
:1005800098119B01AC018AE0B9010E949D0B85E0A6
:1005900095E063E271E00E94CA0F4091060250911B
:1005A0000702609108027091090285E095E022E05F
:1005B00030E00E94B4101F910F91FF90EF90DF90F8
:1005C000CF9008952F923F924F925F926F927F92B9
:1005D0008F929F92AF92BF92CF92DF92EF92FF9253
:1005E0000F931F93DF93CF9300D000D0CDB7DEB72A
:1005F0001C0149835A836B837C834801590126017E
:100600003701CB01BA0120E030E040E050E00E9429
:100610002C1187FD8CC0C501B40120E030E040E022
:1006200050E00E942C1187FD82C0C701B60120E076
:1006300030E040E050E00E942C1187FD78C08981B5
:100640009A81AB81BC81F10180839183A283B383C2
:10065000D10114968D929D92AD92BC921797C0864F
:10066000D186E286F38664A575A586A597A50E9426
:10067000C91120E030E04AE754E40E9430117B01C8
:100680008C0189819A81AB81BC81F1018487958736
:10069000A687B787C501B401A80197010E947F1200
:1006A0005B016C01D10150966D937D938D939C936A
:1006B0005397C301B201A80197010E9430117B0139
:1006C0008C01F101648B758B868B978B808D918D5E
:1006D000019769F560E070E080E090E029813A815F
:1006E0004B815C810E94C710D1011C966D937D9354
:1006F0008D939C931F9760E070E080E090E0A601EE
:1007000095010E94C710F101608B718B828B938BD6
:1007100060E070E080E090E0A80197010E94C710BF
:10072000D10154966D937D938D939C9357970F9021
:100730000F900F900F90CF91DF911F910F91FF902D
:10074000EF90DF90CF90BF90AF909F908F907F9071
:100750006F905F904F903F902F9008954F925F92CF
:100760006F927F928F929F92AF92BF92CF92DF92C1
:10077000EF92FF920F931F93CF93DF93EC013A0117
:100780004B0178018901CB01BA01A80197010E94B0
:100790007B1287FF4EC068AA79AA8AAA9BAAECAAF4
:1007A000FDAA0EAB1FAB88AD882309F442C04C8C68
:1007B0005D8CF201A080B180C280D380C601B501FA
:1007C000A80197010E947B12181634F4F201E0820E
:1007D000F182028313830DC0C601B501A401930108
:1007E0000E942C1188232CF4F20160827182828293
:1007F0009382ACA0BDA0CEA0DFA0ECA8FDA80EA95E
:100800001FA9C601B501A80197010E947B12181605
:1008100064F0E8A8F9A80AA91BA9C601B501A801B6
:1008200097010E942C11882324F4ECA2FDA20EA3B0
:100830001FA3DF91CF911F910F91FF90EF90DF9059
:10084000CF90BF90AF909F908F907F906F905F9070
:100850004F9008959F92AF92BF92CF92DF92EF9206
:10086000FF920F931F93CF93DF93EC019924613094
:100870007105A9F59924939488AD882381F5EC8DB1
:10088000FD8DE080F18002811381ECA2FDA20EA318
:100890001FA3EA8DFB8D80819181A281B38188A7FE
:1008A00099A7AAA7BBA7ACA8BDA8CEA8DFA8C801D6
:1008B000B701A60195010E947B12181664F0A8A842
:1008C000B9A8CAA8DBA8C801B701A60195010E9472
:1008D0002C11882324F4ACA2BDA2CEA2DFA298AE34
:1008E000DF91CF911F910F91FF90EF90DF90CF900C
:1008F000BF90AF909F900895FC0180AD90E0089567
:100900002F923F924F925F926F927F928F929F921F
:10091000AF92BF92CF92DF92EF92FF920F931F930D
:10092000DF93CF9300D000D000D0CDB7DEB79E8349
:100930008D83DC01D8968C91882309F4E5C00E9450
:10094000C80A69837A838B839C83ED81FE8180A1B1
:1009500091A1A2A1B3A129813A814B815C81281B7D
:10096000390B4A0B5B0B84A595A5A6A5B7A528173F
:1009700039074A075B0708F4C7C0028CF38DE02DE6
:100980002080318042805380AD81BE815E96ED91A2
:10099000FC915F976081718182819381A2019101B5
:1009A0000E94C7103B014C01ED81FE8120893189F5
:1009B000428953890E947F12AD81BE8194962D9108
:1009C0003D914D915C9197970E94C8107B018C01DD
:1009D000ED81FE8164A375A386A397A3A4A8B5A8FF
:1009E000C6A8D7A8A60195010E947B12181674F01C
:1009F000ED81FE81A0A8B1A8C2A8D3A8C801B70103
:100A0000A60195010E942C11882344F4AD81BE817A
:100A10009496AD92BD92CD92DC929797C401B301AA
:100A2000ED81FE8124853585468557850E947F129C
:100A3000AD81BE8194962D913D914D915C9197979A
:100A40000E94C8107B018C01C201B101ED81FE81C1
:100A500020A531A542A553A50E94C710AD81BE8136
:100A600054962D913D914D915C9157970E947F1224
:100A70009B01AC01C801B7010E94C7107B018C012A
:100A8000ED81FE81D4A8C5A8B6A8A7A82D2D3C2D20
:100A90004B2D5A2D0E947B121816BCF0AD81BE81E1
:100AA000D096DC90D097D196CC90D197D296BC902E
:100AB000D297D396AC90C801B7012D2D3C2D4B2D6C
:100AC0005A2D0E942C11882334F48D2D9C2DAB2D92
:100AD000BA2D7C018D01AD81BE815C96ED91FC91BA
:100AE0005D97E082F18202831383FD0120A631A687
:100AF00042A653A689819A81AB81BC8180A391A330
:100B0000A2A3B3A381E001C080E026960FB6F894BB
:100B1000DEBF0FBECDBFCF91DF911F910F91FF9030
:100B2000EF90DF90CF90BF90AF909F908F907F908D
:100B30006F905F904F903F902F9008954F925F92EB
:100B40006F927F928F929F92AF92BF92CF92DF92DD
:100B5000EF92FF920F931F93DF93CF93CDB7DEB742
:100B60004C0127013801EF88F88CFC01558F448F28
:100B7000738F628F378F268F10AE40E050E060E0B9
:100B800070E000E010E02FE733E40E94AE0384E65B
:100B900090E0A0E0B0E0F40184A795A7A6A7B7A7CE
:100BA00080AD882391F1808D918DE816F90669F169
:100BB00060E070E080E090E02485358546855785CB
:100BC0000E94C710F401648775878687978760E065
:100BD00070E080E090E020893189428953890E9449
:100BE000C710F401608B718B828B938B60E070E097
:100BF00080E090E024893589468957890E94C71092
:100C0000F401648B758B868B978BF401F18EE08EEB
:100C1000C401B301A20196018501CB88DC88ED886F
:100C2000FE880E94E2020E94C80AF40124A535A5AC
:100C300046A557A5621B730B840B950B60A371A38C
:100C400082A393A3CF91DF911F910F91FF90EF901B
:100C5000DF90CF90BF90AF909F908F907F906F90DC
:100C60005F904F900895FC01108A0895AF92BF9253
:100C7000CF92DF92EF92FF920F931F93CF93DF9368
:100C80008C01DC011496ED91FC91159701511E4FDA
:100C9000E80188819981AA81BB810F5E1140808320
:100CA0009183A283B38383EFA82E81E0B82EA00E98
:100CB000B11E05511E4FF8012081318142815381BF
:100CC0000B5E1140CA01B9010E94C81020E030E05B
:100CD00040E850E40E947F126B017C01F801ED5165
:100CE000FE4FD801A951BE4F6081718182819381ED
:100CF0002D913D914D915C910E94C71020ED3FE0F8
:100D000049E450E40E947F129B01AC01C701B60187
:100D10000E943011D5016D937D938D939C93139711
:100D2000E80169897A898B899C892D893E894F8957
:100D3000588D621B730B840B950B0E94C91120E028
:100D400030E04AE754E40E94301109501E4FF80188
:100D50006083718382839383DF91CF911F910F9181
:100D6000FF90EF90DF90CF90BF90AF900895FC017F
:100D700086859785ED50FE4F019749F4608171811A
:100D8000828193812AE939E949E15FE308C0608102
:100D90007181828193812DEC3CEC4CEC5EE30E94EE
:100DA0007F12E62F2E2F372F482F592FB901CA0156
:100DB0000895CF93DF93FC0186859785DF01AD50C1
:100DC000BE4FEF01C950DE4F019749F46D917D91FF
:100DD0008D919C912AE939E949E95FE308C06D9159
:100DE0007D918D919C912FE832EC45EF5EE30E945E
:100DF0007F12288139814A815B810E943011E62F60
:100E00002E2F372F482F592FB901CA01DF91CF91CB
:100E10000895CF93DF93EC018E859F85019729F08C
:100E2000E0E070E080E060E014C0CD50DE4F6991FA
:100E30007991899199912AE939E949E95DE30E941B
:100E40007F12288139814A815B810E947F12E62FBF
:100E5000692F2E2F372F482F562FB901CA01DF9146
:100E6000CF910895FC01E551FE4F40835183628389
:100E700073830895FC0142875387648775870895BB
:100E8000FC01161617061CF061E070E003C0693122
:100E900071054CF4660F771F660F771F70A3678F7D
:100EA0008AEF90E00EC084E690E090A3878FCB019C
:100EB00033E0880F991F3A95E1F7660F771F860F89
:100EC000971F968F858F08952F923F924F925F9232
:100ED0006F927F928F929F92AF92BF92CF92DF924A
:100EE000EF92FF920F931F93DF93CF9300D000D028
:100EF000CDB7DEB71C0122EE31E0220E331ED10148
:100F00001C92EDEFFFEF2E0E3F1ED1018D919C91B3
:100F1000E1E2FEEF2E0E3F1E0A9764F0D1015096DB
:100F20008C915097882331F050961C92C1010E94F9
:100F3000360693C20E94C80A69837A838B839C8396
:100F4000F101818D928DA38DB48D29813A814B81E0
:100F50005C81281B390B4A0B5B0B858D968DAA276C
:100F600097FDA095BA2F281739074A075B0708F4A1
:100F70007DC289819A81AB81BC81818F928FA38F41
:100F8000B48F0280F381E02DC080D180E280F380B5
:100F900022EE31E0220E331E91E0D1019C93EEE16E
:100FA000FEEF2E0E3F1ED10150968C91509781017D
:100FB0000D511E4F882309F051C092961C921E922B
:100FC0009197EFEDF1E02E0E3F1ED1011D921D9283
:100FD0001D011C92F801C082D182E282F38226E0D8
:100FE00030E0220E331ED101CD92DD92ED92FC92C3
:100FF0001397E9E1FEEF2E0E3F1ED1011696CD921A
:10100000DD92ED92FC92199750969C93509714960E
:101010000D911C911597F8016081718182819381F6
:101020002FEE31E0220E331ED1016D937D938D930F
:101030009C931397E1E1FEEF2E0E3F1EF101E55167
:10104000FE4F20813181428153810E94C810D80116
:101050006D937D938D939C93139725C0C701B60123
:10106000F80120813181428153810E947B12181640
:1010700034F4D801CD92DD92ED92FC921397810168
:1010800009511E4FC701B601F8012081318142810B
:1010900053810E942C11882334F4D801CD92DD9223
:1010A000ED92FC921397F101468057806084718421
:1010B00082849384A484B584C301B201A501940100
:1010C0000E94C8109B01AC01C701B6010E947B12AF
:1010D0001816ACF4D10114960D911C911597F101DD
:1010E000E151FE4FA551BE4F608171818281938194
:1010F0002D913D914D915C910E94C71022C0C3017A
:10110000B201A50194010E94C7109B01AC01C70167
:10111000B6010E942C118823CCF4D10114960D91B4
:101120001C911597F101E151FE4FA551BE4F608111
:101130007181828193812D913D914D915C910E94AD
:10114000C810F801608371838283938381E0D101A9
:101150008C9311968C9311975F96AD90BC9090975D
:101160000894A108B1088501000F111F000F111F7D
:101170000D5D1F4F020D131D5524539434C0F8010B
:101180006080718082809380D1018C91882359F096
:101190001C92C701B601A40193010E947B1218168C
:1011A00014F4F1015082D10111968C91119788238A
:1011B00061F011961C92C701B601A40193010E942F
:1011C0002C11882314F4F1015182F801808191815E
:1011D000A281B38184839583A683B7830894A108F1
:1011E000B10804501040B7FECACFD1019396CD92FA
:1011F000DD92ED92FC9296975F968D919C919097DF
:1012000009970CF433C18C91882309F442C091965C
:101210008D919C919297892B31F481E090E0929688
:101220009C938E939197F10181A192A18F5F9F4F23
:10123000D9F481E090E0D10192969C938E9391979E
:10124000E1EEF1E02E0E3F1E81E0D1018C93EFE143
:10125000FEEF2E0E3F1EF10181899289A389B48988
:10126000858B968BA78BB08F89819A81AB81BC814E
:10127000F101818B928BA38BB48B2FED31E0220E89
:10128000331ED101ED91FC9121E23EEF220E331E7F
:101290003CC0D10111968C911197882309F441C06B
:1012A00091968D919C919297892B31F48FEF9FEFBE
:1012B00092969C938E939197F10181A192A10197AF
:1012C000B1F48FEF9FEF92A381A3E152FE4F808193
:1012D000918101969183808321EE31E0220E331EAD
:1012E00081E0D1018C93EFE1FEEF2E0E3F1E2FED3A
:1012F00031E0220E331ED101ED91FC9121E23EEF4F
:10130000220E331EEA30F10564F4EE0FFF1FEE0FDC
:10131000FF1FE20DF31DE954FE4FC082D182E2822D
:10132000F38281EE91E0280E391ED1018C91EFE11C
:10133000FEEF2E0E3F1E882309F492C02FED31E000
:10134000220E331ED1010D911C91E1E2FEEF2E0E13
:101350003F1E033011050CF483C0F8013297EE0FE5
:10136000FF1FEE0FFF1FE20DF31DE954FE4F6080DB
:10137000718082809380F8013197EE0FFF1FEE0F8E
:10138000FF1FE20DF31DE954FE4F608171818281E0
:101390009381A40193010E94C7105B016C0120E0BE
:1013A00030E040E050E00E947B12181624F0D7FA9B
:1013B000D094D7F8D09403501040000F111F000FA5
:1013C000111F020D131D09541E4FC401B301D80192
:1013D0002D913D914D915C910E94C7107B018C0134
:1013E00020E030E040E050E00E947B12181624F02C
:1013F00017FB109517F91095C601B501A8019701C3
:101400000E94C81020E030E040E05FE30E947F12BD
:101410007B018C01F101ED51FE4FD101A951BE4F6D
:1014200060817181828193812D913D914D915C917B
:101430000E94C7102DEC3CEC4CE45DE30E947F124F
:101440009B01AC01C801B7010E942C11882344F410
:10145000C1010E943606F101108A21E030E008C087
:1014600021EE31E0220E331ED1011C9220E030E04B
:10147000C9010F900F900F900F90CF91DF911F91A6
:101480000F91FF90EF90DF90CF90BF90AF909F9023
:101490008F907F906F905F904F903F902F90089526
:1014A0000F931F938C01FC017383628355834483E4
:1014B0001786168680E090E0A0E0BFE382879387DE
:1014C000A487B587108A05511E4F80E090E0A0EFF9
:1014D000B1E4F80180839183A283B3830B5E114052
:1014E00088E290E0F80190A3878F8AEF90E0968FD2
:1014F000858F0E94C80AF801618F728F838F948F45
:101500001F910F9108951F920F920FB60F92112401
:101510002F933F938F939F93AF93BF9380917804C2
:1015200090917904A0917A04B0917B0430917C046D
:10153000232F2A592D3720F02D570196A11DB11DBB
:1015400020937C048093780490937904A0937A0488
:10155000B0937B048091740490917504A0917604FB
:10156000B09177040196A11DB11D809374049093EE
:101570007504A0937604B0937704BF91AF919F91C7
:101580008F913F912F910F900FBE0F901F90189544
:101590008FB7F894209178043091790440917A04BF
:1015A00050917B048FBFB901CA010895EF92FF9259
:1015B0000F931F937B018C019FB7F89420917404C3
:1015C00030917504409176045091770486B5A89BBC
:1015D00006C08F3F21F02F5F3F4F4F4F5F4F9FBFA0
:1015E000542F432F322F2227280F311D411D511D0B
:1015F000DA01C901880F991FAA1FBB1F820F931F11
:10160000A41FB51FBC0132C09FB7F8942091740489
:1016100030917504409176045091770486B5A89B6B
:1016200006C08F3F21F02F5F3F4F4F4F5F4F9FBF4F
:10163000542F432F322F2227280F311D411D511DBA
:10164000DA01C901880F991FAA1FBB1F820F931FC0
:10165000A41FB51F861B970B885E9340A8F20894C1
:10166000E108F1080109110968517C4FE114F10406
:101670000105110549F61F910F91FF90EF90089514
:10168000789484B5826084BD84B5816084BD85B55D
:10169000826085BD85B5816085BDEEE6F0E0808124
:1016A00081608083E1E8F0E0108280818260808345
:1016B000808181608083E0E8F0E0808181608083C8
:1016C000E1EBF0E0808184608083E0EBF0E08081FA
:1016D00081608083EAE7F0E080818460808380819C
:1016E0008260808380818160808380818068808344
:1016F0001092C1000895982F8E3008F09E50977078
:10170000809129028295880F880F807C892B809395
:101710007C0080917A00806480937A0080917A00C6
:1017200086FDFCCF2091780040917900942F80E0D5
:1017300030E0282B392BC90108951F93CF93DF93F5
:10174000182FEB0161E00E94FD0B209709F44AC0BD
:10175000CF3FD10509F449C0E12FF0E0E255FF4F3A
:1017600084918330C1F0843028F4813051F082308C
:10177000B1F50CC0863019F1873049F1843079F524
:1017800014C084B5806884BDC7BD33C084B5806291
:1017900084BDC8BD2EC08091800080688093800089
:1017A000D0938900C093880024C08091800080621B
:1017B00080938000D0938B00C0938A001AC08091E0
:1017C000B00080688093B000C093B30012C08091D5
:1017D000B00080628093B000C093B4000AC0C038EB
:1017E000D1051CF4812F60E002C0812F61E00E94CE
:1017F0003C0CDF91CF911F910895CF93DF93482F39
:1018000050E0CA0186569F4FFC0134914A575F4F02
:10181000FA018491882369F190E0880F991FFC01F7
:10182000E859FF4FA591B491FC01EE58FF4FC591C7
:10183000D491662351F42FB7F8948C91932F9095FF
:1018400089238C93888189230BC0623061F42FB780
:10185000F8948C91932F909589238C938881832B76
:1018600088832FBF06C09FB7F8948C91832B8C93ED
:101870009FBFDF91CF910895482F50E0CA01825554
:101880009F4FFC012491CA0186569F4FFC01949101
:101890004A575F4FFA013491332309F440C02223A1
:1018A00051F1233071F0243028F42130A1F022309E
:1018B00011F514C02630B1F02730C1F02430D9F42E
:1018C00004C0809180008F7703C0809180008F7D5D
:1018D0008093800010C084B58F7702C084B58F7D5F
:1018E00084BD09C08091B0008F7703C08091B000A3
:1018F0008F7D8093B000E32FF0E0EE0FFF1FEE58D6
:10190000FF4FA591B4912FB7F894662321F48C91E1
:101910009095892302C08C91892B8C932FBF0895B9
:1019200008951F920F920FB60F9211242F933F9399
:101930004F938F939F93EF93FF938091C00082FD0D
:101940001DC04091C6002091BD043091BE042F5FA0
:101950003F4F2F7330708091BF049091C0042817BF
:10196000390771F0E091BD04F091BE04E358FB4FDC
:1019700040833093BE042093BD0402C08091C60012
:10198000FF91EF919F918F914F913F912F910F90E8
:101990000FBE0F901F901895E0911105F091120560
:1019A000E05CFF4F8191919120813181805C9F4F5C
:1019B000821B930B60E470E00E940513892B11F0E9
:1019C0000E94900C08951F920F920FB60F9211244F
:1019D0002F933F938F939F93EF93FF932091010554
:1019E000309102058091030590910405281739076D
:1019F00031F48091C1008F7D8093C10014C0E091CB
:101A00000305F0910405EF53FB4F208180910305FE
:101A10009091040501968F739070909304058093C4
:101A200003052093C600FF91EF919F918F913F9105
:101A30002F910F900FBE0F901F901895AF92BF92ED
:101A4000DF92EF92FF920F931F93CF93DF93EC01FE
:101A50007A018B01DD24D39491E0A92EB12CEC897D
:101A6000FD89DD2069F0C50108A002C0880F991F1B
:101A70000A94E2F7808360E47BE48CE490E005C0A4
:101A8000108260EA75E286E290E0A80197010E9468
:101A90001813215030404040504056954795379597
:101AA000279580E12030380720F0DD2011F0DD247B
:101AB000D6CFE889F9893083EA89FB89208319A286
:101AC000EE89FF89408121E030E0C9010C8C02C021
:101AD000880F991F0A94E2F7482B4083EE89FF890B
:101AE0004081C9010D8C02C0880F991F0A94E2F74A
:101AF000482B4083EE89FF894081C9010E8C02C0CA
:101B0000880F991F0A94E2F7482B4083EE89FF89DA
:101B100080810F8C02C0220F331F0A94E2F72095B8
:101B200028232083DF91CF911F910F91FF90EF9099
:101B3000DF90BF90AF900895DC011C96ED91FC9171
:101B40001D97E05CFF4F8191919120813181805CF4
:101B50009F4F821B930B60E470E00E940513089571
:101B6000DC011C96ED91FC911D97E05CFF4F2081FC
:101B70003181E054F040DF01AE5BBF4F8D919C910D
:101B800011972817390719F42FEF3FEF07C08D91F0
:101B90009C91E80FF91F8081282F30E0C90108953A
:101BA000DC011C96ED91FC911D97E05CFF4F2081BC
:101BB0003181E054F040DF01AE5BBF4F8D919C91CD
:101BC00011972817390719F42FEF3FEF10C08D91A7
:101BD0009C911197E80FF91F20818D919C9111978D
:101BE00001968F73907011969C938E9330E0C9018B
:101BF0000895DC0191968C919197882339F0549641
:101C0000ED91FC915597808186FFF9CF91961C92BA
:101C10000895CF93DF93EC01EE85FF85E05CFF4FE5
:101C200020813181E054F0402F5F3F4F2F7330709F
:101C3000DF01AE5BBF4F8D919C911197281739073B
:101C4000D1F3E05CFF4F80819181E054F040E80FD8
:101C5000F91F6083EE85FF85E05CFF4F31832083B1
:101C6000EE89FF89208181E090E00F8C02C0880F0F
:101C7000991F0A94E2F7282B208381E089A3EC893D
:101C8000FD8980818064808381E090E0DF91CF9145
:101C90000895109208051092070588EE93E0A0E0E1
:101CA000B0E08093090590930A05A0930B05B093CB
:101CB0000C058EE292E090930605809305058DE772
:101CC00094E0909312058093110581EC94E0909339
:101CD00014058093130585EC90E09093160580938E
:101CE000150584EC90E0909318058093170580EC1F
:101CF00090E090931A058093190581EC90E0909301
:101D00001C0580931B0582EC90E090931E05809348
:101D10001D0586EC90E09093200580931F0584E0DC
:101D20008093210583E08093220587E0809323053B
:101D300085E08093240581E080932505089508952A
:101D4000CF93DF930E94400B0E949F0E0E94A4013C
:101D5000CCECDCE00E940D022097E1F30E94CC0C59
:101D6000F9CFCF92DF92EF92FF920F931F93CF9311
:101D7000DF937C016B018A01C0E0D0E00FC0D60187
:101D80006D916D01D701ED91FC910190F081E02DF5
:101D9000C7010995C80FD91F015010400115110541
:101DA00071F7CE01DF91CF911F910F91FF90EF90CE
:101DB000DF90CF900895EF92FF920F931F938C01C5
:101DC000DC01ED91FC910190F081E02D6DE0099531
:101DD0007C01D801ED91FC910190F081E02DC801CA
:101DE0006AE009959C012E0D3F1DC9011F910F91BD
:101DF000FF90EF900895CF93DF93EC01611571058B
:101E000019F420E030E00FC0DB010D900020E9F76D
:101E10001197A61BB70BE881F9810280F381E02DB1
:101E2000AD0109959C01C901DF91CF9108954F92B1
:101E30005F927F928F929F92AF92BF92CF92DF92EA
:101E4000EF92FF920F931F93DF93CF93CDB7DEB73F
:101E5000A1970FB6F894DEBF0FBECDBF2C01742E34
:101E6000CB01223008F42AE019A231E2C32ED12C92
:101E7000CC0EDD1E822E9924AA24BB24672D752F3B
:101E8000A50194010E94181379018A01C801B701C4
:101E9000A50194010E94E612472D461B0894C10833
:101EA000D1084A3014F4405D01C0495CF60140831A
:101EB000E114F1040105110521F07E2C5F2DC8010C
:101EC000DDCFC201B6010E94FB0EA1960FB6F894B9
:101ED000DEBF0FBECDBFCF91DF911F910F91FF905D
:101EE000EF90DF90CF90BF90AF909F908F907F90BA
:101EF0005F904F900895DC012115310541F4ED917B
:101F0000FC910190F081E02D642F099508950E94C5
:101F1000170F0895CF92DF92EF92FF920F931F93C6
:101F2000CF93DF93EC016A017B012115310541F468
:101F3000E881F9810190F081E02D642F09951FC09F
:101F40002A303105D1F477FF17C0E881F98101907B
:101F5000F081E02D6DE209958C0144275527BA01E7
:101F60004C195D096E097F09CE012AE00E94170F06
:101F70009801280F391F04C02AE00E94170F9C0106
:101F8000C901DF91CF911F910F91FF90EF90DF90EA
:101F9000CF9008950E94FB0E08957F928F929F929A
:101FA000AF92BF92CF92DF92EF92FF920F931F9367
:101FB000CF93DF934C017A018B01722ECB01BA01D2
:101FC000A80197010E94E212882321F0C4016BE26C
:101FD00071E021C0C0E0D0E057016801E894D7F873
:101FE000C601B5012FEF3FEF4FE75FE70E94E21216
:101FF000882351F4C601B5012FEF3FEF4FE75FE7AC
:102000000E942C11181614F0C1E0D0E0219739F08D
:10201000C4016FE271E00E94FB0EEC0193C0C801A5
:10202000B7012FEF3FEF4FE75FE40E947B121816D6
:1020300054F0C801B7012FEF3FEF4FE75FEC0E946C
:102040002C11882324F4C40163E371E0E4CFC801B8
:10205000B70120E030E040E050E00E942C1187FD05
:1020600003C0C0E0D0E00EC0D401ED91FC9101901E
:10207000F081E02DC4016DE20995EC0117FB10958C
:1020800017F9109520E030E040E05FE3DD240BC05D
:10209000CA01B90120E030E040E251E40E94301171
:1020A0009B01AC01D394D71498F3C801B7010E94E7
:1020B000C8105B016C010E949D117B018C01C40161
:1020C000B801A7012AE030E00E947B0FC80FD91F9A
:1020D000772039F0C40167E371E00E94FB0EC80F5E
:1020E000D91FC801B7010E94C9119B01AC01C601EB
:1020F000B5010E94C71024C020E030E040E251E466
:102100000E947F127B018C010E9498115B016C017F
:10211000CC24B7FCC094DC2CC401B601A5012AE094
:1021200030E00E948A0FC80FD91FC601B5010E9476
:10213000CB119B01AC01C801B7010E94C7107A9472
:102140007720D1F6CE01DF91CF911F910F91FF90B3
:10215000EF90DF90CF90BF90AF909F908F907F9047
:1021600008950E94CD0F0895EF92FF920F931F9351
:102170007C010E94CD0F8C01C7010E94DB0E080F6D
:10218000191FC8011F910F91FF90EF9008955058AB
:10219000BB27AA270ED075C166D130F06BD120F0D5
:1021A00031F49F3F11F41EF45BC10EF4E095E7FBA0
:1021B00051C1E92F77D180F3BA17620773078407FB
:1021C000950718F071F49EF58FC10EF4E0950B2E73
:1021D000BA2FA02D0B01B90190010C01CA01A00179
:1021E0001124FF27591B99F0593F50F4503E68F1D4
:1021F0001A16F040A22F232F342F4427585FF3CF15
:10220000469537952795A795F0405395C9F77EF4E5
:102210001F16BA0B620B730B840BBAF09150A1F02E
:10222000FF0FBB1F661F771F881FC2F70EC0BA0FB4
:10223000621F731F841F48F4879577956795B7953C
:10224000F7959E3F08F0B3CF9395880F08F0992734
:10225000EE0F979587950895D9D008F481E00895F9
:102260000CD00FC107D140F0FED030F021F45F3F19
:1022700019F0F0C0511139C1F3C014D198F399236A
:10228000C9F35523B1F3951B550BBB27AA2762173A
:102290007307840738F09F5F5F4F220F331F441F7F
:1022A000AA1FA9F333D00E2E3AF0E0E830D09150B7
:1022B0005040E695001CCAF729D0FE2F27D0660FA4
:1022C000771F881FBB1F261737074807AB07B0E8E3
:1022D00009F0BB0B802DBF01FF2793585F4F2AF0F9
:1022E0009E3F510568F0B6C000C15F3FECF3983ED9
:1022F000DCF3869577956795B795F7959F5FC9F756
:10230000880F911D9695879597F90895E1E0660FDE
:10231000771F881FBB1F621773078407BA0720F057
:10232000621B730B840BBA0BEE1F88F7E0950895C0
:1023300004D06894B111D9C00895BCD088F09F57DB
:1023400090F0B92F9927B751A0F0D1F0660F771F01
:10235000881F991F1AF0BA95C9F712C0B13081F0E1
:10236000C3D0B1E00895C0C0672F782F8827B85F29
:1023700039F0B93FCCF3869577956795B395D9F742
:102380003EF490958095709561957F4F8F4F9F4F4C
:102390000895E89409C097FB3EF490958095709558
:1023A00061957F4F8F4F9F4F9923A9F0F92F96E9A1
:1023B000BB279395F695879577956795B795F11116
:1023C000F8CFFAF4BB0F11F460FF1BC06F5F7F4FB3
:1023D0008F4F9F4F16C0882311F096E911C07723C5
:1023E00021F09EE8872F762F05C0662371F096E8CE
:1023F000862F70E060E02AF09A95660F771F881F9D
:10240000DAF7880F9695879597F90895990F000840
:10241000550FAA0BE0E8FEEF16161706E807F907B6
:10242000C0F012161306E407F50798F0621B730B51
:10243000840B950B39F40A2661F0232B242B252BD2
:1024400021F408950A2609F4A140A6958FEF811D75
:10245000811D089597F99F6780E870E060E0089516
:102460009FEF80EC089500240A94161617061806AC
:102470000906089500240A94121613061406050688
:102480000895092E0394000C11F4882352F0BB0F19
:1024900040F4BF2B11F460FF04C06F5F7F4F8F4F7C
:1024A0009F4F089557FD9058440F551F59F05F3FB7
:1024B00071F04795880F97FB991F61F09F3F79F066
:1024C00087950895121613061406551FF2CF4695E8
:1024D000F1DF08C0161617061806991FF1CF86956A
:1024E0007105610508940895E894BB27662777274E
:1024F000CB0197F908958ADF08F48FEF08950BD088
:10250000C0CFB1DF28F0B6DF18F0952309F0A2CFD5
:10251000A7CF1124EACFC6DFA0F3959FD1F3950F83
:1025200050E0551F629FF001729FBB27F00DB11D57
:10253000639FAA27F00DB11DAA1F649F6627B00DE7
:10254000A11D661F829F2227B00DA11D621F739FD0
:10255000B00DA11D621F839FA00D611D221F749FDE
:102560003327A00D611D231F849F600D211D822F25
:10257000762F6A2F11249F5750408AF0E1F088236C
:102580004AF0EE0FFF1FBB1F661F771F881F915079
:102590005040A9F79E3F510570F05CCFA6CF5F3F3A
:1025A000ECF3983EDCF3869577956795B795F795AC
:1025B000E7959F5FC1F7FE2B880F911D9695879534
:1025C00097F9089523DF880B990B0895629FD00136
:1025D000739FF001829FE00DF11D649FE00DF11DDE
:1025E000929FF00D839FF00D749FF00D659FF00D8D
:1025F0009927729FB00DE11DF91F639FB00DE11D7A
:10260000F91FBD01CF011124089597FB092E07265C
:102610000AD077FD04D02ED006D000201AF4709591
:1026200061957F4F0895F6F7909581959F4F089596
:10263000A1E21A2EAA1BBB1BFD010DC0AA1FBB1FC6
:10264000EE1FFF1FA217B307E407F50720F0A21B38
:10265000B30BE40BF50B661F771F881F991F1A94A5
:1026600069F760957095809590959B01AC01BD01CF
:10267000CF010895AA1BBB1B51E107C0AA1FBB1FB6
:10268000A617B70710F0A61BB70B881F991F5A95FE
:10269000A9F780959095BC01CD010895EE0FFF1F1D
:0C26A0000590F491E02D0994F894FFCF10
:1026AC0054756E696E6720646F6E652C204B7020BC
:1026BC003D20002C204B69203D20002C204B642019
:1026CC003D20004F757470757420006E616E00694A
:1026DC006E66006F7666002E0001001F0029003325
:1026EC00003D00470051005B0065006F00790083DE
:1026FC00008D009700A100AB00B500BF00C900DD44
:10270C0000F100050119012D014B0169018701A59B
:10271C0001C301EB0113023B0263028102A902C750
:10272C0002EF0217032B033F036703710385039921
:10273C0003AD03CB03D503DF03E903FD03AA033A7F
:10274C0001220110010201F700ED00E500DD00D7C8
:10275C0000D100CC00C700C300BE00BB00B700B363
:10276C0000B000AA00A500A0009B00960090008B72
:10277C0000850080007B0075006F00690064005FBD
:10278C00005A0055004F0048004500410039003701
:10279C000033002D0027001C00170011000900E574
:1027AC00FF020000A0420000484200003443000039
:1027BC0000400000003F00000040000048420000C4
:1027CC00803F0000C8421400010100000000090E07
:0A27DC00B10E9C0DD00DB00DF90DEB
:00000001FF
