:1000000026C040C03FC03EC03DC041C13BC03AC019
:1000100039C038C037C036C035C034C033C0000026
:10002000000037000000000036000000000038002B
:10003000020202020202020202020102040810206D
:100040002004100801020000040000000000112438
:100050001FBECFE5D2E0DEBFCDBF10E0A0E6B0E02E
:10006000EEEDF4E002C005900D92AA36B107D9F783
:1000700020E0AAE6B0E001C01D92A338B207E1F784
:1000800050D12BC2BDCF823081F018F4813051F0B5
:100090000895833019F0843009F008958CB58F7D70
:1000A0008CBD08958AB58F7702C08AB58F7D8ABDD1
:1000B00008951F93CF93DF93E4E4F0E09491EAE393
:1000C000F0E0D491E0E3F0E0C491CC23D1F0182F1C
:1000D000992311F0892FD7DFEC2FF0E0EE0FFF1FEF
:1000E000E65DFF4FA591B4918FB7F894111105C04B
:1000F0009C91ED2FE095E92302C0EC91ED2BEC9360
:100100008FBFDF91CF911F910895CF93DF93282F59
:1001100030E0F901EC5BFF4F8491F901E65CFF4FA1
:10012000D491F901E05DFF4FC491CC2389F0811196
:10013000AADFEC2FF0E0EE0FFF1FEC5DFF4FA59163
:10014000B491EC91ED2381E090E021F480E002C0D5
:1001500080E090E0DF91CF910895CF93DF9390E01E
:10016000FC01E65CFF4F2491FC01E05DFF4F8491B0
:10017000882361F190E0880F991FFC01E25EFF4F38
:10018000C591D491FC01E65DFF4FA591B491611139
:1001900009C09FB7F8948881209582238883EC91C9
:1001A0002E230BC0623061F49FB7F8943881822F00
:1001B000809583238883EC912E2B2C939FBF06C0C0
:1001C0008FB7F894E8812E2B28838FBFDF91CF91D2
:1001D00008953FB7F89480916F0090917000A091BE
:1001E0007100B091720022B708B601FE05C02F3F22
:1001F00019F00196A11DB11D3FBFBA2FA92F982F4D
:100200008827820F911DA11DB11DBC01CD0143E0C6
:10021000660F771F881F991F4A95D1F708958F920F
:100220009F92AF92BF92CF92DF92EF92FF926B01BB
:100230007C01CFDF4B015C01C114D104E104F10466
:10024000E9F0C7DFDC01CB0188199909AA09BB09CC
:10025000883E9340A105B10578F321E0C21AD10888
:10026000E108F10888EE880E83E0981EA11CB11CFD
:10027000C114D104E104F10421F7DECFFF90EF9027
:10028000DF90CF90BF90AF909F908F9008951F9276
:100290000F920FB60F9211242F933F938F939F933A
:1002A000AF93BF9380916B0090916C00A0916D0013
:1002B000B0916E0030916A0026E0230F2D3720F4B4
:1002C0000296A11DB11D05C029E8230F0396A11DAB
:1002D000B11D20936A0080936B0090936C00A093F3
:1002E0006D00B0936E0080916F0090917000A091AE
:1002F0007100B09172000196A11DB11D80936F0035
:1003000090937000A0937100B0937200BF91AF9171
:100310009F918F913F912F910F900FBE0F901F9043
:10032000189578948AB582608ABD8AB581608ABD45
:1003300083B7826083BF83B7816083BF89B78260E0
:1003400089BF80B7826080BF80B7816080BF329AEA
:10035000319A3098379A8CB580648CBD60E082E029
:10036000FCDE60E083E0F9DE60E084E0F6DE61E080
:1003700080E0F3DE81E09DDE00E010E0D1E010924D
:100380008200109281001092800010927F00E5E7B9
:10039000F0E080E090E01192119201968430910596
:1003A000D1F790937E0080937D00D093610084E02C
:1003B000ACDE892B09F08BC083E0A7DE20916000C2
:1003C000892B39F5222331F010928200109281009E
:1003D0001092600082E099DEC1E0892B09F4C0E050
:1003E000C093740080917300C81759F0CC2349F072
:1003F0008091810090918200019690938200809379
:1004000081006AE070E080E090E009DFC093730053
:10041000D3CF211124C080917F009091800084303F
:100420009105ECF420918100309182002A30310551
:1004300021F41092820010928100FC01EE0FFF1F48
:10044000EB58FF4F2091810030918200318320834F
:1004500001969093800080937F00D09360008091FC
:100460006100882309F4A3CF80917F0090918000E0
:10047000049709F09CCF20E030E080E090E041E07C
:100480008430910591F0F901EB58FF4FA081B181C3
:10049000F901EE59FF4F60817181A617B70709F086
:1004A00040E001962E5F3F4FEBCF90937E0080930C
:1004B0007D00442349F080E0FCDD64E670E080E0EC
:1004C00090E0ADDE81E0F5DD1092610070CF0115A6
:0E04D000110509F454CF94DD52CFF894FFCFFC
:0A04DE0001010700070007000700F6
:00000001FF
