:020000021000EC
:10FC0000112494B714BE892F8D7011F0892F1DD146
:10FC100085E08093810082E08093C00088E180933A
:10FC2000C10086E08093C20085E18093C4008EE02D
:10FC3000F6D03A9A86E02CE33BEF91E030938500D2
:10FC40002093840096BBB09BFECF329AA89581503A
:10FC5000A9F7CC24DD2423E0822EAA24A39491E1E9
:10FC6000992ED1D0813471F4CED0182FDED0123835
:10FC700011F482E005C0113811F486E001C083E080
:10FC8000BAD0B6C0823411F484E103C0853419F4CB
:10FC900085E0D3D0ADC08535A1F4B5D0082F10E0F4
:10FCA000B2D0E82EFF24FE2CEE24E02AF12A8F2D7C
:10FCB000881F8827881F8BBFEE0CFF1CB6D06701FA
:10FCC00097C0863521F484E0B8D080E0D9CF84365F
:10FCD00009F05AC098D090E0D82FCC2794D090E06B
:10FCE000C82BD92B90D0B82E8E01E12CF1E0FF2E3D
:10FCF0008AD0F70181937F0101501040C9F795D058
:10FD0000F5E4BF16C1F49601E0E0F1E011C04081D6
:10FD1000F999FECFC901019631961FBA32BD21BDB6
:10FD200040BD0FB6F894FA9AF99A0FBE21979C013C
:10FD3000209769F75DC0F60187BEE89507B600FC1D
:10FD4000FDCFBE01A601A0E0B1E02C9130E01196FC
:10FD50008C91119790E0982F8827822B932B1296E5
:10FD6000FA010C01A7BEE89511244E5F5F4F625067
:10FD7000704059F785E0F60187BFE89507B600FCAB
:10FD8000FDCF97BEE89534C0843721F53CD090E094
:10FD9000D82FCC2738D090E0C82BD92B34D0182FAF
:10FDA00044D0153479F4C6018C010F5F1F4FF999C7
:10FDB000FECF92BD81BDF89A80B51DD02197C1F0CC
:10FDC000C801F2CF8601F80187918F0114D02197E5
:10FDD000D1F70EC0853739F428D08EE10CD087E9F1
:10FDE0000AD085E04DCF813511F488E018D01DD0C0
:10FDF00080E101D036CF982F8091C00085FFFCCFE5
:10FE00009093C60008958091C00087FFFCCF809139
:10FE1000C00084FD01C0A8958091C6000895E0E669
:10FE2000F0E098E1908380830895EDDF803219F04F
:10FE300088E0F5DFFFCF84E1DECF1F93182FE3DFEB
:10FE40001150E9F7F2DF1F910895282E80E0E7DFD7
:06FE5000E0E0FF27099429
:02FFFE000206F9
:040000031000FC00ED
:00000001FF
