:100000000C9449000C9474000C9474000C947400CB
:100010000C9474000C9474000C9474000C94740090
:100020000C9474000C9474000C9474000C94740080
:100030000C9474000C9474000C9474000C94740070
:100040000C9474000C9474000C9458070C94740075
:100050000C94E8000C9494010C9474000C947400BB
:100060000C9474000C9474000C9474000C94740040
:100070000C9428010C94D3010C9474000C9474001B
:100080000C9474000C9474000C947400A4003D0350
:100090009D0011241FBECFEFD0E4DEBFCDBF11E025
:1000A000A0E0B1E0E2E8F0E100E00BBF02C00790A1
:1000B0000D92A831B107D9F71BBE12E0A8E1B1E05B
:1000C00001C01D92A038B107E1F710E0C0E9D0E00F
:1000D00004C02297FE010E943008CC38D107C9F72E
:1000E0000E94E0030C9434080C940000FB01DC0136
:1000F00002C001900D9241505040D8F70895FB0185
:10010000DC0101900D920020E1F708958130910506
:1001100051F46F5F7F4F81F488E191E060E071E01E
:100120000E940A050895892B39F46F5F7F4F21F4EF
:1001300088E191E00E943C05089580E090E06FEF37
:100140007FEF0E948600089581E090E06FEF7FEFDF
:100150000E94860008950F931F9301E00EC08FE266
:1001600092E00E94C402182F88E191E0612F0E9462
:10017000C4041A3011F400931E018FE292E00E9431
:100180009002892B61F71F910F91089580911E01B4
:10019000882371F08FE292E068E171E00E944D04E3
:1001A00088E191E060E071E00E94230510921E0159
:1001B00008958FE292E040E855E260E070E00E942E
:1001C000120288E191E068EC70E00E947B040895DF
:1001D0001F920F920FB60F920BB60F9211242F930E
:1001E0003F934F938F939F93EF93FF938091C00022
:1001F00082FD1DC04091C60020915F0130916001D9
:100200002F5F3F4F2F733070809161019091620199
:100210002817390771F0E0915F01F0916001E15E0C
:10022000FE4F40833093600120935F0102C08091B4
:10023000C600FF91EF919F918F914F913F912F9128
:100240000F900BBE0F900FBE0F901F901895089542
:100250001F920F920FB60F920BB60F9211242F938D
:100260003F934F938F939F93EF93FF938091C80099
:1002700082FD1DC04091CE002091E7013091E80140
:100280002F5F3F4F2F7330708091E9019091EA0109
:100290002817390771F0E091E701F091E801E9557D
:1002A000FE4F40833093E8012093E70102C0809124
:1002B000CE00FF91EF919F918F914F913F912F91A0
:1002C0000F900BBE0F900FBE0F901F901895E091EE
:1002D0003B02F0913C02E05CFF4F819191912081C3
:1002E0003181805C9F4F821B930B60E470E00E9421
:1002F000E507892B11F00E94AB00E0915D02F091BF
:100300005E02E05CFF4F8191919120813181805CA0
:100310009F4F821B930B60E470E00E94E507892BDE
:1003200011F00E94270108951F920F920FB60F92AD
:100330000BB60F9211242F933F938F939F93EF93BC
:10034000FF932091A3013091A4018091A501909188
:10035000A6012817390731F48091C1008F7D809361
:10036000C10014C0E091A501F091A601ED59FE4F26
:1003700020818091A5019091A60101968F739070C4
:100380009093A6018093A5012093C600FF91EF9161
:100390009F918F913F912F910F900BBE0F900FBEA9
:1003A0000F901F9018951F920F920FB60F920BB6D9
:1003B0000F9211242F933F938F939F93EF93FF936B
:1003C00020912B0230912C0280912D0290912E02CF
:1003D0002817390731F48091C9008F7D8093C900B7
:1003E00014C0E0912D02F0912E02E551FE4F2081C4
:1003F00080912D0290912E0201968F7390709093B0
:100400002E0280932D022093CE00FF91EF919F91B9
:100410008F913F912F910F900BBE0F900FBE0F90B9
:100420001F901895AF92BF92DF92EF92FF920F93B9
:100430001F93CF93DF93EC017A018B01DD24D394DA
:1004400091E0A92EB12CEC89FD89DD2069F0C50170
:1004500008A002C0880F991F0A94E2F7808360E425
:100460007BE48CE490E005C0108260EA75E286E2ED
:1004700090E0A80197010E94F807215030404040C9
:100480005040569547953795279580E1203038079D
:1004900020F0DD2011F0DD24D6CFE889F989308302
:1004A000EA89FB89208319A2EE89FF89408121E036
:1004B00030E0C9010C8C02C0880F991F0A94E2F742
:1004C000482B4083EE89FF894081C9010D8C02C011
:1004D000880F991F0A94E2F7482B4083EE89FF8921
:1004E0004081C9010E8C02C0880F991F0A94E2F75F
:1004F000482B4083EE89FF8980810F8C02C0220F38
:10050000331F0A94E2F7209528232083DF91CF91AF
:100510001F910F91FF90EF90DF90BF90AF900895E3
:10052000DC011C96ED91FC911D97E05CFF4F8191E1
:10053000919120813181805C9F4F821B930B60E4FD
:1005400070E00E94E5070895DC011C96ED91FC9196
:100550001D97E05CFF4F20813181E054F040DF01C6
:10056000AE5BBF4F8D919C9111972817390719F4F5
:100570002FEF3FEF07C08D919C91E80FF91F80810D
:10058000282F30E0C9010895DC011C96ED91FC9103
:100590001D97E05CFF4F20813181E054F040DF0186
:1005A000AE5BBF4F8D919C9111972817390719F4B5
:1005B0002FEF3FEF10C08D919C911197E80FF91F1D
:1005C00020818D919C91119701968F739070119657
:1005D0009C938E9330E0C9010895DC0191968C9133
:1005E0009197882339F05496ED91FC91559780812D
:1005F00086FFF9CF91961C920895CF93DF93EC017B
:10060000EE85FF85E05CFF4F20813181E054F040B2
:100610002F5F3F4F2F733070DF01AE5BBF4F8D9167
:100620009C91119728173907D1F3E05CFF4F808127
:100630009181E054F040E80FF91F6083EE85FF855B
:10064000E05CFF4F31832083EE89FF89208181E0C8
:1006500090E00F8C02C0880F991F0A94E2F7282BB4
:10066000208381E089A3EC89FD8980818064808377
:1006700081E090E0DF91CF9108951F9310923202B4
:100680001092310228EE33E040E050E02093330234
:100690003093340240933502509336026BE071E0A0
:1006A0007093300260932F028FE191E090933C02AF
:1006B00080933B0283E691E090933E0280933D025B
:1006C00085EC90E09093400280933F0284EC90E0B0
:1006D000909342028093410280EC90E09093440218
:1006E0008093430281EC90E0909346028093450210
:1006F00082EC90E0909348028093470286EC90E071
:1007000090934A028093490214E010934B02B3E0A5
:10071000B0934C02A7E0A0934D02F5E0F0934E0297
:10072000E1E0E0934F0210925402109253022093A2
:1007300055023093560240935702509358027093DB
:1007400052026093510287EA91E090935E02809397
:100750005D028BEE91E09093600280935F028DECDE
:1007600090E090936202809361028CEC90E0909311
:1007700064028093630288EC90E090936602809319
:10078000650289EC90E090936802809367028AEC9E
:1007900090E090936A02809369028EEC90E09093CF
:1007A0006C0280936B0210936D02B0936E02A09363
:1007B0006F02F0937002E09371021F910895089503
:1007C000CF93DF930E949D070E94DF030E94D90010
:1007D000C7E6D1E00E94C6002097E1F30E946701BE
:1007E000F9CFCF92DF92EF92FF920F931F93CF93A7
:1007F000DF937C016B018A01C0E0D0E00FC0D6011D
:100800006D916D01D701ED91FC910190F081E02D8A
:10081000C7010995C80FD91F0150104001151105D6
:1008200071F7CE01DF91CF911F910F91FF90EF9063
:10083000DF90CF900895CF93DF93FB01EC01A88167
:10084000B98160817181448155811296ED91FC914D
:1008500013970995DF91CF910895EF92FF920F932F
:100860001F938C01DC01ED91FC910190F081E02D52
:100870006DE009957C01D801ED91FC910190F0812A
:10088000E02DC8016AE009959C012E0D3F1DC901AC
:100890001F910F91FF90EF900895EF92FF920F93A9
:1008A0001F937C010E941B048C01C7010E942D0430
:1008B0009C01200F311FC9011F910F91FF90EF90F4
:1008C00008950F931F93CF93DF93EC018B016F5F1C
:1008D0007F4F888199810E947706009711F480E00C
:1008E00005C0998388831B830A8381E0DF91CF91C0
:1008F0001F910F910895CF93DF93EC018881998127
:10090000892B29F08A819B818617970760F4CE0195
:100910000E946104882341F08C819D81892B19F408
:10092000E881F981108281E0DF91CF910895EF9203
:10093000FF920F931F93CF93DF93EC017B016C81A8
:100940007D81E114F104C1F04115510599F08A014E
:10095000060F171FB8010E947B04882369F0888165
:1009600099812C813D81820F931FB7010E947F00E6
:100970001D830C8381E001C080E0DF91CF911F9146
:100980000F91FF90EF900895DF93CF9300D0CDB7F4
:10099000DEB769831A82BE016F5F7F4F41E050E08E
:1009A0000E9497040F900F90CF91DF910895CF93FD
:1009B000DF93EC0188819981009711F00E94DF0597
:1009C000198218821D821C821B821A82DF91CF91AC
:1009D0000895EF92FF920F931F93CF93DF93EC0153
:1009E0007B018A01BA010E947B04882321F4CE0195
:1009F0000E94D70407C01D830C8388819981B701A9
:100A00000E947F00CE01DF91CF911F910F91FF9047
:100A1000EF900895CF93DF93EC01198218821B8227
:100A20001A821D821C826115710551F0DB010D9047
:100A30000020E9F71197A61BB70BAD010E94E9044E
:100A4000DF91CF9108950F931F93182F092F6115F0
:100A5000710559F0DB010D900020E9F71197A61BF5
:100A6000B70BAD010E94E90402C00E94D704812F98
:100A7000902F1F910F910895FC01808191810E9418
:100A8000DF0508950F931F93CF93DF93BC0182304E
:100A9000910510F462E070E0E0917E02F0917F0237
:100AA00040E050E0A0E0B0E024C080819181861752
:100AB0009707D0F08617970771F48281938110977A
:100AC00029F013969C938E9312972CC090937F02DB
:100AD00080937E0227C04115510519F084179507B0
:100AE00018F48D01AC01EF01DF01828193819C013B
:100AF000F9013097D1F641155105F9F0CA01861B6D
:100B0000970B8430910580F48A819B810115110532
:100B100021F0F8019383828304C090937F02809335
:100B20007E02FE01329645C0FE01E80FF91F619377
:100B300071930297998388833CC080917C02909145
:100B40007D02892B41F480910301909104019093DF
:100B50007D0280937C024091050150910601411570
:100B6000510541F44DB75EB78091010190910201AA
:100B7000481B590B20917C0230917D0224173507C8
:100B8000B0F4CA01821B930B8617970780F0AB0164
:100B90004E5F5F4F8417950750F0420F531F5093DD
:100BA0007D0240937C02F9016193719302C0E0E001
:100BB000F0E0CF01DF91CF911F910F910895CF9376
:100BC000DF939C01009709F48FC0EC0122971B82F0
:100BD0001A8260917E0270917F026115710581F425
:100BE00088819981820F931F20917C0230917D0230
:100BF0002817390739F5D0937D02C0937C0274C061
:100C0000DB0140E050E0AC17BD0708F1BB83AA83CD
:100C1000FE0121913191E20FF31FAE17BF0779F466
:100C20008D919C911197280F391F2E5F3F4F39836B
:100C3000288312968D919C9113979B838A834115EB
:100C4000510571F4D0937F02C0937E024DC012967D
:100C50008D919C911397AD01009711F0DC01D3CFDA
:100C6000DA011396DC93CE931297FA012191319118
:100C7000E20FF31FCE17DF0769F488819981280FEF
:100C8000391F2E5F3F4FFA01318320838A819B8178
:100C900093838283E0E0F0E0DB0112968D919C91DA
:100CA0001397009719F0BC01FD01F6CFAB014E5F21
:100CB0005F4FDB018D919C91840F951F20917C02E9
:100CC00030917D022817390779F4309729F4109272
:100CD0007F0210927E0202C0138212824250504064
:100CE00050937D0240937C02DF91CF9108956F92E3
:100CF0007F928F929F92AF92BF92CF92DF92EF92AC
:100D0000FF920F931F93CF93DF938C01009729F4E9
:100D1000CB010E9442058C01BBC08EEFE82E8FEF05
:100D2000F82EE00EF11E4801860E971E8E149F04C9
:100D300008F4ACC0D7014D915C9111974617570745
:100D4000B8F04530510508F4A3C0CA0104978617CE
:100D5000970708F49DC042505040461B570BF401C2
:100D6000419351936D937C93CF010E94DF0590C016
:100D70005B01A41AB50A3801640E751EA0917E02AB
:100D8000B0917F02E0E0F0E0CC24DD2447C0A6155E
:100D9000B705A9F5CD91DC911197CE0102968A1580
:100DA0009B0568F1CE018A199B09029612962C9137
:100DB000129713963C91059758F0F40122833383E0
:100DC000CA19DB09D183C083D7016D937C9309C015
:100DD0004E5F5F4F4C0F5D1FF70151834083C90188
:100DE000FC01C114D10431F0D6011396FC93EE93AB
:100DF00012974EC0F0937F02E0937E0249C08D911E
:100E00009C911197E817F90708F4FC016D011296FF
:100E10008C91129713969C919C01D901109709F01F
:100E2000B6CF80917C0290917D0286159705E9F4FA
:100E3000E617F707D0F4209105013091060121153E
:100E4000310541F42DB73EB7809101019091020127
:100E5000281B390B82169306C8F490927D0280926B
:100E60007C02F7017183608313C0CB010E944205AD
:100E7000EC01009759F0D7014D915C91B8010E94A7
:100E80007600C8010E94DF058E0102C000E010E07C
:100E9000C801DF91CF911F910F91FF90EF90DF90EC
:100EA000CF90BF90AF909F908F907F906F9008955C
:100EB0001F920F920FB60F9211242F933F938F938F
:100EC0009F93AF93BF938091770290917802A09106
:100ED0007902B0917A0230917B02232F2A592D3763
:100EE00020F02D570196A11DB11D20937B02809308
:100EF000770290937802A0937902B0937A0280915E
:100F0000730290917402A0917502B09176020196DD
:100F1000A11DB11D8093730290937402A09375027A
:100F2000B0937602BF91AF919F918F913F912F9196
:100F30000F900FBE0F901F901895789484B5826023
:100F400084BD84B5816084BD85B5826085BD85B56D
:100F5000816085BDEEE6F0E0808181608083E1E81C
:100F6000F0E0108280818260808380818160808354
:100F7000E0E8F0E0808181608083E1EBF0E0808157
:100F800084608083E0EBF0E0808181608083E1E930
:100F9000F0E0808182608083808181608083E0E9ED
:100FA000F0E0808181608083EAE7F0E08081846006
:100FB0008083808182608083808181608083808162
:100FC000806880831092C100089597FB092E072640
:100FD0000AD077FD04D02ED006D000201AF47095E8
:100FE00061957F4F0895F6F7909581959F4F0895ED
:100FF000A1E21A2EAA1BBB1BFD010DC0AA1FBB1F1D
:10100000EE1FFF1FA217B307E407F50720F0A21B8E
:10101000B30BE40BF50B661F771F881F991F1A94FB
:1010200069F760957095809590959B01AC01BD0125
:10103000CF010895AA1BBB1B51E107C0AA1FBB1F0C
:10104000A617B70710F0A61BB70B881F991F5A9554
:10105000A9F780959095BC01CD010895EE0FFF1F73
:101060000590F491E02D099410E0C0E9D0E004C0AF
:10107000FE010E9430082296C239D107C9F7F894C0
:02108000FFCFA0
:101082000080008002000000000000FD02F10390D9
:0810920002C402A402ED0200F9
:00000001FF
