:100000000C9449000C9474000C9474000C947400CB
:100010000C9474000C9474000C9474000C94740090
:100020000C9474000C9474000C9474000C94740080
:100030000C9474000C9474000C9474000C94740070
:100040000C9474000C9474000C94F4000C947400E0
:100050000C94EB010C9497020C9474000C947400B3
:100060000C9474000C9474000C9474000C94740040
:100070000C942B020C94D6020C9474000C94740013
:100080000C9474000C9474000C947400A40040044C
:100090009D0011241FBECFEFD0E4DEBFCDBF11E025
:1000A000A0E0B1E0ECECF1E100E00BBF02C0079092
:1000B0000D92AC31B107D9F71BBE12E0ACE1B1E053
:1000C00001C01D92A438B107E1F710E0C0E9D0E00B
:1000D00004C02297FE010E94D508CC38D107C9F789
:1000E0000E94E3040C94D9080C940000FB01DC018D
:1000F00002C001900D9241505040D8F70895FB0185
:10010000DC0101900D920020E1F708958130910506
:1001100051F46F5F7F4F81F48CE191E060E071E01A
:100120000E943C060895892B39F46F5F7F4F21F4BC
:100130008CE191E00E946E06089580E090E06FEF00
:100140007FEF0E948600089581E090E06FEF7FEFDF
:100150000E94860008950F931F9301E00EC08CE368
:1001600092E00E94C703182F8CE191E0612F0E945A
:10017000F6051A3011F4009322018CE392E00E94FC
:100180009303892B61F71F910F9108958CE392E0FF
:1001900061E071E00E94800580912201882371F066
:1001A0008CE392E06CE171E00E9450058CE191E0FB
:1001B00060E071E00E9455061092220164EF71E048
:1001C00080E090E00E94390108958CE392E040E8DD
:1001D00055E260E070E00E9415038CE191E068EC6C
:1001E00070E00E94AD0508951F920F920FB60F9216
:1001F00011242F933F938F939F93AF93BF9380913D
:10020000270190912801A0912901B0912A013091F4
:100210002B01232F2A592D3720F02D570196A11D90
:10022000B11D20932B018093270190932801A09367
:100230002901B0932A018091230190912401A0917A
:100240002501B09126010196A11DB11D80932301C6
:1002500090932401A0932501B0932601BF91AF9103
:100260009F918F913F912F910F900FBE0F901F90F4
:100270001895EF92FF920F931F937B018C019FB70C
:10028000F89420912301309124014091250150914F
:10029000260186B5A89B06C08F3F21F02F5F3F4FF8
:1002A0004F4F5F4F9FBF542F432F322F2227280FCE
:1002B000311D411D511DDA01C901880F991FAA1F67
:1002C000BB1F820F931FA41FB51FBC0132C09FB775
:1002D000F8942091230130912401409125015091FF
:1002E000260186B5A89B06C08F3F21F02F5F3F4FA8
:1002F0004F4F5F4F9FBF542F432F322F2227280F7E
:10030000311D411D511DDA01C901880F991FAA1F16
:10031000BB1F820F931FA41FB51F861B970B885E00
:100320009340A8F20894E108F10801091109685105
:100330007C4FE114F1040105110549F61F910F915D
:10034000FF90EF900895789484B5826084BD84B561
:10035000816084BD85B5826085BD85B5816085BDC0
:10036000EEE6F0E0808181608083E1E8F0E01082D9
:10037000808182608083808181608083E0E8F0E01A
:10038000808181608083E1EBF0E080818460808304
:10039000E0EBF0E0808181608083E1E9F0E0808142
:1003A00082608083808181608083E0E9F0E08081E9
:1003B00081608083EAE7F0E08081846080838081CF
:1003C0008260808380818160808380818068808377
:1003D0001092C10008951F920F920FB60F920BB6A4
:1003E0000F9211242F933F934F938F939F93EF93EB
:1003F000FF938091C00082FD1DC04091C6002091F6
:100400006C0130916D012F5F3F4F2F7330708091E1
:100410006E0190916F012817390771F0E0916C011E
:10042000F0916D01E45DFE4F408330936D012093A8
:100430006C0102C08091C600FF91EF919F918F9156
:100440004F913F912F910F900BBE0F900FBE0F90C9
:100450001F90189508951F920F920FB60F920BB62A
:100460000F9211242F933F934F938F939F93EF936A
:10047000FF938091C80082FD1DC04091CE00209165
:10048000F4013091F5012F5F3F4F2F733070809151
:10049000F6019091F7012817390771F0E091F40106
:1004A000F091F501EC54FE4F40833093F501209319
:1004B000F40102C08091CE00FF91EF919F918F9146
:1004C0004F913F912F910F900BBE0F900FBE0F9049
:1004D0001F901895E0914802F0914902E05CFF4FAF
:1004E0008191919120813181805C9F4F821B930B80
:1004F00060E470E00E948A08892B11F00E94AB0032
:10050000E0916A02F0916B02E05CFF4F8191919162
:1005100020813181805C9F4F821B930B60E470E0EF
:100520000E948A08892B11F00E942A0208951F92C6
:100530000F920FB60F920BB60F9211242F933F9389
:100540008F939F93EF93FF932091B0013091B1016E
:100550008091B2019091B3012817390731F480914D
:10056000C1008F7D8093C10014C0E091B201F09171
:10057000B301E059FE4F20818091B2019091B30107
:1005800001968F7390709093B3018093B201209382
:10059000C600FF91EF919F918F913F912F910F9006
:1005A0000BBE0F900FBE0F901F9018951F920F92C9
:1005B0000FB60F920BB60F9211242F933F938F9388
:1005C0009F93EF93FF9320913802309139028091ED
:1005D0003A0290913B022817390731F48091C90003
:1005E0008F7D8093C90014C0E0913A02F0913B02E4
:1005F000E850FE4F208180913A0290913B02019693
:100600008F73907090933B0280933A022093CE00B8
:10061000FF91EF919F918F913F912F910F900BBE82
:100620000F900FBE0F901F901895AF92BF92DF9260
:10063000EF92FF920F931F93CF93DF93EC017A0118
:100640008B01DD24D39491E0A92EB12CEC89FD8996
:10065000DD2069F0C50108A002C0880F991F0A9427
:10066000E2F7808360E47BE48CE490E005C01082D4
:1006700060EA75E286E290E0A80197010E949D0879
:10068000215030404040504056954795379527952A
:1006900080E12030380720F0DD2011F0DD24D6CFB6
:1006A000E889F9893083EA89FB89208319A2EE89D8
:1006B000FF89408121E030E0C9010C8C02C0880F25
:1006C000991F0A94E2F7482B4083EE89FF89408105
:1006D000C9010D8C02C0880F991F0A94E2F7482BBC
:1006E0004083EE89FF894081C9010E8C02C0880FCA
:1006F000991F0A94E2F7482B4083EE89FF89808195
:100700000F8C02C0220F331F0A94E2F72095282392
:100710002083DF91CF911F910F91FF90EF90DF9099
:10072000BF90AF900895DC011C96ED91FC911D9750
:10073000E05CFF4F8191919120813181805C9F4FDE
:10074000821B930B60E470E00E948A080895DC012C
:100750001C96ED91FC911D97E05CFF4F208131814B
:10076000E054F040DF01AE5BBF4F8D919C9111973B
:100770002817390719F42FEF3FEF07C08D919C918F
:10078000E80FF91F8081282F30E0C9010895DC01AE
:100790001C96ED91FC911D97E05CFF4F208131810B
:1007A000E054F040DF01AE5BBF4F8D919C911197FB
:1007B0002817390719F42FEF3FEF10C08D919C9146
:1007C0001197E80FF91F20818D919C911197019647
:1007D0008F73907011969C938E9330E0C9010895A9
:1007E000DC0191968C919197882339F05496ED9184
:1007F000FC915597808186FFF9CF91961C920895C0
:10080000CF93DF93EC01EE85FF85E05CFF4F208105
:100810003181E054F0402F5F3F4F2F733070DF0184
:10082000AE5BBF4F8D919C91119728173907D1F37B
:10083000E05CFF4F80819181E054F040E80FF91FA8
:100840006083EE85FF85E05CFF4F31832083EE8976
:10085000FF89208181E090E00F8C02C0880F991FF2
:100860000A94E2F7282B208381E089A3EC89FD8993
:1008700080818064808381E090E0DF91CF91089552
:100880001F9310923F0210923E0228EE33E040E0A8
:1008900050E0209340023093410240934202509333
:1008A000430260E171E070933D0260933C028CE290
:1008B00091E0909349028093480280E791E0909301
:1008C0004B0280934A0285EC90E090934D02809316
:1008D0004C0284EC90E090934F0280934E0280ECA7
:1008E00090E0909351028093500281EC90E09093BD
:1008F00053028093520282EC90E0909355028093D1
:10090000540286EC90E0909357028093560214E0D4
:1009100010935802B3E0B0935902A7E0A0935A0293
:10092000F5E0F0935B02E1E0E0935C02109261027B
:10093000109260022093620230936302409364023B
:100940005093650270935F0260935E0284EB91E0C6
:1009500090936B0280936A0288EF91E090936D020E
:1009600080936C028DEC90E090936F0280936E0206
:100970008CEC90E0909371028093700288EC90E090
:10098000909373028093720289EC90E090937502C9
:10099000809374028AEC90E09093770280937602C1
:1009A0008EEC90E0909379028093780210937A0213
:1009B000B0937B02A0937C02F0937D02E0937E02D1
:1009C0001F9108950895CF93DF930E94A3010E9481
:1009D000E2040E94E500CAE6D2E00E94C600209729
:1009E000E1F30E946A02F9CFCF92DF92EF92FF9279
:1009F0000F931F93CF93DF937C016B018A01C0E0BB
:100A0000D0E00FC0D6016D916D01D701ED91FC9141
:100A10000190F081E02DC7010995C80FD91F015041
:100A200010400115110571F7CE01DF91CF911F9193
:100A30000F91FF90EF90DF90CF900895CF93DF93C9
:100A4000FB01EC01A881B9816081718144815581EC
:100A50001296ED91FC9113970995DF91CF9108952E
:100A6000EF92FF920F931F938C01DC01ED91FC91AB
:100A70000190F081E02D6DE009957C01D801ED91A8
:100A8000FC910190F081E02DC8016AE009959C017C
:100A90002E0D3F1DC9011F910F91FF90EF900895FA
:100AA000EF92FF920F931F937C010E941E058C0111
:100AB000C7010E9430059C01200F311FC9011F9101
:100AC0000F91FF90EF900895CF93DF93EC016115A4
:100AD000710519F420E030E00FC0DB010D9000201B
:100AE000E9F71197A61BB70BE881F9810280F38122
:100AF000E02DAD0109959C01C901DF91CF910895C9
:100B0000EF92FF920F931F937C010E9464058C016A
:100B1000C7010E943005080F191FC8011F910F91CE
:100B2000FF90EF9008950F931F93CF93DF93EC0105
:100B30008B016F5F7F4F888199810E94A907009781
:100B400011F480E005C0998388831B830A8381E0C8
:100B5000DF91CF911F910F910895CF93DF93EC0117
:100B600088819981892B29F08A819B818617970733
:100B700060F4CE010E949305882341F08C819D8111
:100B8000892B19F4E881F981108281E0DF91CF91FE
:100B90000895EF92FF920F931F93CF93DF93EC0191
:100BA0007B016C817D81E114F104C1F04115510597
:100BB00099F08A01060F171FB8010E94AD0588231E
:100BC00069F0888199812C813D81820F931FB70143
:100BD0000E947F001D830C8381E001C080E0DF91D3
:100BE000CF911F910F91FF90EF900895DF93CF93D6
:100BF00000D0CDB7DEB769831A82BE016F5F7F4F29
:100C000041E050E00E94C9050F900F90CF91DF9115
:100C10000895CF93DF93EC0188819981009711F0BB
:100C20000E941107198218821D821C821B821A825F
:100C3000DF91CF910895EF92FF920F931F93CF937F
:100C4000DF93EC017B018A01BA010E94AD05882384
:100C500021F4CE010E94090607C01D830C83888100
:100C60009981B7010E947F00CE01DF91CF911F9142
:100C70000F91FF90EF900895CF93DF93EC011982CD
:100C800018821B821A821D821C826115710551F027
:100C9000DB010D900020E9F71197A61BB70BAD0102
:100CA0000E941B06DF91CF9108950F931F93182F79
:100CB000092F6115710559F0DB010D900020E9F74E
:100CC0001197A61BB70BAD010E941B0602C00E9424
:100CD0000906812F902F1F910F910895FC018081AB
:100CE00091810E94110708950F931F93CF93DF9373
:100CF000BC018230910510F462E070E0E091820264
:100D0000F091830240E050E0A0E0B0E024C0808198
:100D1000918186179707D0F08617970771F4828123
:100D20009381109729F013969C938E9312972CC061
:100D3000909383028093820227C04115510519F0D8
:100D40008417950718F48D01AC01EF01DF01828152
:100D500093819C01F9013097D1F641155105F9F0C5
:100D6000CA01861B970B8430910580F48A819B8190
:100D70000115110521F0F8019383828304C090933B
:100D8000830280938202FE01329645C0FE01E80F85
:100D9000F91F619371930297998388833CC0809176
:100DA000800290918102892B41F4809108019091F9
:100DB0000901909381028093800240910A01509131
:100DC0000B014115510541F44DB75EB78091060105
:100DD00090910701481B590B2091800230918102AC
:100DE00024173507B0F4CA01821B930B86179707A7
:100DF00080F0AB014E5F5F4F8417950750F0420FB4
:100E0000531F5093810240938002F90161937193C3
:100E100002C0E0E0F0E0CF01DF91CF911F910F9190
:100E20000895CF93DF939C01009709F48FC0EC01E4
:100E300022971B821A82609182027091830261154F
:100E4000710581F488819981820F931F209180021E
:100E5000309181022817390739F5D0938102C09368
:100E6000800274C0DB0140E050E0AC17BD0708F120
:100E7000BB83AA83FE0121913191E20FF31FAE17CC
:100E8000BF0779F48D919C911197280F391F2E5F20
:100E90003F4F3983288312968D919C9113979B83A2
:100EA0008A834115510571F4D0938302C093820265
:100EB0004DC012968D919C911397AD01009711F042
:100EC000DC01D3CFDA011396DC93CE931297FA01AB
:100ED00021913191E20FF31FCE17DF0769F488816A
:100EE0009981280F391F2E5F3F4FFA0131832083EC
:100EF0008A819B8193838283E0E0F0E0DB0112969C
:100F00008D919C911397009719F0BC01FD01F6CFCC
:100F1000AB014E5F5F4FDB018D919C91840F951F5C
:100F200020918002309181022817390779F4309797
:100F300029F4109283021092820202C0138212825C
:100F4000425050405093810240938002DF91CF91F4
:100F500008956F927F928F929F92AF92BF92CF929D
:100F6000DF92EF92FF920F931F93CF93DF938C0149
:100F7000009729F4CB010E9474068C01BBC08EEF50
:100F8000E82E8FEFF82EE00EF11E4801860E971E18
:100F90008E149F0408F4ACC0D7014D915C91119759
:100FA00046175707B8F04530510508F4A3C0CA01E9
:100FB00004978617970708F49DC042505040461B7F
:100FC000570BF401419351936D937C93CF010E9491
:100FD000110790C05B01A41AB50A3801640E751E92
:100FE000A0918202B0918302E0E0F0E0CC24DD2405
:100FF00047C0A615B705A9F5CD91DC911197CE0193
:1010000002968A159B0568F1CE018A199B09029602
:1010100012962C91129713963C91059758F0F40173
:1010200022833383CA19DB09D183C083D7016D932F
:101030007C9309C04E5F5F4F4C0F5D1FF7015183DA
:101040004083C901FC01C114D10431F0D6011396CB
:10105000FC93EE9312974EC0F0938302E0938202CA
:1010600049C08D919C911197E817F90708F4FC018C
:101070006D0112968C91129713969C919C01D90147
:10108000109709F0B6CF8091800290918102861569
:101090009705E9F4E617F707D0F420910A0130919B
:1010A0000B012115310541F42DB73EB780910601A2
:1010B00090910701281B390B82169306C8F4909271
:1010C000810280928002F7017183608313C0CB019B
:1010D0000E947406EC01009759F0D7014D915C9184
:1010E000B8010E947600C8010E9411078E0102C05B
:1010F00000E010E0C801DF91CF911F910F91FF90A8
:10110000EF90DF90CF90BF90AF909F908F907F90A7
:101110006F90089597FB092E07260AD077FD04D01B
:101120002ED006D000201AF4709561957F4F089557
:10113000F6F7909581959F4F0895A1E21A2EAA1B6C
:10114000BB1BFD010DC0AA1FBB1FEE1FFF1FA21777
:10115000B307E407F50720F0A21BB30BE40BF50B74
:10116000661F771F881F991F1A9469F760957095FD
:10117000809590959B01AC01BD01CF010895AA1BFC
:10118000BB1B51E107C0AA1FBB1FA617B70710F072
:10119000A61BB70B881F991F5A95A9F780959095A4
:1011A000BC01CD010895EE0FFF1F0590F491E02DD5
:1011B000099410E0C0E9D0E004C0FE010E94D50807
:0C11C0002296C239D107C9F7F894FFCF7E
:1011CC0000544553540080008402000000000000CD
:0C11DC000004F4049303C703A703F0030E
:00000001FF
