:100000000C9462000C948A000C948A000C948A0070
:100010000C948A000C948A000C948A000C948A0038
:100020000C948A000C948A000C948A000C948A0028
:100030000C948A000C948A000C948A000C948A0018
:100040000C942F010C948A000C94CE020C94200383
:100050000C948A000C948A000C948A000C948A00F8
:100060000C948A000C948A000000000024002700F1
:100070002A0000000000250028002B0000000000DE
:1000800023002600290004040404040404040202DA
:100090000202020203030303030301020408102007
:1000A0004080010204081020010204081020000012
:1000B0000007000201000003040600000000000029
:1000C0000000880411241FBECFEFD8E0DEBFCDBFF3
:1000D00011E0A0E0B1E0ECEEFBE002C005900D9273
:1000E000A231B107D9F711E0A2E1B1E001C01D9240
:1000F000AD3CB107E1F710E0C4ECD0E004C02297BA
:10010000FE010E94F005C23CD107C9F70E94DF043E
:100110000C94F4050C9400000BC08BEA91E061E4B0
:100120000E941A056CE271E080E090E00E94740188
:100130008BEA91E00E94D9031816190674F7089506
:100140008BEA91E040E855E260E070E00E945B03DA
:100150008BEA91E00E9486048823D1F382E060E07C
:100160000E943B020E948C000895AF92BF92CF92F2
:10017000DF92EF92FF920F931F938BEA91E00E9420
:10018000D903181619060CF061C08BEA91E00E94A1
:100190000D0490931901809318018EE00E941902BA
:1001A00064E070E00E948A0570931301609312016D
:1001B0006AE070E080E090E00E94740181E00E94BB
:1001C000190264E070E00E948A0570931501609343
:1001D000140182E00E947A0200D000D0AA2797FD85
:1001E000A095BA2F2FEF30E040E050E0EDB7FEB71A
:1001F0002183328343835483BC01CD0120E030E06E
:1002000040E050E0E1E0EE2EF12C012D112DAA246A
:10021000BB2465010E9422057093170160931601AB
:100220000F900F900F900F908BEA91E06091120168
:100230000E9446048BEA91E0609114010E944604FA
:100240008BEA91E0609116010E9446041F910F9184
:10025000FF90EF90DF90CF90BF90AF9008951F92E6
:100260000F920FB60F9211242F933F938F939F936A
:10027000AF93BF9380911E0190911F01A091200127
:10028000B091210130912201232F2A592D3720F0DE
:100290002D570196A11DB11D2093220180931E01AF
:1002A00090931F01A0932001B093210180911A0126
:1002B00090911B01A0911C01B0911D010196A11DFF
:1002C000B11D80931A0190931B01A0931C01B09360
:1002D0001D01BF91AF919F918F913F912F910F90F1
:1002E0000FBE0F901F901895EF92FF920F931F93E0
:1002F0007B018C019FB7F89420911A0130911B016A
:1003000040911C0150911D0186B5A89B06C08F3FEE
:1003100021F02F5F3F4F4F4F5F4F9FBF542F432F11
:10032000322F2227280F311D411D511DDA01C9012D
:10033000880F991FAA1FBB1F820F931FA41FB51FF1
:10034000BC0132C09FB7F89420911A0130911B0173
:1003500040911C0150911D0186B5A89B06C08F3F9E
:1003600021F02F5F3F4F4F4F5F4F9FBF542F432FC1
:10037000322F2227280F311D411D511DDA01C901DD
:10038000880F991FAA1FBB1F820F931FA41FB51FA1
:10039000861B970B885E9340A8F20894E108F10849
:1003A0000109110968517C4FE114F104010511059F
:1003B00049F61F910F91FF90EF900895789484B5BE
:1003C000826084BD84B5816084BD85B5826085BD51
:1003D00085B5816085BDEEE6F0E080818160808337
:1003E000E1E8F0E01082808182608083808181601A
:1003F0008083E0E8F0E0808181608083E1EBF0E0E1
:10040000808184608083E0EBF0E080818160808384
:10041000EAE7F0E08081846080838081826080836D
:100420008081816080838081806880831092C10098
:100430000895982F8E3008F09E509770809100019B
:100440008295880F880F807C892B80937C00809117
:100450007A00806480937A0080917A0086FDFCCFD8
:100460002091780040917900942F80E030E0282B93
:10047000392BC9010895CF93DF93482F50E0CA016B
:1004800086569F4FFC0134914A575F4FFA01849181
:10049000882369F190E0880F991FFC01E859FF4F0C
:1004A000A591B491FC01EE58FF4FC591D4916623FC
:1004B00051F42FB7F8948C91932F909589238C93B6
:1004C000888189230BC0623061F42FB7F8948C9136
:1004D000932F909589238C938881832B88832FBFBA
:1004E00006C09FB7F8948C91832B8C939FBFDF91AC
:1004F000CF910895682F70E0CB0182559F4FFC018A
:100500002491CB0186569F4FFC0144916A577F4F3F
:10051000FB019491992319F420E030E03CC02223A0
:1005200051F1233071F0243028F42130A1F0223031
:1005300011F514C02630B1F02730C1F02430D9F4C1
:1005400004C0809180008F7703C0809180008F7DF0
:100550008093800010C084B58F7702C084B58F7DF2
:1005600084BD09C08091B0008F7703C08091B00036
:100570008F7D8093B000892F90E0880F991F845859
:100580009F4FFC01A591B4918C9120E030E0842331
:1005900011F021E030E0C901089508951F920F92F3
:1005A0000FB60F9211242F933F934F938F939F93E6
:1005B000EF93FF938091C00082FD1DC04091C60063
:1005C00020916301309164012F5F3F4F2F73307092
:1005D00080916501909166012817390771F0E091CB
:1005E0006301F0916401ED5DFE4F4083309364013F
:1005F0002093630102C08091C600FF91EF919F910B
:100600008F914F913F912F910F900FBE0F901F90A0
:100610001895E091B701F091B801E05CFF4F81912E
:10062000919120813181805C9F4F821B930B60E40C
:1006300070E00E948A05892B11F00E94CD02089576
:100640001F920F920FB60F9211242F933F938F9307
:100650009F93EF93FF932091A7013091A801809180
:10066000A9019091AA012817390731F48091C1009E
:100670008F7D8093C10014C0E091A901F091AA017F
:10068000E959FE4F20818091A9019091AA0101961C
:100690008F7390709093AA018093A9012093C60054
:1006A000FF91EF919F918F913F912F910F900FBEEE
:1006B0000F901F901895AF92BF92DF92EF92FF922A
:1006C0000F931F93CF93DF93EC017A018B01DD240D
:1006D000D39491E0A92EB12CEC89FD89DD2069F03D
:1006E000C50108A002C0880F991F0A94E2F7808311
:1006F00060E47BE48CE490E005C0108260EA75E27F
:1007000086E290E0A80197010E949D0521503040AB
:1007100040405040569547953795279580E12030C9
:10072000380720F0DD2011F0DD24D6CFE889F989E3
:100730003083EA89FB89208319A2EE89FF894081F1
:1007400021E030E0C9010C8C02C0880F991F0A9487
:10075000E2F7482B4083EE89FF894081C9010D8C67
:1007600002C0880F991F0A94E2F7482B4083EE8954
:10077000FF894081C9010E8C02C0880F991F0A941D
:10078000E2F7482B4083EE89FF8980810F8C02C0FD
:10079000220F331F0A94E2F7209528232083DF914C
:1007A000CF911F910F91FF90EF90DF90BF90AF908E
:1007B0000895DC011C96ED91FC911D97E05CFF4FC4
:1007C0008191919120813181805C9F4F821B930B9D
:1007D00060E470E00E948A050895DC011C96ED91AA
:1007E000FC911D97E05CFF4F20813181E054F04087
:1007F000DF01AE5BBF4F8D919C9111972817390790
:1008000019F42FEF3FEF07C08D919C91E80FF91F6E
:100810008081282F30E0C9010895DC011C96ED91FC
:10082000FC911D97E05CFF4F20813181E054F04046
:10083000DF01AE5BBF4F8D919C911197281739074F
:1008400019F42FEF3FEF10C08D919C911197E80F95
:10085000F91F20818D919C91119701968F73907053
:1008600011969C938E9330E0C9010895DC01919616
:100870008C919197882339F05496ED91FC9155977E
:10088000808186FFF9CF91961C920895CF93DF93D4
:10089000EC01EE85FF85E05CFF4F20813181E05463
:1008A000F0402F5F3F4F2F733070DF01AE5BBF4FC3
:1008B0008D919C91119728173907D1F3E05CFF4F78
:1008C00080819181E054F040E80FF91F6083EE854C
:1008D000FF85E05CFF4F31832083EE89FF89208113
:1008E00081E090E00F8C02C0880F991F0A94E2F714
:1008F000282B208381E089A3EC89FD898081806495
:10090000808381E090E0DF91CF91089581E00895A8
:100910001092AE011092AD0188EE93E0A0E0B0E03D
:100920008093AF019093B001A093B101B093B20155
:1009300085E091E09093AC018093AB0183E291E07C
:100940009093B8018093B70187E691E09093BA0144
:100950008093B90185EC90E09093BC018093BB013A
:1009600084EC90E09093BE018093BD0180EC90E018
:100970009093C0018093BF0181EC90E09093C201FD
:100980008093C10182EC90E09093C4018093C301F5
:1009900086EC90E09093C6018093C50184E080933B
:1009A000C70183E08093C80187E08093C90185E097
:1009B0008093CA0181E08093CB0108950895CF937D
:1009C000DF930E94DE010E94DE040E94A000C9E0C5
:1009D000D3E00E94B5002097E1F30E940903F9CF0C
:1009E000CF92DF92EF92FF920F931F93CF93DF93FB
:1009F0007C016B018A01C0E0D0E00FC0D6016D918F
:100A00006D01D701ED91FC910190F081E02DC701BE
:100A10000995C80FD91F015010400115110571F734
:100A2000CE01DF91CF911F910F91FF90EF90DF905A
:100A3000CF900895DC01ED91FC910190F081E02DC3
:100A4000099508952F923F924F925F926F927F92F5
:100A50008F929F92AF92BF92CF92DF92EF92FF92CE
:100A60000F931F93DF93CF93CDB7DEB73B014C01BC
:100A700019012A016D897E898F89988D6A197B09F0
:100A80008C099D09621A730A840A950AA4019301CC
:100A90000E946B05E218F30804091509A8019701E3
:100AA0000E94BF052A0D3B1D4C1D5D1DB901CA01E9
:100AB000CF91DF911F910F91FF90EF90DF90CF903A
:100AC000BF90AF909F908F907F906F905F904F906E
:100AD0003F902F900895629FD001739FF001829FF5
:100AE000E00DF11D649FE00DF11D929FF00D839FBD
:100AF000F00D749FF00D659FF00D9927729FB00D5A
:100B0000E11DF91F639FB00DE11DF91FBD01CF016C
:100B10001124089597FB092E07260AD077FD04D0EB
:100B200049D006D000201AF4709561957F4F089542
:100B3000F6F7909581959F4F0895A1E21A2EAA1B72
:100B4000BB1BFD010DC0AA1FBB1FEE1FFF1FA2177D
:100B5000B307E407F50720F0A21BB30BE40BF50B7A
:100B6000661F771F881F991F1A9469F76095709503
:100B7000809590959B01AC01BD01CF01089597FB35
:100B8000092E05260ED057FD04D0D7DF0AD0001C51
:100B900038F450954095309521953F4F4F4F5F4F1A
:100BA0000895F6F790958095709561957F4F8F4FDA
:100BB0009F4F0895AA1BBB1B51E107C0AA1FBB1F73
:100BC000A617B70710F0A61BB70B881F991F5A95D9
:100BD000A9F780959095BC01CD010895EE0FFF1FF8
:0C0BE0000590F491E02D0994F894FFCFEB
:100BEC0001000000004604F004D9030D04ED0336A7
:020BFC000400F3
:00000001FF
