:100000000C9463000C948B000C948B000C948B006C
:100010000C948B000C948B000C948B000C948B0034
:100020000C948B000C948B000C948B000C948B0024
:100030000C948B000C948B000C948B000C948B0014
:100040000C9472050C948B000C9480070C94D207CE
:100050000C948B000C948B000C948B000C948B00F4
:100060000C948B000C948B000000000024002700EF
:100070002A0000000000250028002B0000000000DE
:1000800023002600290004040404040404040202DA
:100090000202020203030303030301020408102007
:1000A0004080010204081020010204081020000012
:1000B0000007000201000003040600000000000029
:1000C0000000F400380911241FBECFEFD8E0DEBFD6
:1000D000CDBF12E0A0E0B1E0E0EBFCE102C0059092
:1000E0000D92A633B107D9F713E0A6E3B2E001C041
:1000F0001D92A433B107E1F710E0C6ECD0E004C0D4
:100100002297FE010E94520EC23CD107C9F70E94FD
:100110008F090C94560E0C9400000F931F93CF93ED
:10012000DF93EC018B01DB018D919C918C179D0776
:1001300024F0FA016081718151C081E090E0821B5E
:100140009109880F991FAA27BB27A81BB90BF80193
:10015000EA0FFB1F80819181C817D90714F421E0B1
:1001600004C0A40FB51F14C02F5FA22FB0E0CD01B3
:10017000880F991FF801E80FF91F608171816C17D2
:100180007D0794F3840F951FC617D70721F4DC0170
:100190006D917C9123C0FD013197EE0FFF1F0E0F73
:1001A0001F1FD8012D913C91E40FF51F0190F081A4
:1001B000E02DDC018D919C918E1B9F0BC21BD30BFC
:1001C000621B730B9C012C9FC0012D9F900D3C9FC7
:1001D000900D11240E94070E6E0F7F1FCB01DF913F
:1001E000CF911F910F910895AF92BF92CF92DF925E
:1001F000EF92FF920F931F9300D000D000D0E090B9
:100200001902F0901A0200911B0210911C02A0909A
:100210001D02B0901E02C0901F02D090200280915B
:10022000210290912202A0912302B0912402EDB705
:10023000FEB781839283A383B4831682158288E4F8
:1002400092E06CE372E040E452E024E432E00E9489
:10025000DD048DB79EB706960FB6F8949EBF0FBE0D
:100260008DBF1F910F91FF90EF90DF90CF90BF90C7
:10027000AF9008950F931F9302E113E0C80140E08F
:1002800052EC61E070E00E940D0868EE73E080E0DF
:1002900090E00E94C505C80160E071E00E94B60BC5
:1002A00060ED77E080E090E00E94C505C80160E263
:1002B00071E00E94B60B80E090E0A8E4B3E4809384
:1002C000440290934502A0934602B093470288E40B
:1002D00092E061E070E00E946D031F910F9108951C
:1002E000DF92EF92FF920F931F93CF93DF937C01E6
:1002F000D62E109237021092360200E010E011C0A4
:100300008D2D0E946A06C80FD91FD0933702C09363
:10031000360261E070E080E090E00E94C5050F5F6A
:100320001F4FC0913602D09137020E151F0544F3BE
:10033000CE01B7010E94070ECB0160933602909365
:100340003702DF91CF911F910F91FF90EF90DF90D7
:10035000089580E190E06EE070E00E94700190935B
:1003600039028093380261E571E045EB51E022E308
:100370000E948D0080933A0290933B020895EF9281
:10038000FF920F931F930E94B705AB01BC0102E1DE
:1003900013E0C8012AE030E00E946A0A0E94A90125
:1003A000AA2797FDA095BA2FBC01CD010E94CD0CC4
:1003B00060933C0270933D0280933E0290933F0213
:1003C00071E4E72E71E0F72EC801B7010E94B90A67
:1003D00040913C0250913D0260913E0270913F027B
:1003E000C80122E030E00E94A00B88E492E00E9465
:1003F000BF0360914002709141028091420290914E
:1004000043020E949A0C9B01AC018AE0B9010E9450
:100410008C06C801B7010E94B90A40914002509170
:1004200041026091420270914302C80122E030E033
:100430000E94A30B6AEF70E080E090E00E94C50587
:100440001F910F91FF90EF9008952F923F924F923E
:100450005F926F927F928F929F92AF92BF92CF9254
:10046000DF92EF92FF920F931F93DF93CF9300D011
:1004700000D0CDB7DEB71C0149835A836B837C83E0
:100480004801590126013701CB01BA0120E030E0D3
:1004900040E050E00E942E0C87FD8CC0C501B401E5
:1004A00020E030E040E050E00E942E0C87FD82C04A
:1004B000C701B60120E030E040E050E00E942E0C81
:1004C00087FD78C089819A81AB81BC81F1018083ED
:1004D0009183A283B383D10114968D929D92AD92A4
:1004E000BC921797C086D186E286F38664A575A56F
:1004F00086A597A50E94CB0C20E030E04AE754E4A3
:100500000E94320C7B018C0189819A81AB81BC8174
:10051000F10184879587A687B787C501B401A80133
:1005200097010E94810D5B016C01D10150966D9382
:100530007D938D939C935397C301B201A8019701BA
:100540000E94320C7B018C01F101648B758B868BD0
:10055000978B808D918D019769F560E070E080E068
:1005600090E029813A814B815C810E94C90BD101C5
:100570001C966D937D938D939C931F9760E070E024
:1005800080E090E0A60195010E94C90BF101608B0B
:10059000718B828B938B60E070E080E090E0A8012B
:1005A00097010E94C90BD10154966D937D938D9351
:1005B0009C9357970F900F900F900F90CF91DF91D2
:1005C0001F910F91FF90EF90DF90CF90BF90AF9071
:1005D0009F908F907F906F905F904F903F902F9063
:1005E00008954F925F926F927F928F929F92AF92F7
:1005F000BF92CF92DF92EF92FF920F931F93CF9310
:10060000DF93EC013A014B0178018901CB01BA017A
:10061000A80197010E947D0D87FF4EC068AA79AAA4
:100620008AAA9BAAECAAFDAA0EAB1FAB88AD8823B1
:1006300009F442C04C8C5D8CF201A080B180C28074
:10064000D380C601B501A80197010E947D0D18163F
:1006500034F4F201E082F182028313830DC0C601FB
:10066000B501A40193010E942E0C88232CF4F20101
:100670006082718282829382ACA0BDA0CEA0DFA0F6
:10068000ECA8FDA80EA91FA9C601B501A8019701F4
:100690000E947D0D181664F0E8A8F9A80AA91BA904
:1006A000C601B501A80197010E942E0C882324F4ED
:1006B000ECA2FDA20EA31FA3DF91CF911F910F917A
:1006C000FF90EF90DF90CF90BF90AF909F908F9072
:1006D0007F906F905F904F9008959F92AF92BF92DE
:1006E000CF92DF92EF92FF920F931F93CF93DF93FE
:1006F000EC01992461307105A9F59924939488AD92
:10070000882381F5EC8DFD8DE080F18002811381DD
:10071000ECA2FDA20EA31FA3EA8DFB8D8081918127
:10072000A281B38188A799A7AAA7BBA7ACA8BDA897
:10073000CEA8DFA8C801B701A60195010E947D0DD2
:10074000181664F0A8A8B9A8CAA8DBA8C801B70100
:10075000A60195010E942E0C882324F4ACA2BDA210
:10076000CEA2DFA298AEDF91CF911F910F91FF90A3
:10077000EF90DF90CF90BF90AF909F9008952F9211
:100780003F924F925F926F927F928F929F92AF9221
:10079000BF92CF92DF92EF92FF920F931F93DF935E
:1007A000CF9300D000D000D0CDB7DEB79E838D832D
:1007B000DC01D8968C91882309F4E5C00E94B70526
:1007C00069837A838B839C83ED81FE8180A191A1D3
:1007D000A2A1B3A129813A814B815C81281B390BED
:1007E0004A0B5B0B84A595A5A6A5B7A528173907C5
:1007F0004A075B0708F4C7C0028CF38DE02D208008
:10080000318042805380AD81BE815E96ED91FC9136
:100810005F976081718182819381A20191010E9421
:10082000C90B3B014C01ED81FE8120893189428950
:1008300053890E94810DAD81BE8194962D913D9189
:100840004D915C9197970E94CA0B7B018C01ED81C1
:10085000FE8164A375A386A397A3A4A8B5A8C6A880
:10086000D7A8A60195010E947D0D181674F0ED81A0
:10087000FE81A0A8B1A8C2A8D3A8C801B701A6014B
:1008800095010E942E0C882344F4AD81BE8194967C
:10089000AD92BD92CD92DC929797C401B301ED81E8
:1008A000FE8124853585468557850E94810DAD8161
:1008B000BE8194962D913D914D915C9197970E94A8
:1008C000CA0B7B018C01C201B101ED81FE8120A523
:1008D00031A542A553A50E94C90BAD81BE81549696
:1008E0002D913D914D915C9157970E94810D9B01F7
:1008F000AC01C801B7010E94C90B7B018C01ED81DD
:10090000FE81D4A8C5A8B6A8A7A82D2D3C2D4B2D97
:100910005A2D0E947D0D1816BCF0AD81BE81D09677
:10092000DC90D097D196CC90D197D296BC90D297AC
:10093000D396AC90C801B7012D2D3C2D4B2D5A2DCF
:100940000E942E0C882334F48D2D9C2DAB2DBA2DB6
:100950007C018D01AD81BE815C96ED91FC915D972E
:10096000E082F18202831383FD0120A631A642A614
:1009700053A689819A81AB81BC8180A391A3A2A354
:10098000B3A381E001C080E026960FB6F894DEBFE5
:100990000FBECDBFCF91DF911F910F91FF90EF90D0
:1009A000DF90CF90BF90AF909F908F907F906F908F
:1009B0005F904F903F902F9008954F925F926F926B
:1009C0007F928F929F92AF92BF92CF92DF92EF92DF
:1009D000FF920F931F93DF93CF93CDB7DEB74C01F8
:1009E00027013801EF88F88CFC01558F448F738FF5
:1009F000628F378F268F10AE40E050E060E070E0ED
:100A000000E010E02FE733E40E94F10284E690E07A
:100A1000A0E0B0E0F40184A795A7A6A7B7A780AD92
:100A2000882391F1808D918DE816F90669F160E0D7
:100A300070E080E090E024853585468557850E94EA
:100A4000C90BF401648775878687978760E070E03B
:100A500080E090E020893189428953890E94C90B46
:100A6000F401608B718B828B938B60E070E080E08F
:100A700090E024893589468957890E94C90BF40181
:100A8000648B758B868B978BF401F18EE08EC4019D
:100A9000B301A20196018501CB88DC88ED88FE8830
:100AA0000E9425020E94B705F40124A535A546A59C
:100AB00057A5621B730B840B950B60A371A382A3D4
:100AC00093A3CF91DF911F910F91FF90EF90DF9053
:100AD000CF90BF90AF909F908F907F906F905F90DE
:100AE0004F9008951F920F920FB60F9211242F93DB
:100AF0003F938F939F93AF93BF9380918502909183
:100B00008602A0918702B091880230918902232F3A
:100B10002A592D3720F02D570196A11DB11D209384
:100B200089028093850290938602A0938702B093F6
:100B300088028091810290918202A0918302B091FB
:100B400084020196A11DB11D8093810290938202BF
:100B5000A0938302B0938402BF91AF919F918F9134
:100B60003F912F910F900FBE0F901F9018958FB748
:100B7000F89420918502309186024091870250912D
:100B800088028FBFB901CA010895EF92FF920F93B7
:100B90001F937B018C019FB7F894209181023091C3
:100BA0008202409183025091840286B5A89B06C0C0
:100BB0008F3F21F02F5F3F4F4F4F5F4F9FBF542F0D
:100BC000432F322F2227280F311D411D511DDA01DD
:100BD000C901880F991FAA1FBB1F820F931FA41F53
:100BE000B51FBC0132C09FB7F894209181023091AB
:100BF0008202409183025091840286B5A89B06C070
:100C00008F3F21F02F5F3F4F4F4F5F4F9FBF542FBC
:100C1000432F322F2227280F311D411D511DDA018C
:100C2000C901880F991FAA1FBB1F820F931FA41F02
:100C3000B51F861B970B885E9340A8F20894E108C5
:100C4000F1080109110968517C4FE114F104010513
:100C5000110549F61F910F91FF90EF900895789438
:100C600084B5826084BD84B5816084BD85B58260B1
:100C700085BD85B5816085BDEEE6F0E0808181604F
:100C80008083E1E8F0E0108280818260808380814F
:100C900081608083E0E8F0E0808181608083E1EB27
:100CA000F0E0808184608083E0EBF0E0808181600F
:100CB0008083EAE7F0E080818460808380818260C5
:100CC00080838081816080838081806880831092AE
:100CD000C1000895982F8E3008F09E509770809133
:100CE00025028295880F880F807C892B80937C0059
:100CF00080917A00806480937A0080917A0086FDEA
:100D0000FCCF2091780040917900942F80E030E072
:100D1000282B392BC90108951F93CF93DF93182FE8
:100D2000EB0161E00E94EC06209709F44AC0CF3F36
:100D3000D10509F449C0E12FF0E0E255FF4F84915D
:100D40008330C1F0843028F4813051F08230B1F525
:100D50000CC0863019F1873049F1843079F514C020
:100D600084B5806884BDC7BD33C084B5806284BD4E
:100D7000C8BD2EC080918000806880938000D09391
:100D80008900C093880024C0809180008062809395
:100D90008000D0938B00C0938A001AC08091B0006D
:100DA00080688093B000C093B30012C08091B000FF
:100DB00080628093B000C093B4000AC0C038D105EF
:100DC0001CF4812F60E002C0812F61E00E942B079C
:100DD000DF91CF911F910895CF93DF93482F50E07B
:100DE000CA0186569F4FFC0134914A575F4FFA0162
:100DF0008491882369F190E0880F991FFC01E859DC
:100E0000FF4FA591B491FC01EE58FF4FC591D491CD
:100E1000662351F42FB7F8948C91932F90958923E2
:100E20008C93888189230BC0623061F42FB7F894CA
:100E30008C91932F909589238C938881832B888321
:100E40002FBF06C09FB7F8948C91832B8C939FBFC4
:100E5000DF91CF910895482F50E0CA0182559F4FEE
:100E6000FC012491CA0186569F4FFC0194914A5778
:100E70005F4FFA013491332309F440C0222351F12A
:100E8000233071F0243028F42130A1F0223011F504
:100E900014C02630B1F02730C1F02430D9F404C09A
:100EA000809180008F7703C0809180008F7D809338
:100EB000800010C084B58F7702C084B58F7D84BD5B
:100EC00009C08091B0008F7703C08091B0008F7D02
:100ED0008093B000E32FF0E0EE0FFF1FEE58FF4FBE
:100EE000A591B4912FB7F894662321F48C91909535
:100EF000892302C08C91892B8C932FBF089508956C
:100F00001F920F920FB60F9211242F933F934F937E
:100F10008F939F93EF93FF938091C00082FD1DC03C
:100F20004091C6002091CA023091CB022F5F3F4F03
:100F30002F7330708091CC029091CD022817390721
:100F400071F0E091CA02F091CB02E657FD4F408369
:100F50003093CB022093CA0202C08091C600FF9159
:100F6000EF919F918F914F913F912F910F900FBED5
:100F70000F901F901895E0911E03F0911F03E05C05
:100F8000FF4F8191919120813181805C9F4F821B25
:100F9000930B60E470E00E94070E892B11F00E9411
:100FA0007F0708951F920F920FB60F9211242F936F
:100FB0003F938F939F93EF93FF9320910E03309174
:100FC0000F0380911003909111032817390731F412
:100FD0008091C1008F7D8093C10014C0E091100307
:100FE000F0911103E253FD4F208180911003909105
:100FF000110301968F7390709093110380931003E7
:101000002093C600FF91EF919F918F913F912F9177
:101010000F900FBE0F901F901895AF92BF92DF9266
:10102000EF92FF920F931F93CF93DF93EC017A011E
:101030008B01DD24D39491E0A92EB12CEC89FD899C
:10104000DD2069F0C50108A002C0880F991F0A942D
:10105000E2F7808360E47BE48CE490E005C01082DA
:1010600060EA75E286E290E0A80197010E941A0EFC
:101070002150304040405040569547953795279530
:1010800080E12030380720F0DD2011F0DD24D6CFBC
:10109000E889F9893083EA89FB89208319A2EE89DE
:1010A000FF89408121E030E0C9010C8C02C0880F2B
:1010B000991F0A94E2F7482B4083EE89FF8940810B
:1010C000C9010D8C02C0880F991F0A94E2F7482BC2
:1010D0004083EE89FF894081C9010E8C02C0880FD0
:1010E000991F0A94E2F7482B4083EE89FF8980819B
:1010F0000F8C02C0220F331F0A94E2F72095282399
:101100002083DF91CF911F910F91FF90EF90DF909F
:10111000BF90AF900895DC011C96ED91FC911D9756
:10112000E05CFF4F8191919120813181805C9F4FE4
:10113000821B930B60E470E00E94070E0895DC01AF
:101140001C96ED91FC911D97E05CFF4F2081318151
:10115000E054F040DF01AE5BBF4F8D919C91119741
:101160002817390719F42FEF3FEF07C08D919C9195
:10117000E80FF91F8081282F30E0C9010895DC01B4
:101180001C96ED91FC911D97E05CFF4F2081318111
:10119000E054F040DF01AE5BBF4F8D919C91119701
:1011A0002817390719F42FEF3FEF10C08D919C914C
:1011B0001197E80FF91F20818D919C91119701964D
:1011C0008F73907011969C938E9330E0C9010895AF
:1011D000DC0191968C919197882339F05496ED918A
:1011E000FC915597808186FFF9CF91961C920895C6
:1011F000CF93DF93EC01EE85FF85E05CFF4F20810C
:101200003181E054F0402F5F3F4F2F733070DF018A
:10121000AE5BBF4F8D919C91119728173907D1F381
:10122000E05CFF4F80819181E054F040E80FF91FAE
:101230006083EE85FF85E05CFF4F31832083EE897C
:10124000FF89208181E090E00F8C02C0880F991FF8
:101250000A94E2F7282B208381E089A3EC89FD8999
:1012600080818064808381E090E0DF91CF91089558
:10127000109215031092140388EE93E0A0E0B0E002
:101280008093160390931703A0931803B093190348
:101290008AE292E090931303809312038AE892E02B
:1012A00090931F0380931E038EEC92E09093210392
:1012B0008093200385EC90E0909323038093220396
:1012C00084EC90E0909325038093240380EC90E0DD
:1012D000909327038093260381EC90E09093290359
:1012E0008093280382EC90E090932B0380932A0351
:1012F00086EC90E090932D0380932C0384E0809300
:101300002E0383E080932F0387E08093300385E0F2
:101310008093310381E08093320308950895CF9341
:10132000DF930E942F060E948E090E943A01CBEBA8
:10133000D7E00E94BF012097E1F30E94BB07F9CFDD
:10134000CF92DF92EF92FF920F931F93CF93DF9391
:101350007C016B018A01C0E0D0E00FC0D6016D9125
:101360006D01D701ED91FC910190F081E02DC70155
:101370000995C80FD91F015010400115110571F7CB
:10138000CE01DF91CF911F910F91FF90EF90DF90F1
:10139000CF900895EF92FF920F931F938C01DC0181
:1013A000ED91FC910190F081E02D6DE009957C01BB
:1013B000D801ED91FC910190F081E02DC8016AE027
:1013C00009959C012E0D3F1DC9011F910F91FF90A2
:1013D000EF900895CF93DF93EC016115710519F437
:1013E00020E030E00FC0DB010D900020E9F71197FD
:1013F000A61BB70BE881F9810280F381E02DAD01D6
:1014000009959C01C901DF91CF9108954F925F9298
:101410007F928F929F92AF92BF92CF92DF92EF9284
:10142000FF920F931F93DF93CF93CDB7DEB7A197B2
:101430000FB6F894DEBF0FBECDBF2C01742ECB01CA
:10144000223008F42AE019A231E2C32ED12CCC0EAE
:10145000DD1E822E9924AA24BB24672D752FA50199
:1014600094010E941A0E79018A01C801B701A501F1
:1014700094010E94E80D472D461B0894C108D1082D
:101480004A3014F4405D01C0495CF6014083E11428
:10149000F1040105110521F07E2C5F2DC801DDCF7F
:1014A000C201B6010E94EA09A1960FB6F894DEBF08
:1014B0000FBECDBFCF91DF911F910F91FF90EF90A5
:1014C000DF90CF90BF90AF909F908F907F905F9074
:1014D0004F900895DC012115310541F4ED91FC9107
:1014E0000190F081E02D642F099508950E94060A6D
:1014F0000895CF92DF92EF92FF920F931F93CF93B5
:10150000DF93EC016A017B012115310541F4E8818B
:10151000F9810190F081E02D642F09951FC02A30D8
:101520003105D1F477FF17C0E881F9810190F0818E
:10153000E02D6DE209958C0144275527BA014C191D
:101540005D096E097F09CE012AE00E94060A980112
:10155000280F391F04C02AE00E94060A9C01C90115
:10156000DF91CF911F910F91FF90EF90DF90CF907F
:1015700008950E94EA0908957F928F929F92AF92F8
:10158000BF92CF92DF92EF92FF920F931F93CF9370
:10159000DF934C017A018B01722ECB01BA01A801B5
:1015A00097010E94E40D882321F0C40163E471E0F7
:1015B00021C0C0E0D0E057016801E894D7F8C60127
:1015C000B5012FEF3FEF4FE75FE70E94E40D88235F
:1015D00051F4C601B5012FEF3FEF4FE75FE70E94DF
:1015E0002E0C181614F0C1E0D0E0219739F0C40198
:1015F00067E471E00E94EA09EC0193C0C801B701F9
:101600002FEF3FEF4FE75FE40E947D0D181654F077
:10161000C801B7012FEF3FEF4FE75FEC0E942E0CA0
:10162000882324F4C4016BE471E0E4CFC801B7015E
:1016300020E030E040E050E00E942E0C87FD03C027
:10164000C0E0D0E00EC0D401ED91FC910190F0819A
:10165000E02DC4016DE20995EC0117FB109517F917
:10166000109520E030E040E05FE3DD240BC0CA01CC
:10167000B90120E030E040E251E40E94320C9B01CD
:10168000AC01D394D71498F3C801B7010E94CA0BD8
:101690005B016C010E949F0C7B018C01C401B801AD
:1016A000A7012AE030E00E946A0AC80FD91F7720FC
:1016B00039F0C4016FE471E00E94EA09C80FD91F34
:1016C000C801B7010E94CB0C9B01AC01C601B5015A
:1016D0000E94C90B24C020E030E040E251E40E94A7
:1016E000810D7B018C010E949A0C5B016C01CC2462
:1016F000B7FCC094DC2CC401B601A5012AE030E09F
:101700000E94790AC80FD91FC601B5010E94CD0CED
:101710009B01AC01C801B7010E94C90B7A947720E4
:10172000D1F6CE01DF91CF911F910F91FF90EF90F5
:10173000DF90CF90BF90AF909F908F907F90089553
:101740000E94BC0A0895EF92FF920F931F937C01B1
:101750000E94BC0A8C01C7010E94CA09080F191F08
:10176000C8011F910F91FF90EF900895EF92FF92A3
:101770000F931F937C010E94EA098C01C7010E940C
:10178000CA09080F191FC8011F910F91FF90EF9010
:1017900008955058BB27AA270ED075C166D130F0E6
:1017A0006BD120F031F49F3F11F41EF45BC10EF4B5
:1017B000E095E7FB51C1E92F77D180F3BA176207B3
:1017C00073078407950718F071F49EF58FC10EF426
:1017D000E0950B2EBA2FA02D0B01B90190010C0141
:1017E000CA01A0011124FF27591B99F0593F50F459
:1017F000503E68F11A16F040A22F232F342F4427B1
:10180000585FF3CF469537952795A795F0405395A8
:10181000C9F77EF41F16BA0B620B730B840BBAF078
:101820009150A1F0FF0FBB1F661F771F881FC2F7E3
:101830000EC0BA0F621F731F841F48F487957795F7
:101840006795B795F7959E3F08F0B3CF9395880FAE
:1018500008F09927EE0F979587950895D9D008F449
:1018600081E008950CD00FC107D140F0FED030F0D8
:1018700021F45F3F19F0F0C0511139C1F3C014D108
:1018800098F39923C9F35523B1F3951B550BBB2747
:10189000AA2762177307840738F09F5F5F4F220FF4
:1018A000331F441FAA1FA9F333D00E2E3AF0E0E8ED
:1018B00030D091505040E695001CCAF729D0FE2F39
:1018C00027D0660F771F881FBB1F261737074807CB
:1018D000AB07B0E809F0BB0B802DBF01FF27935881
:1018E0005F4F2AF09E3F510568F0B6C000C15F3FD0
:1018F000ECF3983EDCF3869577956795B795F79569
:101900009F5FC9F7880F911D9695879597F9089560
:10191000E1E0660F771F881FBB1F621773078407FC
:10192000BA0720F0621B730B840BBA0BEE1F88F70B
:10193000E095089504D06894B111D9C00895BCD041
:1019400088F09F5790F0B92F9927B751A0F0D1F0A8
:10195000660F771F881F991F1AF0BA95C9F712C032
:10196000B13081F0C3D0B1E00895C0C0672F782FA7
:101970008827B85F39F0B93FCCF38695779567959E
:10198000B395D9F73EF490958095709561957F4F0A
:101990008F4F9F4F0895E89409C097FB3EF49095B0
:1019A0008095709561957F4F8F4F9F4F9923A9F038
:1019B000F92F96E9BB279395F695879577956795C7
:1019C000B795F111F8CFFAF4BB0F11F460FF1BC00B
:1019D0006F5F7F4F8F4F9F4F16C0882311F096E99E
:1019E00011C0772321F09EE8872F762F05C066234C
:1019F00071F096E8862F70E060E02AF09A95660F05
:101A0000771F881FDAF7880F9695879597F90895BD
:101A1000990F0008550FAA0BE0E8FEEF16161706FF
:101A2000E807F907C0F012161306E407F50798F067
:101A3000621B730B840B950B39F40A2661F0232B80
:101A4000242B252B21F408950A2609F4A140A695FC
:101A50008FEF811D811D089597F99F6780E870E0E1
:101A600060E008959FEF80EC089500240A94161614
:101A7000170618060906089500240A94121613067C
:101A8000140605060895092E0394000C11F488230A
:101A900052F0BB0F40F4BF2B11F460FF04C06F5F26
:101AA0007F4F8F4F9F4F089557FD9058440F551FFC
:101AB00059F05F3F71F04795880F97FB991F61F0D0
:101AC0009F3F79F087950895121613061406551F47
:101AD000F2CF4695F1DF08C0161617061806991FB3
:101AE000F1CF86957105610508940895E894BB27A8
:101AF00066277727CB0197F908958ADF08F48FEFDF
:101B000008950BD0C0CFB1DF28F0B6DF18F09523D1
:101B100009F0A2CFA7CF1124EACFC6DFA0F3959F8B
:101B2000D1F3950F50E0551F629FF001729FBB27C4
:101B3000F00DB11D639FAA27F00DB11DAA1F649F70
:101B40006627B00DA11D661F829F2227B00DA11D23
:101B5000621F739FB00DA11D621F839FA00D611DA9
:101B6000221F749F3327A00D611D231F849F600DCA
:101B7000211D822F762F6A2F11249F5750408AF003
:101B8000E1F088234AF0EE0FFF1FBB1F661F771F8F
:101B9000881F91505040A9F79E3F510570F05CCFCF
:101BA000A6CF5F3FECF3983EDCF38695779567957B
:101BB000B795F795E7959F5FC1F7FE2B880F911DAD
:101BC0009695879597F9089523DF880B990B0895CB
:101BD000629FD001739FF001829FE00DF11D649F11
:101BE000E00DF11D929FF00D839FF00D749FF00D9D
:101BF000659FF00D9927729FB00DE11DF91F639F3E
:101C0000B00DE11DF91FBD01CF011124089597FB0F
:101C1000092E07260AD077FD04D02ED006D000204A
:101C20001AF4709561957F4F0895F6F79095819518
:101C30009F4F0895A1E21A2EAA1BBB1BFD010DC0E8
:101C4000AA1FBB1FEE1FFF1FA217B307E407F5076C
:101C500020F0A21BB30BE40BF50B661F771F881F48
:101C6000991F1A9469F760957095809590959B01DE
:101C7000AC01BD01CF010895AA1BBB1B51E107C0F8
:101C8000AA1FBB1FA617B70710F0A61BB70B881F0C
:101C9000991F5A95A9F780959095BC01CD0108959B
:101CA000EE0FFF1F0590F491E02D0994F894FFCFFB
:101CB0005374617274696E67207374657020746503
:101CC000737420696E2032207365636F6E647300D5
:101CD0005374617274696E672073746570207465E3
:101CE00073742C20736574706F696E742032303099
:101CF0000009006E616E00696E66006F7666002EE8
:101D00000001001F00290033003D00470051005B27
:101D10000065006F00790083008D009700A100AB83
:101D200000B500BF00C900DD00F100050119012D5B
:101D3000014B0169018701A501C301EB0113023BBE
:101D40000263028102A902C702EF0217032B033FBD
:101D5000036703710385039903AD03CB03D503DF49
:101D600003E903FD03AA033A01220110010201F76E
:101D700000ED00E500DD00D700D100CC00C700C3B6
:101D800000BE00BB00B700B300B000AA00A500A0D1
:101D9000009B00960090008B00850080007B007502
:101DA000006F00690064005F005A0055004F004852
:101DB00000450041003900370033002D0027001C8A
:101DC00000170011000900E5FF00000040000000BE
:101DD0003F000000400100000000F808A0098B0847
:061DE000BF089F08E8089F
:00000001FF
