:100000000C9462000C948A000C948A000C948A0070
:100010000C948A000C948A000C948A000C948A0038
:100020000C948A000C948A000C948A000C948A0028
:100030000C948A000C948A000C948A000C948A0018
:100040000C944F040C948A000C948A000C948A003F
:100050000C948A000C948A000C948A000C948A00F8
:100060000C94A0020C948A000000000024002700D9
:100070002A0000000000250028002B0000000000DE
:1000800023002600290004040404040404040202DA
:100090000202020203030303030301020408102007
:1000A0004080010204081020010204081020000012
:1000B0000007000201000003040600000000000029
:1000C0000000DD0111241FBECFEFD8E0DEBFCDBFA1
:1000D00011E0A0E0B1E0EEE5FCE002C005900D9279
:1000E000AA3DB107D9F712E0AAEDB1E001C01D9217
:1000F000AC3AB107E1F710E0C4ECD0E004C02297BD
:10010000FE010E942906C23CD107C9F70E94EF05F3
:100110000C942D060C9400000F931F93CF93DF9344
:10012000EC018B01DB018D919C918C179D0724F0D4
:10013000FA016081718151C081E090E0821B9109D8
:10014000880F991FAA27BB27A81BB90BF801EA0F34
:10015000FB1F80819181C817D90714F421E004C0E6
:10016000A40FB51F14C02F5FA22FB0E0CD01880FE0
:10017000991FF801E80FF91F608171816C177D07E5
:1001800094F3840F951FC617D70721F4DC016D91F6
:100190007C9123C0FD013197EE0FFF1F0E0F1F1F33
:1001A000D8012D913C91E40FF51F0190F081E02DD5
:1001B000DC018D919C918E1B9F0BC21BD30B621B8C
:1001C000730B9C012C9FC0012D9F900D3C9F900DA7
:1001D00011240E9400066E0F7F1FCB01DF91CF918B
:1001E0001F910F9108950F931F938EE060E00E947E
:1001F0005B0509E212E0C8016DE370E00E94740241
:10020000C80168E071E00E94D8011F910F91089524
:10021000EF92FF920F931F93E090DC01F090DD01CD
:1002200009E212E06F2D772767FD7A95C8010E94D9
:100230002502C8016E2D0E9425021F910F91FF908B
:10024000EF900895DF92EF92FF920F931F93CF9359
:10025000DF937C01D62E1092DF011092DE0100E0C8
:1002600010E011C08D2D0E943905C80FD91FD09301
:10027000DF01C093DE0161E070E080E090E00E9469
:1002800094040F5F1F4FC091DE01D091DF010E1566
:100290001F0544F3CE01B7010E940006CB01609315
:1002A000DE019093DF01DF91CF911F910F91FF90BD
:1002B000EF90DF90089580E190E06EE070E00E94A2
:1002C00022019093DB018093DA0160E071E044E663
:1002D00051E022E30E948C009093DD018093DC01C9
:1002E00064E670E080E090E00E949404089520911C
:1002F000010230E080910002281B3109C9010895F4
:100300004091000280910102481718F02FEF3FEF53
:100310000AC0E42FF0E0E052FE4F8081282F30E049
:100320004F5F40930002C9010895E091000280915F
:100330000102E81718F0EFEFFFEF06C0F0E0E0521F
:10034000FE4F8081E82FF0E0CF0108950895AC01C1
:10035000209127023091280221153105E1F090917A
:100360000002809101029817B0F090E008C0FA01F5
:10037000EA0FFB1F8081A052BE4F8C939F5FA92F75
:10038000B0E0A617B7079CF3109200026093010239
:10039000CB01F90109950895E0912502F09126021B
:1003A000309729F0109222021092230209950895A5
:1003B0007093260260932502089510922C021092E9
:1003C0002B0288EE93E0A0E0B0E080932D029093A2
:1003D0002E02A0932F02B09330028DEC91E0909307
:1003E0002A02809329020895CF92DF92EF92FF9222
:1003F0000F931F93CF93DF937C016B018A01809150
:1004000024028823A1F0C0E0D0E00DC0D701ED9117
:10041000FC91D601AC0FBD1F0190F081E02DC7010A
:100420006C9109952196C017D10780F304C0CB01C8
:10043000642F0E947B02C801DF91CF911F910F9121
:10044000FF90EF90DF90CF900895DF93CF930F92BE
:10045000CDB7DEB7FC016983809124028823C9F0FF
:1004600080912302803238F081E090E09383828390
:1004700020E030E015C080912202E82FF0E0EE5F2E
:10048000FD4F998190838F5F809322028093230296
:1004900005C0CE01019661E00E947B0221E030E0C0
:1004A000C9010F90CF91DF91089510920002109230
:1004B000010210922202109223020E943104089538
:1004C0000F931F938C01862F0E9477028CEC91E092
:1004D0000E949B0287EA91E00E949602C8010E9456
:1004E00055021F910F9108950E9460020895880F90
:1004F0008093BA000895482F613210F081E008958A
:1005000080913502843011F082E00895609380027A
:10051000AFE5B2E0842F9C01F90102C081918D9377
:100520008E2F841B8617D0F380E0089590933C02B1
:1005300080933B02089590933A0280933902089584
:100540001F920F920FB60F9211242F933F934F9348
:100550005F936F937F938F939F93AF93BF93EF932B
:10056000FF938091B90090E0887F9070803691056C
:1005700009F4F2C081369105CCF58832910509F471
:100580007BC089329105B4F48031910509F46FC0C4
:10059000813191053CF4009709F447C1089709F0AF
:1005A0004FC165C08831910509F466C0809709F094
:1005B00047C182C08034910509F4A4C081349105FB
:1005C00044F48033910509F482C0C89709F038C11A
:1005D00089C08035910509F489C08835910509F4F1
:1005E00096C08834910509F02BC1AEC088399105B9
:1005F00009F413C189399105ECF48837910509F4A0
:10060000ABC0893791054CF48836910509F4A4C034
:100610008037910509F014C19FC08838910509F40D
:10062000FCC08039910509F49DC08038910509F01E
:1006300007C198C0803B910509F4C6C0813B910574
:100640004CF4803A910509F49FC0883A910509F06D
:10065000F7C0BAC0803C910509F4E3C0883C91051D
:1006600009F4DFC0883B910509F0EAC0C2C080915F
:1006700036028093BB00CFC090915D0280915E02F4
:10068000981768F490915D02E92FF0E0E35CFD4F6C
:1006900080818093BB009F5F90935D02BCC080917E
:1006A0003702882309F44BC085ED8093BC0080910C
:1006B000BC0084FDFCCFC2C080E28093A20285ED25
:1006C0008093BC008091BC0084FDFCCFB7C080E368
:1006D0008093A20285ED8093BC008091BC0084FDD4
:1006E000FCCFACC088E38093A2029BC080915D02E6
:1006F0009091BB00E82FF0E0E35CFD4F90838F5FAB
:1007000080935D0290915D0280915E0282C0809133
:100710005D029091BB00E82FF0E0E35CFD4F908319
:100720008F5F80935D0280913702882341F085EDD1
:100730008093BC008091BC0084FDFCCF7FC081E031
:100740008093380284EA6EC085ED8093BC0080916E
:10075000BC0084FDFCCF72C083E080933502109210
:10076000A10259C08091A102803208F056C0809148
:10077000A1029091BB00E82FF0E0EF57FD4F90836E
:100780008F5F8093A10247C08091A102803230F434
:10079000E091A102F0E0EF57FD4F108285ED8093CC
:1007A000BC008091BC0084FDFCCF109235026091AA
:1007B000A102E0913B02F0913C0281E892E070E0FE
:1007C00009951092A1022DC084E080933502109209
:1007D0007F0210928002E0913902F0913A0209956D
:1007E00080918002882329F481E080938002109216
:1007F0005F0290917F02E92FF0E0E15AFD4F808186
:100800008093BB009F5F90937F0290917F028091C5
:100810008002981710F485EC01C085E88093BC0035
:100820000FC085EC8093BC0009C01092A20285ED38
:100830008093BC008091BC0084FDFCCF10923502F7
:10084000FF91EF91BF91AF919F918F917F916F91A8
:100850005F914F913F912F910F900FBE0F901F907E
:1008600018951092350281E0809337021092380279
:1008700082E161E00E949A0583E161E00E949A05AD
:10088000E9EBF0E080818E7F808380818D7F8083A3
:100890008CE58093B80085E48093BC0008951F9296
:1008A0000F920FB60F9211242F933F938F939F9324
:1008B000AF93BF938091A7029091A802A091A90243
:1008C000B091AA023091AB02232F2A592D3720F084
:1008D0002D570196A11DB11D2093AB028093A70255
:1008E0009093A802A093A902B093AA028091A302B8
:1008F0009091A402A091A502B091A6020196A11D1B
:10090000B11D8093A3029093A402A093A502B0937B
:10091000A602BF91AF919F918F913F912F910F9020
:100920000FBE0F901F901895EF92FF920F931F9399
:100930007B018C019FB7F8942091A3023091A4020F
:100940004091A5025091A60286B5A89B06C08F3F94
:1009500021F02F5F3F4F4F4F5F4F9FBF542F432FCB
:10096000322F2227280F311D411D511DDA01C901E7
:10097000880F991FAA1FBB1F820F931FA41FB51FAB
:10098000BC0132C09FB7F8942091A3023091A40219
:100990004091A5025091A60286B5A89B06C08F3F44
:1009A00021F02F5F3F4F4F4F5F4F9FBF542F432F7B
:1009B000322F2227280F311D411D511DDA01C90197
:1009C000880F991FAA1FBB1F820F931FA41FB51F5B
:1009D000861B970B885E9340A8F20894E108F10803
:1009E0000109110968517C4FE114F1040105110559
:1009F00049F61F910F91FF90EF900895789484B578
:100A0000826084BD84B5816084BD85B5826085BD0A
:100A100085B5816085BDEEE6F0E0808181608083F0
:100A2000E1E8F0E0108280818260808380818160D3
:100A30008083E0E8F0E0808181608083E1EBF0E09A
:100A4000808184608083E0EBF0E08081816080833E
:100A5000EAE7F0E080818460808380818260808327
:100A60008081816080838081806880831092C10052
:100A70000895982F8E3008F09E5097708091C8018D
:100A80008295880F880F807C892B80937C008091D1
:100A90007A00806480937A0080917A0086FDFCCF92
:100AA0002091780040917900942F80E030E0282B4D
:100AB000392BC9010895CF93DF93482F50E0CA0125
:100AC00086569F4FFC0134914A575F4FFA0184913B
:100AD000882369F190E0880F991FFC01E859FF4FC6
:100AE000A591B491FC01EE58FF4FC591D4916623B6
:100AF00051F42FB7F8948C91932F909589238C9370
:100B0000888189230BC0623061F42FB7F8948C91EF
:100B1000932F909589238C938881832B88832FBF73
:100B200006C09FB7F8948C91832B8C939FBFDF9165
:100B3000CF910895482F50E0CA0182559F4FFC0184
:100B40002491CA0186569F4FFC0194914A575F4FEA
:100B5000FA013491332309F440C0222351F12330A8
:100B600071F0243028F42130A1F0223011F514C0A6
:100B70002630B1F02730C1F02430D9F404C0809180
:100B800080008F7703C0809180008F7D80938000EC
:100B900010C084B58F7702C084B58F7D84BD09C035
:100BA0008091B0008F7703C08091B0008F7D8093DB
:100BB000B000E32FF0E0EE0FFF1FEE58FF4FA591BE
:100BC000B4912FB7F894662321F48C9190958923E2
:100BD00002C08C91892B8C932FBF08950895CF93D9
:100BE000DF930E94FE040E94EE050E94F300C0E025
:100BF000D0E00E945B012097E1F30E940000F9CF52
:100C000097FB092E07260AD077FD04D00CD006D01A
:100C100000201AF4709561957F4F0895F6F790952E
:100C200081959F4F0895AA1BBB1B51E107C0AA1FC6
:100C3000BB1FA617B70710F0A61BB70B881F991F7D
:100C40005A95A9F780959095BC01CD010895EE0FB6
:0E0C5000FF1F0590F491E02D0994F894FFCF5A
:100C5E0001001F00290033003D00470051005B00DA
:100C6E0065006F00790083008D009700A100AB0036
:100C7E00B500BF00C900DD00F100050119012D010D
:100C8E004B0169018701A501C301EB0113023B0270
:100C9E0063028102A902C702EF0217032B033F036F
:100CAE006703710385039903AD03CB03D503DF03FC
:100CBE00E903FD03AA033A01220110010201F70024
:100CCE00ED00E500DD00D700D100CC00C700C30069
:100CDE00BE00BB00B700B300B000AA00A500A00084
:100CEE009B00960090008B00850080007B007500B5
:100CFE006F00690064005F005A0055004F00480005
:100D0E00450041003900370033002D0027001C003C
:100D1E00170011000900E5FF01000000002502F494
:0A0D2E0001770180019501A6010084
:00000001FF
