:100000000C9463000C948B000C948B000C948B006C
:100010000C948B000C948B000C948B000C948B0034
:100020000C948B000C948B000C948B000C948B0024
:100030000C948B000C948B000C948B000C948B0014
:100040000C948E050C948B000C94E8060C943A07E3
:100050000C948B000C948B000C948B000C948B00F4
:100060000C948B000C948B000000000024002700EF
:100070002A0000000000250028002B0000000000DE
:1000800023002600290004040404040404040202DA
:100090000202020203030303030301020408102007
:1000A0004080010204081020010204081020000012
:1000B0000007000201000003040600000000000029
:1000C0000000F400A00811241FBECFEFD8E0DEBF6F
:1000D000CDBF12E0A0E0B1E0EAE5FBE102C005908F
:1000E0000D92A433B107D9F713E0A4E3B2E001C045
:1000F0001D92A233B107E1F710E0C6ECD0E004C0D6
:100100002297FE010E94A70DC23CD107C9F70E94A9
:10011000F7080C94AB0D0C9400000F931F93CF9332
:10012000DF93EC018B01DB018D919C918C179D0776
:1001300024F0FA016081718151C081E090E0821B5E
:100140009109880F991FAA27BB27A81BB90BF80193
:10015000EA0FFB1F80819181C817D90714F421E0B1
:1001600004C0A40FB51F14C02F5FA22FB0E0CD01B3
:10017000880F991FF801E80FF91F608171816C17D2
:100180007D0794F3840F951FC617D70721F4DC0170
:100190006D917C9123C0FD013197EE0FFF1F0E0F73
:1001A0001F1FD8012D913C91E40FF51F0190F081A4
:1001B000E02DDC018D919C918E1B9F0BC21BD30BFC
:1001C000621B730B9C012C9FC0012D9F900D3C9FC7
:1001D000900D11240E945C0D6E0F7F1FCB01DF91EB
:1001E000CF911F910F910895AF92BF92CF92DF925E
:1001F000EF92FF920F931F9300D000D000D080E0C9
:1002000090E0A0E8BFE3EDB7FEB781839283A383BC
:10021000B4831682158280E492E068E372E04CE3D6
:1002200052E024E332E00F2EF0E0EF2EF0E0FF2E5C
:10023000F0E00F2FF0E41F2FF02D0F2EF0E0AF2E87
:10024000F0E0BF2EF0EACF2EF0E4DF2EF02D0E947A
:10025000F9048DB79EB706960FB6F8949EBF0FBEF1
:100260008DBF1F910F91FF90EF90DF90CF90BF90C7
:10027000AF900895DF92EF92FF920F931F93CF9369
:10028000DF937C01D62E10927E0210927D0200E058
:1002900010E011C08D2D0E948606C80FD91FD09383
:1002A0007E02C0937D0261E070E080E090E00E94F9
:1002B000E1050F5F1F4FC0917D02D0917E020E15A8
:1002C0001F0544F3CE01B7010E945C0DCB01609382
:1002D0007D0290937E02DF91CF911F910F91FF904D
:1002E000EF90DF90089580E190E06EE070E00E9472
:1002F0003A0190937A02809379026BE571E04FEBBB
:1003000051E022E30E948D0080937B0290937C0257
:10031000089580E193E00E94F307892B41F180E189
:1003200093E00E942708AA2797FDA095BA2FBC0149
:10033000CD010E94220C60933402709335028093A9
:1003400036029093370280E193E060E071E00E9412
:10035000210A409134025091350260913602709129
:10036000370280E193E022E030E00E940B0B0E9414
:100370007301AA2797FDA095BA2FBC01CD010E9459
:10038000220C609338027093390280933A02909362
:100390003B0280E492E00E94DB0380E193E061E1B4
:1003A00071E00E94210A4091380250913902609117
:1003B0003A0270913B0280E193E022E030E00E943B
:1003C000080B80E193E062E271E00E94210A409113
:1003D000340250913502609136027091370280E10B
:1003E00093E022E030E00E94080B80E193E068E3B4
:1003F00071E00E94210A40913C0250913D026091BF
:100400003E0270913F0280E193E022E030E00E94E2
:100410000B0B64EF71E080E090E00E94E10508952D
:100420008EE060E00E94A8068AE061E00E94A806D3
:1004300080E193E040E052EC61E070E00E947507DB
:100440000E947301AA2797FDA095BA2FBC01CD0188
:100450000E94220C609338027093390280933A0212
:1004600090933B026093340270933502809336027E
:100470009093370280E492E061E070E00E9489038B
:1004800008952F923F924F925F926F927F928F9238
:100490009F92AF92BF92CF92DF92EF92FF920F9313
:1004A0001F93DF93CF9300D000D0CDB7DEB71C01F0
:1004B00049835A836B837C834801590126013701A4
:1004C000CB01BA0120E030E040E050E00E94830B15
:1004D00087FD8CC0C501B40120E030E040E050E071
:1004E0000E94830B87FD82C0C701B60120E030E087
:1004F00040E050E00E94830B87FD78C089819A819B
:10050000AB81BC81F10180839183A283B383D1014C
:1005100014968D929D92AD92BC921797C086D1860B
:10052000E286F38664A575A586A597A50E94200C92
:1005300020E030E04AE754E40E94870B7B018C0105
:1005400089819A81AB81BC81F10184879587A687D7
:10055000B787C501B401A80197010E94D60C5B01C1
:100560006C01D10150966D937D938D939C9353971D
:10057000C301B201A80197010E94870B7B018C0186
:10058000F101648B758B868B978B808D918D019794
:1005900069F560E070E080E090E029813A814B816C
:1005A0005C810E941E0BD1011C966D937D938D93EF
:1005B0009C931F9760E070E080E090E0A6019501B9
:1005C0000E941E0BF101608B718B828B938B60E01C
:1005D00070E080E090E0A80197010E941E0BD1011D
:1005E00054966D937D938D939C9357970F900F9096
:1005F0000F900F90CF91DF911F910F91FF90EF908F
:10060000DF90CF90BF90AF909F908F907F906F9032
:100610005F904F903F902F9008954F925F926F920E
:100620007F928F929F92AF92BF92CF92DF92EF9282
:10063000FF920F931F93CF93DF93EC013A014B018D
:1006400078018901CB01BA01A80197010E94D20C5F
:1006500087FF4EC068AA79AA8AAA9BAAECAAFDAA1B
:100660000EAB1FAB88AD882309F442C04C8C5D8C67
:10067000F201A080B180C280D380C601B501A8017B
:1006800097010E94D20C181634F4F201E082F18234
:10069000028313830DC0C601B501A40193010E941A
:1006A000830B88232CF4F201608271828282938210
:1006B000ACA0BDA0CEA0DFA0ECA8FDA80EA91FA9EC
:1006C000C601B501A80197010E94D20C181664F06A
:1006D000E8A8F9A80AA91BA9C601B501A8019701B4
:1006E0000E94830B882324F4ECA2FDA20EA31FA377
:1006F000DF91CF911F910F91FF90EF90DF90CF90FE
:10070000BF90AF909F908F907F906F905F904F9031
:1007100008959F92AF92BF92CF92DF92EF92FF9295
:100720000F931F93CF93DF93EC01992461307105F0
:10073000A9F59924939488AD882381F5EC8DFD8DDE
:10074000E080F18002811381ECA2FDA20EA31FA321
:10075000EA8DFB8D80819181A281B38188A799A7C1
:10076000AAA7BBA7ACA8BDA8CEA8DFA8C801B7019F
:10077000A60195010E94D20C181664F0A8A8B9A889
:10078000CAA8DBA8C801B701A60195010E94830B86
:10079000882324F4ACA2BDA2CEA2DFA298AEDF9142
:1007A000CF911F910F91FF90EF90DF90CF90BF906E
:1007B000AF909F9008952F923F924F925F926F92C9
:1007C0007F928F929F92AF92BF92CF92DF92EF92E1
:1007D000FF920F931F93DF93CF9300D000D000D0F0
:1007E000CDB7DEB79E838D83DC01D8968C918823AC
:1007F00009F4E5C00E94D30569837A838B839C83C7
:10080000ED81FE8180A191A1A2A1B3A129813A81AC
:100810004B815C81281B390B4A0B5B0B84A595A58A
:10082000A6A5B7A5281739074A075B0708F4C7C06C
:10083000028CF38DE02D2080318042805380AD8189
:10084000BE815E96ED91FC915F976081718182819E
:100850009381A20191010E941E0B3B014C01ED818D
:10086000FE8120893189428953890E94D60CAD814D
:10087000BE8194962D913D914D915C9197970E94E8
:100880001F0B7B018C01ED81FE8164A375A386A300
:1008900097A3A4A8B5A8C6A8D7A8A60195010E94A9
:1008A000D20C181674F0ED81FE81A0A8B1A8C2A8E0
:1008B000D3A8C801B701A60195010E94830B882324
:1008C00044F4AD81BE819496AD92BD92CD92DC92FE
:1008D0009797C401B301ED81FE8124853585468556
:1008E00057850E94D60CAD81BE8194962D913D9185
:1008F0004D915C9197970E941F0B7B018C01C20167
:10090000B101ED81FE8120A531A542A553A50E942C
:100910001E0BAD81BE8154962D913D914D915C9100
:1009200057970E94D60C9B01AC01C801B7010E94E9
:100930001E0B7B018C01ED81FE81D4A8C5A8B6A851
:10094000A7A82D2D3C2D4B2D5A2D0E94D20C1816E8
:10095000BCF0AD81BE81D096DC90D097D196CC9082
:10096000D197D296BC90D297D396AC90C801B701DC
:100970002D2D3C2D4B2D5A2D0E94830B882334F4B2
:100980008D2D9C2DAB2DBA2D7C018D01AD81BE81AD
:100990005C96ED91FC915D97E082F1820283138376
:1009A000FD0120A631A642A653A689819A81AB817A
:1009B000BC8180A391A3A2A3B3A381E001C080E086
:1009C00026960FB6F894DEBF0FBECDBFCF91DF9154
:1009D0001F910F91FF90EF90DF90CF90BF90AF905D
:1009E0009F908F907F906F905F904F903F902F904F
:1009F00008954F925F926F927F928F929F92AF92E3
:100A0000BF92CF92DF92EF92FF920F931F93DF93EB
:100A1000CF93CDB7DEB74C0127013801EF88F88CB2
:100A2000FC01558F448F738F628F378F268F10AEE6
:100A300040E050E060E070E000E010E02FE733E4D9
:100A40000E940D0384E690E0A0E0B0E0F40184A7EA
:100A500095A7A6A7B7A780AD882391F1808D918D2A
:100A6000E816F90669F160E070E080E090E0248526
:100A70003585468557850E941E0BF401648775876E
:100A80008687978760E070E080E090E02089318978
:100A9000428953890E941E0BF401608B718B828BFB
:100AA000938B60E070E080E090E02489358946898E
:100AB00057890E941E0BF401648B758B868B978B74
:100AC000F401F18EE08EC401B301A201960185010B
:100AD000CB88DC88ED88FE880E9441020E94D30505
:100AE000F40124A535A546A557A5621B730B840BFD
:100AF000950B60A371A382A393A3CF91DF911F9164
:100B00000F91FF90EF90DF90CF90BF90AF909F90AC
:100B10008F907F906F905F904F9008951F920F92EB
:100B20000FB60F9211242F933F938F939F93AF9300
:100B3000BF938091830290918402A0918502B0912D
:100B4000860230918702232F2A592D3720F02D5706
:100B50000196A11DB11D209387028093830290937B
:100B60008402A0938502B093860280917F029091C7
:100B70008002A0918102B09182020196A11DB11D57
:100B800080937F0290938002A0938102B0938202AF
:100B9000BF91AF919F918F913F912F910F900FBE79
:100BA0000F901F9018958FB7F89420918302309181
:100BB000840240918502509186028FBFB901CA011B
:100BC0000895EF92FF920F931F937B018C019FB7C3
:100BD000F89420917F0230918002409181025091DF
:100BE000820286B5A89B06C08F3F21F02F5F3F4F42
:100BF0004F4F5F4F9FBF542F432F322F2227280F75
:100C0000311D411D511DDA01C901880F991FAA1F0D
:100C1000BB1F820F931FA41FB51FBC0132C09FB71B
:100C2000F89420917F02309180024091810250918E
:100C3000820286B5A89B06C08F3F21F02F5F3F4FF1
:100C40004F4F5F4F9FBF542F432F322F2227280F24
:100C5000311D411D511DDA01C901880F991FAA1FBD
:100C6000BB1F820F931FA41FB51F861B970B885EA7
:100C70009340A8F20894E108F108010911096851AC
:100C80007C4FE114F1040105110549F61F910F9104
:100C9000FF90EF900895789484B5826084BD84B508
:100CA000816084BD85B5826085BD85B5816085BD67
:100CB000EEE6F0E0808181608083E1E8F0E0108280
:100CC000808182608083808181608083E0E8F0E0C1
:100CD000808181608083E1EBF0E0808184608083AB
:100CE000E0EBF0E0808181608083EAE7F0E08081E2
:100CF0008460808380818260808380818160808342
:100D00008081806880831092C1000895982F8E3072
:100D100008F09E509770809123028295880F880F6B
:100D2000807C892B80937C0080917A008064809302
:100D30007A0080917A0086FDFCCF20917800409166
:100D40007900942F80E030E0282B392BC9010895D9
:100D5000CF93DF93482F50E0CA0186569F4FFC0186
:100D600034914A575F4FFA018491882369F190E0EA
:100D7000880F991FFC01E859FF4FA591B491FC0120
:100D8000EE58FF4FC591D491662351F42FB7F894D4
:100D90008C91932F909589238C93888189230BC004
:100DA000623061F42FB7F8948C91932F909589233A
:100DB0008C938881832B88832FBF06C09FB7F894BC
:100DC0008C91832B8C939FBFDF91CF9108950895D1
:100DD0001F920F920FB60F9211242F933F934F93B0
:100DE0008F939F93EF93FF938091C00082FD1DC06E
:100DF0004091C6002091C8023091C9022F5F3F4F39
:100E00002F7330708091CA029091CB022817390756
:100E100071F0E091C802F091C902E857FD4F40839C
:100E20003093C9022093C80202C08091C600FF918E
:100E3000EF919F918F914F913F912F910F900FBE06
:100E40000F901F901895E0911C03F0911D03E05C3A
:100E5000FF4F8191919120813181805C9F4F821B56
:100E6000930B60E470E00E945C0D892B11F00E94EE
:100E7000E70608951F920F920FB60F9211242F9339
:100E80003F938F939F93EF93FF9320910C033091A7
:100E90000D0380910E0390910F032817390731F449
:100EA0008091C1008F7D8093C10014C0E0910E033A
:100EB000F0910F03E453FD4F208180910E03909138
:100EC0000F0301968F73907090930F0380930E031E
:100ED0002093C600FF91EF919F918F913F912F91A9
:100EE0000F900FBE0F901F901895AF92BF92DF9298
:100EF000EF92FF920F931F93CF93DF93EC017A0150
:100F00008B01DD24D39491E0A92EB12CEC89FD89CD
:100F1000DD2069F0C50108A002C0880F991F0A945E
:100F2000E2F7808360E47BE48CE490E005C010820B
:100F300060EA75E286E290E0A80197010E946F0DD9
:100F40002150304040405040569547953795279561
:100F500080E12030380720F0DD2011F0DD24D6CFED
:100F6000E889F9893083EA89FB89208319A2EE890F
:100F7000FF89408121E030E0C9010C8C02C0880F5C
:100F8000991F0A94E2F7482B4083EE89FF8940813C
:100F9000C9010D8C02C0880F991F0A94E2F7482BF3
:100FA0004083EE89FF894081C9010E8C02C0880F01
:100FB000991F0A94E2F7482B4083EE89FF898081CC
:100FC0000F8C02C0220F331F0A94E2F720952823CA
:100FD0002083DF91CF911F910F91FF90EF90DF90D1
:100FE000BF90AF900895DC011C96ED91FC911D9788
:100FF000E05CFF4F8191919120813181805C9F4F16
:10100000821B930B60E470E00E945C0D0895DC018C
:101010001C96ED91FC911D97E05CFF4F2081318182
:10102000E054F040DF01AE5BBF4F8D919C91119772
:101030002817390719F42FEF3FEF07C08D919C91C6
:10104000E80FF91F8081282F30E0C9010895DC01E5
:101050001C96ED91FC911D97E05CFF4F2081318142
:10106000E054F040DF01AE5BBF4F8D919C91119732
:101070002817390719F42FEF3FEF10C08D919C917D
:101080001197E80FF91F20818D919C91119701967E
:101090008F73907011969C938E9330E0C9010895E0
:1010A000DC0191968C919197882339F05496ED91BB
:1010B000FC915597808186FFF9CF91961C920895F7
:1010C000CF93DF93EC01EE85FF85E05CFF4F20813D
:1010D0003181E054F0402F5F3F4F2F733070DF01BC
:1010E000AE5BBF4F8D919C91119728173907D1F3B3
:1010F000E05CFF4F80819181E054F040E80FF91FE0
:101100006083EE85FF85E05CFF4F31832083EE89AD
:10111000FF89208181E090E00F8C02C0880F991F29
:101120000A94E2F7282B208381E089A3EC89FD89CA
:1011300080818064808381E090E0DF91CF91089589
:10114000109213031092120388EE93E0A0E0B0E037
:101150008093140390931503A0931603B093170381
:1011600088E292E0909311038093100388E892E064
:1011700090931D0380931C038CEC92E090931F03CB
:1011800080931E0385EC90E09093210380932003CD
:1011900084EC90E0909323038093220380EC90E012
:1011A000909325038093240381EC90E09093270390
:1011B0008093260382EC90E0909329038093280388
:1011C00086EC90E090932B0380932A0384E0809335
:1011D0002C0383E080932D0387E080932E0385E02A
:1011E00080932F0381E08093300308950895CF9377
:1011F000DF930E944B060E94F6080E941002C3E291
:10120000D7E00E9489012097E1F30E942307F9CFDC
:10121000CF92DF92EF92FF920F931F93CF93DF93C2
:101220007C016B018A01C0E0D0E00FC0D6016D9156
:101230006D01D701ED91FC910190F081E02DC70186
:101240000995C80FD91F015010400115110571F7FC
:10125000CE01DF91CF911F910F91FF90EF90DF9022
:10126000CF900895EF92FF920F931F938C01DC01B2
:10127000ED91FC910190F081E02D6DE009957C01EC
:10128000D801ED91FC910190F081E02DC8016AE058
:1012900009959C012E0D3F1DC9011F910F91FF90D3
:1012A000EF900895CF93DF93EC016115710519F468
:1012B00020E030E00FC0DB010D900020E9F711972E
:1012C000A61BB70BE881F9810280F381E02DAD0107
:1012D00009959C01C901DF91CF9108954F925F92CA
:1012E0007F928F929F92AF92BF92CF92DF92EF92B6
:1012F000FF920F931F93DF93CF93CDB7DEB7A197E4
:101300000FB6F894DEBF0FBECDBF2C01742ECB01FB
:10131000223008F42AE019A231E2C32ED12CCC0EDF
:10132000DD1E822E9924AA24BB24672D752FA501CA
:1013300094010E946F0D79018A01C801B701A501CE
:1013400094010E943D0D472D461B0894C108D10809
:101350004A3014F4405D01C0495CF6014083E11459
:10136000F1040105110521F07E2C5F2DC801DDCFB0
:10137000C201B6010E945209A1960FB6F894DEBFD1
:101380000FBECDBFCF91DF911F910F91FF90EF90D6
:10139000DF90CF90BF90AF909F908F907F905F90A5
:1013A0004F900895DC012115310541F4ED91FC9138
:1013B0000190F081E02D642F099508950E946E0937
:1013C0000895CF92DF92EF92FF920F931F93CF93E6
:1013D000DF93EC016A017B012115310541F4E881BD
:1013E000F9810190F081E02D642F09951FC02A300A
:1013F0003105D1F477FF17C0E881F9810190F081C0
:10140000E02D6DE209958C0144275527BA014C194E
:101410005D096E097F09CE012AE00E946E099801DC
:10142000280F391F04C02AE00E946E099C01C901DF
:10143000DF91CF911F910F91FF90EF90DF90CF90B0
:1014400008950E94520908957F928F929F92AF92C1
:10145000BF92CF92DF92EF92FF920F931F93CF93A1
:10146000DF934C017A018B01722ECB01BA01A801E6
:1014700097010E94390D882321F0C4016DE471E0C9
:1014800021C0C0E0D0E057016801E894D7F8C60158
:10149000B5012FEF3FEF4FE75FE70E94390D88233B
:1014A00051F4C601B5012FEF3FEF4FE75FE70E9410
:1014B000830B181614F0C1E0D0E0219739F0C40175
:1014C00061E571E00E945209EC0193C0C801B701C7
:1014D0002FEF3FEF4FE75FE40E94D20C181654F055
:1014E000C801B7012FEF3FEF4FE75FEC0E94830B7E
:1014F000882324F4C40165E571E0E4CFC801B70195
:1015000020E030E040E050E00E94830B87FD03C004
:10151000C0E0D0E00EC0D401ED91FC910190F081CB
:10152000E02DC4016DE20995EC0117FB109517F948
:10153000109520E030E040E05FE3DD240BC0CA01FD
:10154000B90120E030E040E251E40E94870B9B01AA
:10155000AC01D394D71498F3C801B7010E941F0BB4
:101560005B016C010E94F40B7B018C01C401B8018A
:10157000A7012AE030E00E94D209C80FD91F7720C6
:1015800039F0C40169E571E00E945209C80FD91F02
:10159000C801B7010E94200C9B01AC01C601B50136
:1015A0000E941E0B24C020E030E040E251E40E9483
:1015B000D60C7B018C010E94EF0B5B016C01CC24EB
:1015C000B7FCC094DC2CC401B601A5012AE030E0D0
:1015D0000E94E109C80FD91FC601B5010E94220C63
:1015E0009B01AC01C801B7010E941E0B7A947720C1
:1015F000D1F6CE01DF91CF911F910F91FF90EF9027
:10160000DF90CF90BF90AF909F908F907F90089584
:101610000E94240A0895EF92FF920F931F937C017A
:101620000E94240A8C01C7010E943209080F191F69
:10163000C8011F910F91FF90EF9008955058BB275C
:10164000AA270ED075C166D130F06BD120F031F4ED
:101650009F3F11F41EF45BC10EF4E095E7FB51C10E
:10166000E92F77D180F3BA176207730784079507CC
:1016700018F071F49EF58FC10EF4E0950B2EBA2F81
:10168000A02D0B01B90190010C01CA01A001112488
:10169000FF27591B99F0593F50F4503E68F11A1634
:1016A000F040A22F232F342F4427585FF3CF4695C5
:1016B00037952795A795F0405395C9F77EF41F16E7
:1016C000BA0B620B730B840BBAF09150A1F0FF0FB1
:1016D000BB1F661F771F881FC2F70EC0BA0F621F9D
:1016E000731F841F48F4879577956795B795F7958D
:1016F0009E3F08F0B3CF9395880F08F09927EE0F1F
:10170000979587950895D9D008F481E008950CD075
:101710000FC107D140F0FED030F021F45F3F19F047
:10172000F0C0511139C1F3C014D198F39923C9F312
:101730005523B1F3951B550BBB27AA2762177307D7
:10174000840738F09F5F5F4F220F331F441FAA1F8B
:10175000A9F333D00E2E3AF0E0E830D0915050404B
:10176000E695001CCAF729D0FE2F27D0660F771FF9
:10177000881FBB1F261737074807AB07B0E809F0DB
:10178000BB0B802DBF01FF2793585F4F2AF09E3F70
:10179000510568F0B6C000C15F3FECF3983EDCF342
:1017A000869577956795B795F7959F5FC9F7880FE9
:1017B000911D9695879597F90895E1E0660F771F3B
:1017C000881FBB1F621773078407BA0720F0621BCC
:1017D000730B840BBA0BEE1F88F7E095089504D0C5
:1017E0006894B111D9C00895BCD088F09F5790F08B
:1017F000B92F9927B751A0F0D1F0660F771F881F36
:10180000991F1AF0BA95C9F712C0B13081F0C3D050
:10181000B1E00895C0C0672F782F8827B85F39F0EE
:10182000B93FCCF3869577956795B395D9F73EF494
:1018300090958095709561957F4F8F4F9F4F08953C
:10184000E89409C097FB3EF490958095709561955A
:101850007F4F8F4F9F4F9923A9F0F92F96E9BB2710
:101860009395F695879577956795B795F111F8CF8C
:10187000FAF4BB0F11F460FF1BC06F5F7F4F8F4FF7
:101880009F4F16C0882311F096E911C0772321F0ED
:101890009EE8872F762F05C0662371F096E8862F85
:1018A00070E060E02AF09A95660F771F881FDAF7DC
:1018B000880F9695879597F90895990F0008550F09
:1018C000AA0BE0E8FEEF16161706E807F907C0F0C6
:1018D00012161306E407F50798F0621B730B840BCE
:1018E000950B39F40A2661F0232B242B252B21F4A8
:1018F00008950A2609F4A140A6958FEF811D811D48
:10190000089597F99F6780E870E060E008959FEF81
:1019100080EC089500240A94161617061806090686
:10192000089500240A941216130614060506089555
:10193000092E0394000C11F4882352F0BB0F40F4DD
:10194000BF2B11F460FF04C06F5F7F4F8F4F9F4F1D
:10195000089557FD9058440F551F59F05F3F71F09F
:101960004795880F97FB991F61F09F3F79F0879506
:101970000895121613061406551FF2CF4695F1DF8F
:1019800008C0161617061806991FF1CF869571051F
:10199000610508940895E894BB2766277727CB0153
:1019A00097F908958ADF08F48FEF08950BD0C0CF20
:1019B000B1DF28F0B6DF18F0952309F0A2CFA7CF4A
:1019C0001124EACFC6DFA0F3959FD1F3950F50E025
:1019D000551F629FF001729FBB27F00DB11D639FE1
:1019E000AA27F00DB11DAA1F649F6627B00DA11D87
:1019F000661F829F2227B00DA11D621F739FB00D2D
:101A0000A11D621F839FA00D611D221F749F33279C
:101A1000A00D611D231F849F600D211D822F762F35
:101A20006A2F11249F5750408AF0E1F088234AF032
:101A3000EE0FFF1FBB1F661F771F881F915050407E
:101A4000A9F79E3F510570F05CCFA6CF5F3FECF346
:101A5000983EDCF3869577956795B795F795E7956A
:101A60009F5FC1F7FE2B880F911D9695879597F97B
:101A7000089523DF880B990B0895629FD001739F0F
:101A8000F001829FE00DF11D649FE00DF11D929F1A
:101A9000F00D839FF00D749FF00D659FF00D992759
:101AA000729FB00DE11DF91F639FB00DE11DF91F7D
:101AB000BD01CF011124089597FB092E07260AD0F6
:101AC00077FD04D02ED006D000201AF470956195D1
:101AD0007F4F0895F6F7909581959F4F0895A1E265
:101AE0001A2EAA1BBB1BFD010DC0AA1FBB1FEE1F98
:101AF000FF1FA217B307E407F50720F0A21BB30BE3
:101B0000E40BF50B661F771F881F991F1A9469F75E
:101B100060957095809590959B01AC01BD01CF01BA
:101B20000895AA1BBB1B51E107C0AA1FBB1FA61724
:101B3000B70710F0A61BB70B881F991F5A95A9F776
:101B400080959095BC01CD010895EE0FFF1F059083
:0A1B5000F491E02D0994F894FFCF02
:101B5A00536574706F696E742073657420746F2096
:101B6A000043757272656E742074656D70203A3A1E
:101B7A00200020202D2D2020546172676574207466
:101B8A00656D70203A3A200020202D2D20205057D4
:101B9A004D2073657420746F203A3A20006E616E8E
:101BAA0000696E66006F7666002E0001001F00292C
:101BBA000033003D00470051005B0065006F00796B
:101BCA000083008D009700A100AB00B500BF00C9DB
:101BDA0000DD00F100050119012D014B01690187A2
:101BEA0001A501C301EB0113023B0263028102A9B1
:101BFA0002C702EF0217032B033F03670371038532
:101C0A00039903AD03CB03D503DF03E903FD03AA5D
:101C1A00033A01220110010201F700ED00E500DD9F
:101C2A0000D700D100CC00C700C300BE00BB00B77C
:101C3A0000B300B000AA00A500A0009B0096009087
:101C4A00008B00850080007B0075006F00690064CE
:101C5A00005F005A0055004F004800450041003916
:101C6A0000370033002D0027001C0017001100095F
:101C7A0000E5FF010000000060080809F3072708D3
:041C8A0007085008EF
:00000001FF
