:100000000C9462000C948A000C948A000C948A0070
:100010000C948A000C948A000C948A000C948A0038
:100020000C948A000C948A000C948A000C948A0028
:100030000C948A000C948A000C948A000C948A0018
:100040000C945C010C948A000C94A8020C94FA02A3
:100050000C948A000C948A000C948A000C948A00F8
:100060000C948A000C948A000000000024002700F1
:100070002A0000000000250028002B0000000000DE
:1000800023002600290004040404040404040202DA
:100090000202020203030303030301020408102007
:1000A0004080010204081020010204081020000012
:1000B0000007000201000003040600000000000029
:1000C0000000600411241FBECFEFD8E0DEBFCDBF1B
:1000D00011E0A0E0B1E0E2ECFCE002C005900D927E
:1000E000AA3DB107D9F712E0AAEDB1E001C01D9217
:1000F000A339B107E1F710E0C4ECD0E004C02297C7
:10010000FE010E945B06C23CD107C9F70E94B704FA
:100110000C945F060C9400000F931F93CF93DF9312
:10012000EC018B01DB018D919C918C179D0724F0D4
:10013000FA016081718151C081E090E0821B9109D8
:10014000880F991FAA27BB27A81BB90BF801EA0F34
:10015000FB1F80819181C817D90714F421E004C0E6
:10016000A40FB51F14C02F5FA22FB0E0CD01880FE0
:10017000991FF801E80FF91F608171816C177D07E5
:1001800094F3840F951FC617D70721F4DC016D91F6
:100190007C9123C0FD013197EE0FFF1F0E0F1F1F33
:1001A000D8012D913C91E40FF51F0190F081E02DD5
:1001B000DC018D919C918E1B9F0BC21BD30B621B8C
:1001C000730B9C012C9FC0012D9F900D3C9F900DA7
:1001D00011240E9410066E0F7F1FCB01DF91CF917B
:1001E0001F910F9108958EE060E00E94680281E700
:1001F00092E040E052EC61E070E00E943503089527
:10020000DF92EF92FF920F931F93CF93DF937C01C6
:10021000D62E1092DF011092DE0100E010E011C036
:100220008D2D0E944602C80FD91FD093DF01C093C5
:10023000DE0161E070E080E090E00E94A1010F5FCC
:100240001F4FC091DE01D091DF010E151F0544F351
:10025000CE01B7010E941006CB016093DE0190939E
:10026000DF01DF91CF911F910F91FF90EF90DF9011
:10027000089580E190E06EE070E00E9400019093AC
:10028000DB018093DA0160E071E044E651E022E3B3
:100290000E948C00BC019093DD018093DC0181E71A
:1002A00092E04AE050E00E94D2056CED75E080E0FB
:1002B00090E00E94A10108951F920F920FB60F9235
:1002C00011242F933F938F939F93AF93BF9380916C
:1002D000E4019091E501A091E601B091E701309130
:1002E000E801232F2A592D3720F02D570196A11D03
:1002F000B11D2093E8018093E4019093E501A09360
:10030000E601B093E7018091E0019091E101A091B5
:10031000E201B091E3010196A11DB11D8093E001BE
:100320009093E101A093E201B093E301BF91AF91FB
:100330009F918F913F912F910F900FBE0F901F9023
:100340001895EF92FF920F931F937B018C019FB73B
:10035000F8942091E0013091E1014091E201509147
:10036000E30186B5A89B06C08F3F21F02F5F3F4F6A
:100370004F4F5F4F9FBF542F432F322F2227280FFD
:10038000311D411D511DDA01C901880F991FAA1F96
:10039000BB1F820F931FA41FB51FBC0132C09FB7A4
:1003A000F8942091E0013091E1014091E2015091F7
:1003B000E30186B5A89B06C08F3F21F02F5F3F4F1A
:1003C0004F4F5F4F9FBF542F432F322F2227280FAD
:1003D000311D411D511DDA01C901880F991FAA1F46
:1003E000BB1F820F931FA41FB51F861B970B885E30
:1003F0009340A8F20894E108F10801091109685135
:100400007C4FE114F1040105110549F61F910F918C
:10041000FF90EF900895789484B5826084BD84B590
:10042000816084BD85B5826085BD85B5816085BDEF
:10043000EEE6F0E0808181608083E1E8F0E0108208
:10044000808182608083808181608083E0E8F0E049
:10045000808181608083E1EBF0E080818460808333
:10046000E0EBF0E0808181608083EAE7F0E080816A
:1004700084608083808182608083808181608083CA
:100480008081806880831092C1000895982F8E30FB
:1004900008F09E5097708091C8018295880F880F50
:1004A000807C892B80937C0080917A00806480938B
:1004B0007A0080917A0086FDFCCF209178004091EF
:1004C0007900942F80E030E0282B392BC901089562
:1004D000CF93DF93482F50E0CA0186569F4FFC010F
:1004E00034914A575F4FFA018491882369F190E073
:1004F000880F991FFC01E859FF4FA591B491FC01A9
:10050000EE58FF4FC591D491662351F42FB7F8945C
:100510008C91932F909589238C93888189230BC08C
:10052000623061F42FB7F8948C91932F90958923C2
:100530008C938881832B88832FBF06C09FB7F89444
:100540008C91832B8C939FBFDF91CF910895089559
:100550001F920F920FB60F9211242F933F934F9338
:100560008F939F93EF93FF938091C00082FD1DC0F6
:100570004091C6002091290230912A022F5F3F4FFF
:100580002F73307080912B0290912C02281739071D
:1005900071F0E0912902F0912A02E751FE4F408369
:1005A00030932A022093290202C08091C600FF9155
:1005B000EF919F918F914F913F912F910F900FBE8F
:1005C0000F901F901895E0917D02F0917E02E05C03
:1005D000FF4F8191919120813181805C9F4F821BDF
:1005E000930B60E470E00E941006892B11F00E94CA
:1005F000A70208951F920F920FB60F9211242F9306
:100600003F938F939F93EF93FF9320916D023091CF
:100610006E0280916F02909170022817390731F4B1
:100620008091C1008F7D8093C10014C0E0916F0262
:10063000F0917002E35DFD4F208180916F029091F7
:10064000700201968F7390709093700280936F0286
:100650002093C600FF91EF919F918F913F912F9131
:100660000F900FBE0F901F901895AF92BF92DF9220
:10067000EF92FF920F931F93CF93DF93EC017A01D8
:100680008B01DD24D39491E0A92EB12CEC89FD8956
:10069000DD2069F0C50108A002C0880F991F0A94E7
:1006A000E2F7808360E47BE48CE490E005C0108294
:1006B00060EA75E286E290E0A80197010E942306B5
:1006C00021503040404050405695479537952795EA
:1006D00080E12030380720F0DD2011F0DD24D6CF76
:1006E000E889F9893083EA89FB89208319A2EE8998
:1006F000FF89408121E030E0C9010C8C02C0880FE5
:10070000991F0A94E2F7482B4083EE89FF894081C4
:10071000C9010D8C02C0880F991F0A94E2F7482B7B
:100720004083EE89FF894081C9010E8C02C0880F89
:10073000991F0A94E2F7482B4083EE89FF89808154
:100740000F8C02C0220F331F0A94E2F72095282352
:100750002083DF91CF911F910F91FF90EF90DF9059
:10076000BF90AF900895DC011C96ED91FC911D9710
:10077000E05CFF4F8191919120813181805C9F4F9E
:10078000821B930B60E470E00E9410060895DC0168
:100790001C96ED91FC911D97E05CFF4F208131810B
:1007A000E054F040DF01AE5BBF4F8D919C911197FB
:1007B0002817390719F42FEF3FEF07C08D919C914F
:1007C000E80FF91F8081282F30E0C9010895DC016E
:1007D0001C96ED91FC911D97E05CFF4F20813181CB
:1007E000E054F040DF01AE5BBF4F8D919C911197BB
:1007F0002817390719F42FEF3FEF10C08D919C9106
:100800001197E80FF91F20818D919C911197019606
:100810008F73907011969C938E9330E0C901089568
:10082000DC0191968C919197882339F05496ED9143
:10083000FC915597808186FFF9CF91961C9208957F
:10084000CF93DF93EC01EE85FF85E05CFF4F2081C5
:100850003181E054F0402F5F3F4F2F733070DF0144
:10086000AE5BBF4F8D919C91119728173907D1F33B
:10087000E05CFF4F80819181E054F040E80FF91F68
:100880006083EE85FF85E05CFF4F31832083EE8936
:10089000FF89208181E090E00F8C02C0880F991FB2
:1008A0000A94E2F7282B208381E089A3EC89FD8953
:1008B00080818064808381E090E0DF91CF91089512
:1008C000109274021092730288EE93E0A0E0B0E000
:1008D0008093750290937602A0937702B09378028A
:1008E0008DEC91E0909372028093710289EE91E019
:1008F00090937E0280937D028DE292E0909380023D
:1009000080937F0285EC90E0909382028093810235
:1009100084EC90E0909384028093830280EC90E0DA
:10092000909386028093850281EC90E090938802F8
:100930008093870282EC90E090938A0280938902F0
:1009400086EC90E090938C0280938B0284E08093FD
:100950008D0283E080938E0287E080938F0285E092
:100960008093900281E08093910208950895CF933F
:10097000DF930E940B020E94B6040E94F300C3EEB4
:10098000D2E00E9439012097E1F30E94E302F9CFFF
:10099000CF92DF92EF92FF920F931F93CF93DF934B
:1009A0007C016B018A01C0E0D0E00FC0D6016D91DF
:1009B0006D01D701ED91FC910190F081E02DC7010F
:1009C0000995C80FD91F015010400115110571F785
:1009D000CE01DF91CF911F910F91FF90EF90DF90AB
:1009E000CF900895EF92FF920F931F938C01DC013B
:1009F000ED91FC910190F081E02D6DE009957C0175
:100A0000D801ED91FC910190F081E02DC8016AE0E0
:100A100009959C012E0D3F1DC9011F910F91FF905B
:100A2000EF900895CF93DF93EC016115710519F4F0
:100A300020E030E00FC0DB010D900020E9F71197B6
:100A4000A61BB70BE881F9810280F381E02DAD018F
:100A500009959C01C901DF91CF9108954F925F9252
:100A60007F928F929F92AF92BF92CF92DF92EF923E
:100A7000FF920F931F93DF93CF93CDB7DEB7A1976C
:100A80000FB6F894DEBF0FBECDBF2C01742ECB0184
:100A9000223008F42AE019A231E2C32ED12CCC0E68
:100AA000DD1E822E9924AA24BB24672D752FA50153
:100AB00094010E94230679018A01C801B701A501AA
:100AC00094010E94F105472D461B0894C108D108E6
:100AD0004A3014F4405D01C0495CF6014083E114E2
:100AE000F1040105110521F07E2C5F2DC801DDCF39
:100AF000C201B6010E941205A1960FB6F894DEBF9E
:100B00000FBECDBFCF91DF911F910F91FF90EF905E
:100B1000DF90CF90BF90AF909F908F907F905F902D
:100B20004F900895CF92DF92EF92FF920F931F9311
:100B3000CF93DF93EC016A017B012115310541F46C
:100B4000E881F9810190F081E02D642F09951FC0A3
:100B50002A303105D1F477FF17C0E881F98101907F
:100B6000F081E02D6DE209958C0144275527BA01EB
:100B70004C195D096E097F09CE012AE00E942E05FD
:100B80009801280F391F04C02AE00E942E059C01FD
:100B9000C901DF91CF911F910F91FF90EF90DF90EE
:100BA000CF900895CF92DF92EF92FF920F931F9311
:100BB0006C017B019A010027F7FC0095102FB8010A
:100BC000A7010E9492058C01C6010E94F204080F41
:100BD000191FC8011F910F91FF90EF90DF90CF90E8
:100BE0000895629FD001739FF001829FE00DF11D77
:100BF000649FE00DF11D929FF00D839FF00D749F97
:100C0000F00D659FF00D9927729FB00DE11DF91F42
:100C1000639FB00DE11DF91FBD01CF01112408959F
:100C200097FB092E07260AD077FD04D02ED006D0D8
:100C300000201AF4709561957F4F0895F6F790950E
:100C400081959F4F0895A1E21A2EAA1BBB1BFD019F
:100C50000DC0AA1FBB1FEE1FFF1FA217B307E4079B
:100C6000F50720F0A21BB30BE40BF50B661F771FF3
:100C7000881F991F1A9469F76095709580959095D3
:100C80009B01AC01BD01CF010895AA1BBB1B51E123
:100C900007C0AA1FBB1FA617B70710F0A61BB70BEC
:100CA000881F991F5A95A9F780959095BC01CD0191
:100CB0000895EE0FFF1F0590F491E02D0994F8942C
:020CC000FFCF64
:100CC20001001F00290033003D00470051005B0076
:100CD20065006F00790083008D009700A100AB00D2
:100CE200B500BF00C900DD00F100050119012D01A9
:100CF2004B0169018701A501C301EB0113023B020C
:100D020063028102A902C702EF0217032B033F030A
:100D12006703710385039903AD03CB03D503DF0397
:100D2200E903FD03AA033A01220110010201F700BF
:100D3200ED00E500DD00D700D100CC00C700C30004
:100D4200BE00BB00B700B300B000AA00A500A0001F
:100D52009B00960090008B00850080007B00750050
:100D62006F00690064005F005A0055004F004800A0
:100D7200450041003900370033002D0027001C00D8
:100D8200170011000900E5FF01000000002004C85F
:0A0D920004B303E703C703100400D5
:00000001FF
