:100000000C9462000C948A000C948A000C948A0070
:100010000C948A000C948A000C948A000C948A0038
:100020000C948A000C948A000C948A000C948A0028
:100030000C948A000C948A000C948A000C948A0018
:100040000C94EB010C948A000C9437030C948903F4
:100050000C948A000C948A000C948A000C948A00F8
:100060000C948A000C948A000000000024002700F1
:100070002A0000000000250028002B0000000000DE
:1000800023002600290004040404040404040202DA
:100090000202020203030303030301020408102007
:1000A0004080010204081020010204081020000012
:1000B0000007000201000003040600000000000029
:1000C0000000EF0411241FBECFEFD8E0DEBFCDBF8C
:1000D00012E0A0E0B1E0EEE1F4E102C005900D9283
:1000E000A433B107D9F712E0A4E3B2E001C01D9236
:1000F000A93FB107E1F710E0C4ECD0E004C02297BB
:10010000FE010E94090AC23CD107C9F70E944605B8
:100110000C940D0A0C9400000F931F93CF93DF9360
:10012000EC018B01DB018D919C918C179D0724F0D4
:10013000FA016081718151C081E090E0821B9109D8
:10014000880F991FAA27BB27A81BB90BF801EA0F34
:10015000FB1F80819181C817D90714F421E004C0E6
:10016000A40FB51F14C02F5FA22FB0E0CD01880FE0
:10017000991FF801E80FF91F608171816C177D07E5
:1001800094F3840F951FC617D70721F4DC016D91F6
:100190007C9123C0FD013197EE0FFF1F0E0F1F1F33
:1001A000D8012D913C91E40FF51F0190F081E02DD5
:1001B000DC018D919C918E1B9F0BC21BD30B621B8C
:1001C000730B9C012C9FC0012D9F900D3C9F900DA7
:1001D00011240E94BE096E0F7F1FCB01DF91CF91CA
:1001E0001F910F910895DF92EF92FF920F931F934B
:1001F000CF93DF937C01D62E1092450210924402D9
:1002000000E010E011C08D2D0E94D502C80FD91F4B
:10021000D0934502C093440261E070E080E090E03A
:100220000E9430020F5F1F4FC0914402D0914502DF
:100230000E151F0544F3CE01B7010E94BE09CB0184
:100240006093440290934502DF91CF911F910F91EB
:10025000FF90EF90DF90089580E190E06EE070E015
:100260000E94F30090934102809340026BE571E09D
:100270004FEB51E022E30E948C0080934202909366
:100280004302089587ED92E00E944204892B41F1D8
:1002900087ED92E00E947604AA2797FDA095BA2FD9
:1002A000BC01CD010E948408609334027093350232
:1002B000809336029093370287ED92E060E071E020
:1002C0000E948306409134025091350260913602BB
:1002D0007091370287ED92E022E030E00E946D07D6
:1002E0000E942C01AA2797FDA095BA2FBC01CD0131
:1002F0000E948408609338027093390280933A0216
:1003000090933B0287ED92E061E171E00E948306E9
:100310000E942C01BC0187ED92E04AE050E00E946F
:10032000700687ED92E062E271E00E9483064091E0
:10033000340250913502609136027091370287ED98
:1003400092E022E030E00E946A0787ED92E068E3E5
:1003500071E00E94830640913C0250913D02609101
:100360003E0270913F0287ED92E022E030E00E9471
:100370006D0764EF71E080E090E00E943002089524
:100380008EE060E00E94F7028AE061E00E94F702DE
:1003900087ED92E040E052EC61E070E00E94C4031F
:1003A0000E942C01AA2797FDA095BA2FBC01CD0170
:1003B0000E948408609338027093390280933A0255
:1003C00090933B026093340270933502809336021F
:1003D0009093370208951F920F920FB60F92112437
:1003E0002F933F938F939F93AF93BF9380914A0234
:1003F00090914B02A0914C02B0914D0230914E026F
:10040000232F2A592D3720F02D570196A11DB11DFC
:1004100020934E0280934A0290934B02A0934C0289
:10042000B0934D028091460290914702A0914802FC
:10043000B09149020196A11DB11D8093460290938F
:100440004702A0934802B0934902BF91AF919F9198
:100450008F913F912F910F900FBE0F901F90189585
:10046000EF92FF920F931F937B018C019FB7F8943B
:100470002091460230914702409148025091490232
:1004800086B5A89B06C08F3F21F02F5F3F4F4F4F8F
:100490005F4F9FBF542F432F322F2227280F311D2C
:1004A000411D511DDA01C901880F991FAA1FBB1FE9
:1004B000820F931FA41FB51FBC0132C09FB7F894D1
:1004C00020914602309147024091480250914902E2
:1004D00086B5A89B06C08F3F21F02F5F3F4F4F4F3F
:1004E0005F4F9FBF542F432F322F2227280F311DDC
:1004F000411D511DDA01C901880F991FAA1FBB1F99
:10050000820F931FA41FB51F861B970B885E934015
:10051000A8F20894E108F1080109110968517C4F1B
:10052000E114F1040105110549F61F910F91FF90A7
:10053000EF900895789484B5826084BD84B581601D
:1005400084BD85B5826085BD85B5816085BDEEE6DB
:10055000F0E0808181608083E1E8F0E010828081BA
:1005600082608083808181608083E0E8F0E0808128
:1005700081608083E1EBF0E0808184608083E0EB48
:10058000F0E0808181608083EAE7F0E08081846030
:10059000808380818260808380818160808380818C
:1005A000806880831092C1000895982F8E3008F0E3
:1005B0009E509770809123028295880F880F807CCF
:1005C000892B80937C0080917A00806480937A00EC
:1005D00080917A0086FDFCCF2091780040917900CF
:1005E000942F80E030E0282B392BC9010895CF9358
:1005F000DF93482F50E0CA0186569F4FFC0134918B
:100600004A575F4FFA018491882369F190E0880F7F
:10061000991FFC01E859FF4FA591B491FC01EE58D8
:10062000FF4FC591D491662351F42FB7F8948C9164
:10063000932F909589238C93888189230BC06230F6
:1006400061F42FB7F8948C91932F909589238C9314
:100650008881832B88832FBF06C09FB7F8948C9125
:10066000832B8C939FBFDF91CF91089508951F92A4
:100670000F920FB60F9211242F933F934F938F93A6
:100680009F93EF93FF938091C00082FD1DC0409126
:10069000C60020918F02309190022F5F3F4F2F7341
:1006A000307080919102909192022817390771F071
:1006B000E0918F02F0919002E15BFD4F4083309317
:1006C000900220938F0202C08091C600FF91EF91AB
:1006D0009F918F914F913F912F910F900FBE0F904F
:1006E0001F901895E091E302F091E402E05CFF4F67
:1006F0008191919120813181805C9F4F821B930B6E
:1007000060E470E00E94BE09892B11F00E9436035C
:1007100008951F920F920FB60F9211242F933F93BB
:100720008F939F93EF93FF932091D3023091D40244
:100730008091D5029091D6022817390731F4809123
:10074000C1008F7D8093C10014C0E091D502F0916B
:10075000D602ED56FD4F20818091D5029091D602B0
:1007600001968F7390709093D6028093D502209358
:10077000C600FF91EF919F918F913F912F910F9024
:100780000FBE0F901F901895AF92BF92DF92EF921D
:10079000FF920F931F93CF93DF93EC017A018B01AC
:1007A000DD24D39491E0A92EB12CEC89FD89DD20C4
:1007B00069F0C50108A002C0880F991F0A94E2F7EA
:1007C000808360E47BE48CE490E005C0108260EA02
:1007D00075E286E290E0A80197010E94D1092150BC
:1007E000304040405040569547953795279580E1D9
:1007F0002030380720F0DD2011F0DD24D6CFE88945
:10080000F9893083EA89FB89208319A2EE89FF895F
:10081000408121E030E0C9010C8C02C0880F991F93
:100820000A94E2F7482B4083EE89FF894081C90191
:100830000D8C02C0880F991F0A94E2F7482B408361
:10084000EE89FF894081C9010E8C02C0880F991F73
:100850000A94E2F7482B4083EE89FF8980810F8C50
:1008600002C0220F331F0A94E2F720952823208329
:10087000DF91CF911F910F91FF90EF90DF90BF908C
:10088000AF900895DC011C96ED91FC911D97E05C02
:10089000FF4F8191919120813181805C9F4F821B1C
:1008A000930B60E470E00E94BE090895DC011C9681
:1008B000ED91FC911D97E05CFF4F20813181E05468
:1008C000F040DF01AE5BBF4F8D919C9111972817CF
:1008D000390719F42FEF3FEF07C08D919C91E80F76
:1008E000F91F8081282F30E0C9010895DC011C9692
:1008F000ED91FC911D97E05CFF4F20813181E05428
:10090000F040DF01AE5BBF4F8D919C91119728178E
:10091000390719F42FEF3FEF10C08D919C9111977B
:10092000E80FF91F20818D919C91119701968F738B
:10093000907011969C938E9330E0C9010895DC016C
:1009400091968C919197882339F05496ED91FC9172
:100950005597808186FFF9CF91961C920895CF9389
:10096000DF93EC01EE85FF85E05CFF4F2081318154
:10097000E054F0402F5F3F4F2F733070DF01AE5BCC
:10098000BF4F8D919C91119728173907D1F3E05CE7
:10099000FF4F80819181E054F040E80FF91F6083A0
:1009A000EE85FF85E05CFF4F31832083EE89FF8970
:1009B000208181E090E00F8C02C0880F991F0A947B
:1009C000E2F7282B208381E089A3EC89FD898081CF
:1009D0008064808381E090E0DF91CF910895109250
:1009E000DA021092D90288EE93E0A0E0B0E08093A2
:1009F000DB029093DC02A093DD02B093DE0288E27A
:100A000092E09093D8028093D7028FE492E0909383
:100A1000E4028093E30283E992E09093E6028093FC
:100A2000E50285EC90E09093E8028093E70284EC85
:100A300090E09093EA028093E90280EC90E090933A
:100A4000EC028093EB0281EC90E09093EE028093B5
:100A5000ED0282EC90E09093F0028093EF0286EC3E
:100A600090E09093F2028093F10284E08093F3028D
:100A700083E08093F40287E08093F50285E0809321
:100A8000F60281E08093F70208950895CF93DF93F3
:100A90000E949A020E9445050E94C001C2E7D3E06D
:100AA0000E9442012097E1F30E947203F9CFCF9296
:100AB000DF92EF92FF920F931F93CF93DF937C010E
:100AC0006B018A01C0E0D0E00FC0D6016D916D01CD
:100AD000D701ED91FC910190F081E02DC7010995BE
:100AE000C80FD91F015010400115110571F7CE0133
:100AF000DF91CF911F910F91FF90EF90DF90CF90FA
:100B00000895EF92FF920F931F938C01DC01ED91FA
:100B1000FC910190F081E02D6DE009957C01D801F8
:100B2000ED91FC910190F081E02DC8016AE00995FA
:100B30009C012E0D3F1DC9011F910F91FF90EF9059
:100B40000895CF93DF93EC016115710519F420E04E
:100B500030E00FC0DB010D900020E9F71197A61BD4
:100B6000B70BE881F9810280F381E02DAD01099591
:100B70009C01C901DF91CF9108954F925F927F92BE
:100B80008F929F92AF92BF92CF92DF92EF92FF929D
:100B90000F931F93DF93CF93CDB7DEB7A1970FB617
:100BA000F894DEBF0FBECDBF2C01742ECB012230D6
:100BB00008F42AE019A231E2C32ED12CCC0EDD1E9E
:100BC000822E9924AA24BB24672D752FA501940198
:100BD0000E94D10979018A01C801B701A5019401D8
:100BE0000E949F09472D461B0894C108D1084A302E
:100BF00014F4405D01C0495CF6014083E114F10446
:100C00000105110521F07E2C5F2DC801DDCFC20149
:100C1000B6010E94A105A1960FB6F894DEBF0FBEE3
:100C2000CDBFCF91DF911F910F91FF90EF90DF909B
:100C3000CF90BF90AF909F908F907F905F904F909C
:100C40000895DC012115310541F4ED91FC910190ED
:100C5000F081E02D642F099508950E94BD05089547
:100C6000CF92DF92EF92FF920F931F93CF93DF9378
:100C7000EC016A017B012115310541F4E881F9811C
:100C80000190F081E02D642F09951FC02A303105B5
:100C9000D1F477FF17C0E881F9810190F081E02D50
:100CA0006DE209958C0144275527BA014C195D095D
:100CB0006E097F09CE012AE00E94BD059801280F28
:100CC000391F04C02AE00E94BD059C01C901DF91C3
:100CD000CF911F910F91FF90EF90DF90CF900895EB
:100CE000EF92FF920F931F937B019A010027F7FC6D
:100CF0000095102FB801A7010E9430061F910F9197
:100D0000FF90EF9008950E94A10508957F928F9221
:100D10009F92AF92BF92CF92DF92EF92FF920F938A
:100D20001F93CF93DF934C017A018B01722ECB017D
:100D3000BA01A80197010E949B09882321F0C401F0
:100D40006DE471E021C0C0E0D0E057016801E89493
:100D5000D7F8C601B5012FEF3FEF4FE75FE70E94DD
:100D60009B09882351F4C601B5012FEF3FEF4FE7F0
:100D70005FE70E94E507181614F0C1E0D0E0219764
:100D800039F0C40161E571E00E94A105EC0193C056
:100D9000C801B7012FEF3FEF4FE75FE40E9434092E
:100DA000181654F0C801B7012FEF3FEF4FE75FEC83
:100DB0000E94E507882324F4C40165E571E0E4CFCF
:100DC000C801B70120E030E040E050E00E94E507B4
:100DD00087FD03C0C0E0D0E00EC0D401ED91FC91CE
:100DE0000190F081E02DC4016DE20995EC0117FB43
:100DF000109517F9109520E030E040E05FE3DD2426
:100E00000BC0CA01B90120E030E040E251E40E9489
:100E1000E9079B01AC01D394D71498F3C801B7013B
:100E20000E9481075B016C010E9456087B018C01C6
:100E3000C401B801A7012AE030E00E942106C80FD2
:100E4000D91F772039F0C40169E571E00E94A1053E
:100E5000C80FD91FC801B7010E9482089B01AC01CD
:100E6000C601B5010E94800724C020E030E040E2C6
:100E700051E40E9438097B018C010E9451085B01FA
:100E80006C01CC24B7FCC094DC2CC401B601A501D4
:100E90002AE030E00E943006C80FD91FC601B50114
:100EA0000E9484089B01AC01C801B7010E94800721
:100EB0007A947720D1F6CE01DF91CF911F910F91D7
:100EC000FF90EF90DF90CF90BF90AF909F908F906A
:100ED0007F9008950E9486060895EF92FF920F93E7
:100EE0001F937C010E9486068C01C7010E94810528
:100EF000080F191FC8011F910F91FF90EF900895DF
:100F00005058BB27AA270ED075C166D130F06BD1DF
:100F100020F031F49F3F11F41EF45BC10EF4E09514
:100F2000E7FB51C1E92F77D180F3BA176207730746
:100F30008407950718F071F49EF58FC10EF4E095C3
:100F40000B2EBA2FA02D0B01B90190010C01CA0183
:100F5000A0011124FF27591B99F0593F50F4503E2E
:100F600068F11A16F040A22F232F342F4427585F20
:100F7000F3CF469537952795A795F0405395C9F738
:100F80007EF41F16BA0B620B730B840BBAF09150F0
:100F9000A1F0FF0FBB1F661F771F881FC2F70EC08F
:100FA000BA0F621F731F841F48F487957795679562
:100FB000B795F7959E3F08F0B3CF9395880F08F04B
:100FC0009927EE0F979587950895D9D008F481E079
:100FD00008950CD00FC107D140F0FED030F021F4BD
:100FE0005F3F19F0F0C0511139C1F3C014D198F32B
:100FF0009923C9F35523B1F3951B550BBB27AA279A
:1010000062177307840738F09F5F5F4F220F331F0B
:10101000441FAA1FA9F333D00E2E3AF0E0E830D0D7
:1010200091505040E695001CCAF729D0FE2F27D0DA
:10103000660F771F881FBB1F261737074807AB07A8
:10104000B0E809F0BB0B802DBF01FF2793585F4F1D
:101050002AF09E3F510568F0B6C000C15F3FECF337
:10106000983EDCF3869577956795B795F7959F5FE2
:10107000C9F7880F911D9695879597F90895E1E036
:10108000660F771F881FBB1F621773078407BA0795
:1010900020F0621B730B840BBA0BEE1F88F7E095F0
:1010A000089504D06894B111D9C00895BCD088F0D7
:1010B0009F5790F0B92F9927B751A0F0D1F0660F44
:1010C000771F881F991F1AF0BA95C9F712C0B1305F
:1010D00081F0C3D0B1E00895C0C0672F782F882772
:1010E000B85F39F0B93FCCF3869577956795B3959E
:1010F000D9F73EF490958095709561957F4F8F4F0D
:101100009F4F0895E89409C097FB3EF49095809511
:10111000709561957F4F8F4F9F4F9923A9F0F92FBD
:1011200096E9BB279395F695879577956795B7953B
:10113000F111F8CFFAF4BB0F11F460FF1BC06F5F21
:101140007F4F8F4F9F4F16C0882311F096E911C033
:10115000772321F09EE8872F762F05C0662371F054
:1011600096E8862F70E060E02AF09A95660F771F68
:10117000881FDAF7880F9695879597F90895990F44
:101180000008550FAA0BE0E8FEEF16161706E80751
:10119000F907C0F012161306E407F50798F0621B72
:1011A000730B840B950B39F40A2661F0232B242B47
:1011B000252B21F408950A2609F4A140A6958FEF66
:1011C000811D811D089597F99F6780E870E060E0B8
:1011D00008959FEF80EC089500240A9416161706D0
:1011E00018060906089500240A9412161306140618
:1011F00005060895092E0394000C11F4882352F07B
:10120000BB0F40F4BF2B11F460FF04C06F5F7F4F32
:101210008F4F9F4F089557FD9058440F551F59F019
:101220005F3F71F04795880F97FB991F61F09F3FD3
:1012300079F087950895121613061406551FF2CFFC
:101240004695F1DF08C0161617061806991FF1CF4C
:1012500086957105610508940895E894BB27662773
:101260007727CB0197F908958ADF08F48FEF089567
:101270000BD0C0CFB1DF28F0B6DF18F0952309F00E
:10128000A2CFA7CF1124EACFC6DFA0F3959FD1F359
:10129000950F50E0551F629FF001729FBB27F00D24
:1012A000B11D639FAA27F00DB11DAA1F649F662779
:1012B000B00DA11D661F829F2227B00DA11D621FC8
:1012C000739FB00DA11D621F839FA00D611D221F82
:1012D000749F3327A00D611D231F849F600D211D66
:1012E000822F762F6A2F11249F5750408AF0E1F009
:1012F00088234AF0EE0FFF1FBB1F661F771F881F52
:1013000091505040A9F79E3F510570F05CCFA6CF99
:101310005F3FECF3983EDCF3869577956795B7953C
:10132000F795E7959F5FC1F7FE2B880F911D969566
:10133000879597F9089523DF880B990B0895629F8D
:10134000D001739FF001829FE00DF11D649FE00DBD
:10135000F11D929FF00D839FF00D749FF00D659F1E
:10136000F00D9927729FB00DE11DF91F639FB00D1D
:10137000E11DF91FBD01CF011124089597FB092E2E
:1013800007260AD077FD04D02ED006D000201AF40C
:10139000709561957F4F0895F6F7909581959F4FD1
:1013A0000895A1E21A2EAA1BBB1BFD010DC0AA1FA6
:1013B000BB1FEE1FFF1FA217B307E407F50720F0BE
:1013C000A21BB30BE40BF50B661F771F881F991F39
:1013D0001A9469F760957095809590959B01AC0182
:1013E000BD01CF010895AA1BBB1B51E107C0AA1F75
:1013F000BB1FA617B70710F0A61BB70B881F991FB6
:101400005A95A9F780959095BC01CD010895EE0FEE
:0E141000FF1F0590F491E02D0994F894FFCF92
:10141E00536574706F696E742073657420746F20D9
:10142E000043757272656E742074656D70203A3A61
:10143E00200020202D2D20205461726765742074A9
:10144E00656D70203A3A200020202D2D2020505717
:10145E004D2073657420746F203A3A20006E616ED1
:10146E0000696E66006F7666002E0001001F00296F
:10147E000033003D00470051005B0065006F0079AE
:10148E000083008D009700A100AB00B500BF00C91E
:10149E0000DD00F100050119012D014B01690187E5
:1014AE0001A501C301EB0113023B0263028102A9F4
:1014BE0002C702EF0217032B033F03670371038575
:1014CE00039903AD03CB03D503DF03E903FD03AAA1
:1014DE00033A01220110010201F700ED00E500DDE3
:1014EE0000D700D100CC00C700C300BE00BB00B7C0
:1014FE0000B300B000AA00A500A0009B00960090CB
:10150E00008B00850080007B0075006F0069006411
:10151E00005F005A0055004F004800450041003959
:10152E0000370033002D0027001C001700110009A2
:10153E0000E5FF0100000000AF04570542047604E9
:04154E0056049F049C
:00000001FF
